{
  "contractName": "MultiSigFactory",
  "abi": [
    {
      "anonymous": false,
      "inputs": [
        {
          "indexed": false,
          "internalType": "address",
          "name": "createdBy",
          "type": "address"
        },
        {
          "indexed": false,
          "internalType": "address",
          "name": "newWalletContractAddress",
          "type": "address"
        },
        {
          "indexed": false,
          "internalType": "uint256",
          "name": "timeOfTransaction",
          "type": "uint256"
        }
      ],
      "name": "WalletCreated",
      "type": "event"
    },
    {
      "inputs": [],
      "name": "createNewWallet",
      "outputs": [],
      "stateMutability": "nonpayable",
      "type": "function"
    },
    {
      "inputs": [
        {
          "internalType": "address",
          "name": "owner",
          "type": "address"
        },
        {
          "internalType": "address",
          "name": "walletAddress",
          "type": "address"
        }
      ],
      "name": "addNewWalletInstance",
      "outputs": [],
      "stateMutability": "nonpayable",
      "type": "function"
    },
    {
      "inputs": [
        {
          "internalType": "address",
          "name": "_owner",
          "type": "address"
        },
        {
          "internalType": "address",
          "name": "_walletAddress",
          "type": "address"
        }
      ],
      "name": "removeNewWalletInstance",
      "outputs": [],
      "stateMutability": "nonpayable",
      "type": "function"
    },
    {
      "inputs": [
        {
          "internalType": "address",
          "name": "owner",
          "type": "address"
        }
      ],
      "name": "getOwnerWallets",
      "outputs": [
        {
          "components": [
            {
              "internalType": "address",
              "name": "walletAddress",
              "type": "address"
            }
          ],
          "internalType": "struct MultiSigFactory.UserWallets[]",
          "name": "",
          "type": "tuple[]"
        }
      ],
      "stateMutability": "view",
      "type": "function",
      "constant": true
    },
    {
      "inputs": [
        {
          "internalType": "address",
          "name": "walletAddress",
          "type": "address"
        }
      ],
      "name": "getWalletOwners",
      "outputs": [
        {
          "components": [
            {
              "internalType": "address",
              "name": "owners",
              "type": "address"
            }
          ],
          "internalType": "struct MultiSigFactory.WalletUsers[]",
          "name": "",
          "type": "tuple[]"
        }
      ],
      "stateMutability": "view",
      "type": "function",
      "constant": true
    }
  ],
  "bytecode": "0x608060405234801561001057600080fd5b50614a3b806100206000396000f3fe60806040523480156200001157600080fd5b5060043610620000615760e060020a6000350463178f0d1c811462000066578063269ae8b11462000072578063628bf691146200010457806397596730146200011b578063bba4c191146200014a575b600080fd5b6200007062000170565b005b620000706200008336600462000639565b600160a060020a03918216600081815260036020908152604080832081518084018352958716808752815460018181018455928652848620975197018054978916600160a060020a03199889161790558452600483528184208251808501909352948252845490810185559383529120905191018054919093169116179055565b620000706200011536600462000639565b620002b5565b620001326200012c36600462000671565b6200051e565b604051620001419190620006a8565b60405180910390f35b620001616200015b36600462000671565b6200059d565b604051620001419190620006f5565b60003060405162000181906200060e565b600160a060020a039091168152602001604051809103906000f080158015620001ae573d6000803e3d6000fd5b506002805460018082019092557f405787fa12a823e0f2b7631cc41b3ba8828b3321ca811111fa75cd3aa3bb5ace018054600160a060020a03848116600160a060020a03199283168117909355336000818152600360209081526040808320815180840183528881528154808b018355828652848620915191018054918816918916919091179055878452600483528184208251808501845286815281549a8b01825581865294849020945194909901805494909616939096169290921790935580519182529181019390935242908301529293507f4459976dae5d173eda0ac09c39b840bed814c9d1e490e8b9ba23148e4b19a8379060600160405180910390a1505050565b600160a060020a03808316600090815260036020908152604080832093851683526004909152812090808080805b8654811015620003495787600160a060020a03168782815481106200030c576200030c62000736565b600091825260209091200154600160a060020a03160362000334576001945080935062000349565b8062000340816200076a565b915050620002e3565b5060005b8554811015620003b35788600160a060020a031686828154811062000376576200037662000736565b600091825260209091200154600160a060020a0316036200039e5760019250809150620003b3565b80620003aa816200076a565b9150506200034d565b5083620003bf57600080fd5b81620003ca57600080fd5b85548690620003dc9060019062000786565b81548110620003ef57620003ef62000736565b906000526020600020018684815481106200040e576200040e62000736565b60009182526020909120915491018054600160a060020a031916600160a060020a03909216919091179055845485906200044b9060019062000786565b815481106200045e576200045e62000736565b906000526020600020018582815481106200047d576200047d62000736565b60009182526020909120915491018054600160a060020a031916600160a060020a039092169190911790558454859080620004bc57620004bc620007a2565b60008281526020902081016000199081018054600160a060020a03191690550190558554869080620004f257620004f2620007a2565b60008281526020902081016000199081018054600160a060020a03191690550190555050505050505050565b600160a060020a0381166000908152600460209081526040808320805482518185028101850190935280835260609492939192909184015b82821015620005925760008481526020908190206040805180840190915290840154600160a060020a0316815282526001909201910162000556565b505050509050919050565b600160a060020a0381166000908152600360209081526040808320805482518185028101850190935280835260609492939192909184018215620005925760008481526020908190206040805180840190915290840154600160a060020a0316815282526001909201910162000556565b61424980620007bd83390190565b8035600160a060020a03811681146200063457600080fd5b919050565b600080604083850312156200064d57600080fd5b62000658836200061c565b915062000668602084016200061c565b90509250929050565b6000602082840312156200068457600080fd5b6200068f826200061c565b9392505050565b51600160a060020a0316815260200190565b6020808252825182820181905260009190848201906040850190845b81811015620006e957620006da83855162000696565b938501939250600101620006c4565b50909695505050505050565b6020808252825182820181905260009190848201906040850190845b81811015620006e9576200072783855162000696565b93850193925060010162000711565b60e060020a634e487b710260009081526032600452602490fd5b60e060020a634e487b710260009081526011600452602490fd5b6000600182016200077f576200077f62000750565b5060010190565b818103818111156200079c576200079c62000750565b92915050565b60e060020a634e487b710260009081526031600452602490fdfe60806040523480156200001157600080fd5b5060405162004249380380620042498339810160408190526200003491620000de565b60008054600160a060020a0319163317815560058054600181018255915260408051808201909152600381527f455448000000000000000000000000000000000000000000000000000000000060208201527f036b6384b5eca791c62761152d0c79bb0604c104a5fb6f4eb0703f3154bb3db090910190620000b79082620001e7565b5060018054600160a060020a031916600160a060020a0392909216919091179055620002ba565b600060208284031215620000f157600080fd5b8151600160a060020a03811681146200010957600080fd5b9392505050565b7f4e487b7100000000000000000000000000000000000000000000000000000000600052604160045260246000fd5b6002810460018216806200015457607f821691505b6020821081036200018e577f4e487b7100000000000000000000000000000000000000000000000000000000600052602260045260246000fd5b50919050565b601f821115620001e2576000818152602081206020601f86010481016020861015620001bd5750805b6020601f860104820191505b81811015620001de57828155600101620001c9565b5050505b505050565b815167ffffffffffffffff81111562000204576200020462000110565b6200021c816200021584546200013f565b8462000194565b602080601f8311600181146200025857600084156200023b5750858301515b60028086026008870290910a6000190419821617865550620001de565b600085815260208120601f198616915b82811015620002895788860151825594840194600190910190840162000268565b5085821015620002aa57878501516008601f88160260020a60001904191681555b5050505050600202600101905550565b613f7f80620002ca6000396000f3fe6080604052600436106100c65760e060020a6000350463064842ce81146100cb578063273cbaa0146100ed5780635cc596a1146101185780637804e7071461014657806389f4b317146101665780638c89a0ad146101865780638fcfe7281461019a578063926eeb30146101ba578063a04ef145146101da578063a4e360c8146101fc578063b0b22c2c14610247578063c682cce414610267578063c81d425914610289578063d63196e8146102a9578063e7fb8639146102bc578063f8394342146102dc575b600080fd5b3480156100d757600080fd5b506100eb6100e6366004613366565b6102fc565b005b3480156100f957600080fd5b50610102610916565b60405161010f91906133e6565b60405180910390f35b34801561012457600080fd5b50610138610133366004613536565b6109ef565b60405190815260200161010f565b34801561015257600080fd5b506100eb61016136600461357c565b610acd565b34801561017257600080fd5b50610138610181366004613536565b611087565b34801561019257600080fd5b503031610138565b3480156101a657600080fd5b506100eb6101b53660046135d6565b61114d565b3480156101c657600080fd5b506100eb6101d5366004613366565b611760565b3480156101e657600080fd5b506101ef611c7e565b60405161010f9190613641565b34801561020857600080fd5b50610237610217366004613710565b336000908152600760209081526040808320938352929052205460ff1690565b604051901515815260200161010f565b34801561025357600080fd5b506100eb610262366004613536565b611dc3565b34801561027357600080fd5b5061027c61203b565b60405161010f9190613729565b34801561029557600080fd5b506100eb6102a43660046137d5565b6121ed565b6100eb6102b736600461357c565b612409565b3480156102c857600080fd5b506100eb6102d73660046137d5565b6129ea565b3480156102e857600080fd5b506101386102f7366004613803565b612d82565b6001548190600160a060020a03166000805b60405160e460020a6309759673028152600160a060020a0384169063975967309061033d908790600401613820565b600060405180830381865afa15801561035a573d6000803e3d6000fd5b505050506040513d6000823e601f3d908101601f191682016040526103829190810190613834565b518110156104465760405160e460020a63097596730281523390600160a060020a038516906397596730906103bb908890600401613820565b600060405180830381865afa1580156103d8573d6000803e3d6000fd5b505050506040513d6000823e601f3d908101601f191682016040526104009190810190613834565b828151811061041157610411613900565b602002602001015160000151600160a060020a0316036104345760019150610446565b8061043e81613934565b91505061030e565b506001811515146104755760405160e560020a62461bcd02815260040161046c9061394d565b60405180910390fd5b6000600a868154811061048a5761048a613900565b906000526020600020906008020160000180546104a690613999565b80601f01602080910402602001604051908101604052809291908181526020018280546104d290613999565b801561051f5780601f106104f45761010080835404028352916020019161051f565b820191906000526020600020905b81548152906001019060200180831161050257829003601f168201915b5050505050905060008060005b600a5481101561058a5788600a828154811061054a5761054a613900565b9060005260206000209060080201600501540361056a576001925061058a565b8161057481613934565b925050808061058290613934565b91505061052c565b5033600160a060020a0316600a82815481106105a8576105a8613900565b6000918252602090912060016008909202010154600160a060020a0316146105e55760405160e560020a62461bcd02815260040161046c906139d7565b816106355760405160e560020a62461bcd02815260206004820152601f60248201527f7472616e73666572207265717565737420646f6573206e6f7420657869737400604482015260640161046c565b600a818154811061064857610648613900565b6000918252602080832060046008909302019190910154600160a060020a038a16835260068252604080842033855290925291819020905161068b908690613a1e565b908152602001604051809103902060008282546106a89190613a3a565b9091555050600a80546106bd90600190613a53565b815481106106cd576106cd613900565b9060005260206000209060080201600a82815481106106ee576106ee613900565b60009182526020909120600890910201806107098382613acc565b506001828101549082018054600160a060020a03928316600160a060020a03199182161790915560028085015490840180549184169183169190911790556003808501549084018054919093169116179055600480830154908201556005808301549082015560068083015490820155600791820154910155600a80547f88ac4e01306872c0a5f289baf13af804eedb981db2018261cf8afed94bd9e19b918591339190859081106107bd576107bd613900565b906000526020600020906008020160020160009054906101000a9004600160a060020a0316600a85815481106107f5576107f5613900565b906000526020600020906008020160040154600a868154811061081a5761081a613900565b906000526020600020906008020160050154600a878154811061083f5761083f613900565b906000526020600020906008020160060154600a888154811061086457610864613900565b9060005260206000209060080201600701546040516108899796959493929190613ba8565b60405180910390a1600a8054806108a2576108a2613bf5565b600082815260208120600019909201916008830201906108c282826132fb565b50600181018054600160a060020a0319908116909155600282018054821690556003820180549091169055600060048201819055600582018190556006820181905560079091015590555050505050505050565b60606005805480602002602001604051908101604052809291908181526020016000905b828210156109e657838290600052602060002001805461095990613999565b80601f016020809104026020016040519081016040528092919081815260200182805461098590613999565b80156109d25780601f106109a7576101008083540402835291602001916109d2565b820191906000526020600020905b8154815290600101906020018083116109b557829003601f168201915b50505050508152602001906001019061093a565b50505050905090565b604080518082019091526003815260eb60020a6208aa89026020918201528251908301206000908390600080516020613f2a83398151915214610a83576000600160a060020a0316600882604051610a479190613a1e565b90815260405190819003602001902060010154600160a060020a031603610a835760405160e560020a62461bcd02815260040161046c90613c0f565b600160a060020a0383166000908152600660209081526040808320308452909152908190209051610ab5908690613a1e565b90815260200160405180910390205491505092915050565b6001548190600160a060020a03166000805b60405160e460020a6309759673028152600160a060020a03841690639759673090610b0e908790600401613820565b600060405180830381865afa158015610b2b573d6000803e3d6000fd5b505050506040513d6000823e601f3d908101601f19168201604052610b539190810190613834565b51811015610c175760405160e460020a63097596730281523390600160a060020a03851690639759673090610b8c908890600401613820565b600060405180830381865afa158015610ba9573d6000803e3d6000fd5b505050506040513d6000823e601f3d908101601f19168201604052610bd19190810190613834565b8281518110610be257610be2613900565b602002602001015160000151600160a060020a031603610c055760019150610c17565b80610c0f81613934565b915050610adf565b50600181151514610c3d5760405160e560020a62461bcd02815260040161046c9061394d565b604080518082019091526003815260eb60020a6208aa89026020918201528651908701208690600080516020613f2a83398151915214610cce576000600160a060020a0316600882604051610c929190613a1e565b90815260405190819003602001902060010154600160a060020a031603610cce5760405160e560020a62461bcd02815260040161046c90613c0f565b600160a060020a0385166000908152600660209081526040808320338452909152908190209051879190610d03908a90613a1e565b9081526020016040518091039020541015610d1d57600080fd5b600160a060020a0385166000908152600660209081526040808320338452909152908190209051879190610d52908a90613a1e565b90815260200160405180910390206000828254610d6f9190613a53565b9091555050604080518082019091526003815260eb60020a6208aa8902602091820152875190880120600080516020613eea83398151915201610ddf57604051339087156108fc029088906000818181858888f19350505050158015610dd9573d6000803e3d6000fd5b50610f35565b6000600888604051610df19190613a1e565b9081526040519081900360200181206001015460e060020a6370a08231028252600160a060020a03169150879082906370a0823190610e34903090600401613820565b602060405180830381865afa158015610e51573d6000803e3d6000fd5b505050506040513d601f19601f82011682018060405250810190610e759190613c41565b1015610ebe5760405160e560020a62461bcd0281526020600482015260126024820152607160020a7124b739bab33334b1b4b2b73a102a37b5b2b702604482015260640161046c565b60405160e060020a63a9059cbb028152600160a060020a0382169063a9059cbb90610eef9033908b90600401613c5a565b6020604051808303816000875af1158015610f0e573d6000803e3d6000fd5b505050506040513d601f19601f82011682018060405250810190610f329190613c73565b50505b7f6a647eacc9e98792655e8dba08e3167440b93e02ef76e8e3330fa10a27b4ecbf87338860035442604051610f6e959493929190613c95565b60405180910390a16040805160c08101825288815233602080830191909152600160a060020a038816828401526060820189905242608083015282518084019093526008835260c060020a675769746864726177029083015260a08101919091526009805460018101825560009190915281516006909102600080516020613f0a833981519152019081906110039082613cd5565b506020820151600182018054600160a060020a03928316600160a060020a0319918216179091556040840151600284018054919093169116179055606082015160038201556080820151600482015560a082015160058201906110669082613cd5565b5050600380549150600061107983613934565b919050555050505050505050565b604080518082019091526003815260eb60020a6208aa89026020918201528251908301206000908390600080516020613f2a8339815191521461111b576000600160a060020a03166008826040516110df9190613a1e565b90815260405190819003602001902060010154600160a060020a03160361111b5760405160e560020a62461bcd02815260040161046c90613c0f565b600160a060020a0383166000908152600660209081526040808320338452909152908190209051610ab5908690613a1e565b6001548190600160a060020a03166000805b60405160e460020a6309759673028152600160a060020a0384169063975967309061118e908790600401613820565b600060405180830381865afa1580156111ab573d6000803e3d6000fd5b505050506040513d6000823e601f3d908101601f191682016040526111d39190810190613834565b518110156112975760405160e460020a63097596730281523390600160a060020a0385169063975967309061120c908890600401613820565b600060405180830381865afa158015611229573d6000803e3d6000fd5b505050506040513d6000823e601f3d908101601f191682016040526112519190810190613834565b828151811061126257611262613900565b602002602001015160000151600160a060020a0316036112855760019150611297565b8061128f81613934565b91505061115f565b506001811515146112bd5760405160e560020a62461bcd02815260040161046c9061394d565b604080518082019091526003815260eb60020a6208aa89026020918201528751908801208790600080516020613f2a8339815191521461134e576000600160a060020a03166008826040516113129190613a1e565b90815260405190819003602001902060010154600160a060020a03160361134e5760405160e560020a62461bcd02815260040161046c90613c0f565b600154600160a060020a0386811660009081526006602090815260408083203384529091529081902090519190921691889161138b908c90613a1e565b90815260200160405180910390205410156113fd5760405160e560020a62461bcd02815260206004820152602660248201527f696e737566666963656e742066756e647320746f206372656174652061207472604482015260d160020a6530b739b332b902606482015260840161046c565b60005b60405160e460020a6309759673028152600160a060020a0383169063975967309061142f908a90600401613820565b600060405180830381865afa15801561144c573d6000803e3d6000fd5b505050506040513d6000823e601f3d908101601f191682016040526114749190810190613834565b518110156115965788600160a060020a031682600160a060020a03166397596730896040518263ffffffff1660e060020a0281526004016114b59190613820565b600060405180830381865afa1580156114d2573d6000803e3d6000fd5b505050506040513d6000823e601f3d908101601f191682016040526114fa9190810190613834565b828151811061150b5761150b613900565b602002602001015160000151600160a060020a0316036115845760405160e560020a62461bcd02815260206004820152602860248201527f63616e6e6f74207472616e736665722066756e6473207769746869776e207468604482015260c260020a6719481dd85b1b195d02606482015260840161046c565b8061158e81613934565b915050611400565b50600160a060020a03861660009081526006602090815260408083203384529091529081902090518891906115cc908c90613a1e565b908152602001604051809103902060008282546115e99190613a53565b909155505060408051610100810182528a8152336020820152600160a060020a038a81169282019290925290871660608201526080810188905260045460a0820152600060c082018190524260e0830152600a80546001810182559152815160089091027fc65a7bb8d6351c1cf70c95a316cc6a92839c986682d98bc35f958f4883f9d2a80190819061167c9082613cd5565b506020820151600182018054600160a060020a03928316600160a060020a03199182161790915560408401516002840180549184169183169190911790556060840151600384018054919093169116179055608082015160048083019190915560a0830151600583015560c0830151600683015560e090920151600790910155805490600061170a83613934565b91905055507f9cc5df05955d08828d561f92ad3f6b82c78a55cf7d3dedacffacc4f694faf9be89338a8a60045460004260405161174d9796959493929190613ba8565b60405180910390a1505050505050505050565b6001548190600160a060020a03166000805b60405160e460020a6309759673028152600160a060020a038416906397596730906117a1908790600401613820565b600060405180830381865afa1580156117be573d6000803e3d6000fd5b505050506040513d6000823e601f3d908101601f191682016040526117e69190810190613834565b518110156118aa5760405160e460020a63097596730281523390600160a060020a0385169063975967309061181f908890600401613820565b600060405180830381865afa15801561183c573d6000803e3d6000fd5b505050506040513d6000823e601f3d908101601f191682016040526118649190810190613834565b828151811061187557611875613900565b602002602001015160000151600160a060020a03160361189857600191506118aa565b806118a281613934565b915050611772565b506001811515146118d05760405160e560020a62461bcd02815260040161046c9061394d565b6000600a86815481106118e5576118e5613900565b9060005260206000209060080201600001805461190190613999565b80601f016020809104026020016040519081016040528092919081815260200182805461192d90613999565b801561197a5780601f1061194f5761010080835404028352916020019161197a565b820191906000526020600020905b81548152906001019060200180831161195d57829003601f168201915b5050505050905060008060005b600a548110156119e55788600a82815481106119a5576119a5613900565b906000526020600020906008020160050154036119c557600192506119e5565b816119cf81613934565b92505080806119dd90613934565b915050611987565b5081611a065760405160e560020a62461bcd02815260040161046c906139d7565b3360009081526007602090815260408083208b845290915290205460ff1615611a865760405160e560020a62461bcd02815260206004820152602660248201527f63616e6e6f7420617070726f7665207468652073616d65207472616e73666572604482015260d060020a6520747769636502606482015260840161046c565b33600160a060020a0316600a8281548110611aa357611aa3613900565b6000918252602090912060016008909202010154600160a060020a031603611aca57600080fd5b3360009081526007602090815260408083208b84529091529020805460ff19166001179055600a805482908110611b0357611b03613900565b600091825260208220600660089092020101805491611b2183613934565b91905055507fead8052a59bd99f1b0115f4da8e862ebc15be06d11ad168b737b8e6dae0886c88333600a8481548110611b5c57611b5c613900565b906000526020600020906008020160020160009054906101000a9004600160a060020a0316600a8581548110611b9457611b94613900565b906000526020600020906008020160040154600a8681548110611bb957611bb9613900565b906000526020600020906008020160050154600a8781548110611bde57611bde613900565b906000526020600020906008020160060154600a8881548110611c0357611c03613900565b906000526020600020906008020160070154604051611c289796959493929190613ba8565b60405180910390a16000611c3b88612d82565b905080600a8381548110611c5157611c51613900565b90600052602060002090600802016006015403611c7357611c7384838a612e13565b505050505050505050565b6060600a805480602002602001604051908101604052809291908181526020016000905b828210156109e6578382906000526020600020906008020160405180610100016040529081600082018054611cd690613999565b80601f0160208091040260200160405190810160405280929190818152602001828054611d0290613999565b8015611d4f5780601f10611d2457610100808354040283529160200191611d4f565b820191906000526020600020905b815481529060010190602001808311611d3257829003601f168201915b5050509183525050600182810154600160a060020a039081166020808501919091526002850154821660408501526003850154909116606084015260048401546080840152600584015460a0840152600684015460c084015260079093015460e09092019190915291835292019101611ca2565b600054600160a060020a03163314611e205760405160e560020a62461bcd02815260206004820152601b60248201527f4f6e6c7920436f6e7472616374204f776e657220616c6c6f7765640000000000604482015260640161046c565b60005b600554811015611ec957828051906020012060058281548110611e4857611e48613900565b90600052602060002001604051611e5f9190613d8a565b604051809103902003611eb75760405160e560020a62461bcd02815260206004820152601b60248201527f63616e6e6f7420616464206475706c696361746520746f6b656e730000000000604482015260640161046c565b80611ec181613934565b915050611e23565b50818051906020012081600160a060020a03166395d89b416040518163ffffffff1660e060020a028152600401600060405180830381865afa158015611f13573d6000803e3d6000fd5b505050506040513d6000823e601f3d908101601f19168201604052611f3b9190810190613e00565b8051906020012014611f4c57600080fd5b604051806040016040528083815260200182600160a060020a0316815250600883604051611f7a9190613a1e565b90815260405190819003602001902081518190611f979082613cd5565b506020919091015160019182018054600160a060020a031916600160a060020a039092169190911790556005805491820181556000527f036b6384b5eca791c62761152d0c79bb0604c104a5fb6f4eb0703f3154bb3db001611ff98382613cd5565b507fe6887a88bb2477605d9b68e33f64a263587018a6a232f3b234ba1b78c96b84f23383834260405161202f9493929190613e76565b60405180910390a15050565b60606009805480602002602001604051908101604052809291908181526020016000905b828210156109e657838290600052602060002090600602016040518060c001604052908160008201805461209290613999565b80601f01602080910402602001604051908101604052809291908181526020018280546120be90613999565b801561210b5780601f106120e05761010080835404028352916020019161210b565b820191906000526020600020905b8154815290600101906020018083116120ee57829003601f168201915b50505091835250506001820154600160a060020a0390811660208301526002830154166040820152600382015460608201526004820154608082015260058201805460a09092019161215c90613999565b80601f016020809104026020016040519081016040528092919081815260200182805461218890613999565b80156121d55780601f106121aa576101008083540402835291602001916121d5565b820191906000526020600020905b8154815290600101906020018083116121b857829003601f168201915b5050505050815250508152602001906001019061205f565b6001548190600160a060020a03166000805b60405160e460020a6309759673028152600160a060020a0384169063975967309061222e908790600401613820565b600060405180830381865afa15801561224b573d6000803e3d6000fd5b505050506040513d6000823e601f3d908101601f191682016040526122739190810190613834565b518110156123375760405160e460020a63097596730281523390600160a060020a038516906397596730906122ac908890600401613820565b600060405180830381865afa1580156122c9573d6000803e3d6000fd5b505050506040513d6000823e601f3d908101601f191682016040526122f19190810190613834565b828151811061230257612302613900565b602002602001015160000151600160a060020a0316036123255760019150612337565b8061232f81613934565b9150506121ff565b5060018115151461235d5760405160e560020a62461bcd02815260040161046c9061394d565b60015460405160e060020a63628bf691028152600160a060020a0390911690819063628bf691906123949089908990600401613eab565b600060405180830381600087803b1580156123ae57600080fd5b505af11580156123c2573d6000803e3d6000fd5b505050507fd1f329271e4a98b0181a7d91618a0a5de6f42a1aaf4c1362493d829eaf405a8a3387426040516123f993929190613ec5565b60405180910390a1505050505050565b6001548190600160a060020a03166000805b60405160e460020a6309759673028152600160a060020a0384169063975967309061244a908790600401613820565b600060405180830381865afa158015612467573d6000803e3d6000fd5b505050506040513d6000823e601f3d908101601f1916820160405261248f9190810190613834565b518110156125535760405160e460020a63097596730281523390600160a060020a038516906397596730906124c8908890600401613820565b600060405180830381865afa1580156124e5573d6000803e3d6000fd5b505050506040513d6000823e601f3d908101601f1916820160405261250d9190810190613834565b828151811061251e5761251e613900565b602002602001015160000151600160a060020a0316036125415760019150612553565b8061254b81613934565b91505061241b565b506001811515146125795760405160e560020a62461bcd02815260040161046c9061394d565b604080518082019091526003815260eb60020a6208aa89026020918201528651908701208690600080516020613f2a8339815191521461260a576000600160a060020a03166008826040516125ce9190613a1e565b90815260405190819003602001902060010154600160a060020a03160361260a5760405160e560020a62461bcd02815260040161046c90613c0f565b600160a060020a0385166000908152600660209081526040808320338452909152808220905161263b908a90613a1e565b908152602001604051809103902054101561269b5760405160e560020a62461bcd02815260206004820152601c60248201527f63616e6e6f74206465706f7369697420612063616c7565206f66203000000000604482015260640161046c565b604080518082019091526003815260eb60020a6208aa8902602091820152875190880120600080516020613eea8339815191520161273457600160a060020a038516600090815260066020908152604080832033845290915290819020905160eb60020a6208aa89028152349190600301908152602001604051809103902060008282546127299190613a3a565b909155506128a79050565b600160a060020a0385166000908152600660209081526040808320338452909152908190209051879190612769908a90613a1e565b908152602001604051809103902060008282546127869190613a3a565b92505081905550600060088860405161279f9190613a1e565b9081526040519081900360200181206001015460e060020a6370a08231028252600160a060020a03169150879082906370a08231906127e2903390600401613820565b602060405180830381865afa1580156127ff573d6000803e3d6000fd5b505050506040513d601f19601f820116820180604052508101906128239190613c41565b101561282e57600080fd5b60405160e060020a6323b872dd028152600160a060020a038216906323b872dd9061286190339030908c90600401613ec5565b6020604051808303816000875af1158015612880573d6000803e3d6000fd5b505050506040513d601f19601f820116820180604052508101906128a49190613c73565b50505b7f41751252894a74bd975de630158c4e47bb25c36d9ce7ad90383d86d391d2be12873334600254426040516128e0959493929190613c95565b60405180910390a16040805160c08101825288815233602080830191909152600160a060020a038816828401526060820189905242608083015282518084019093526007835260ca60020a6611195c1bdcda5d029083015260a08101919091526009805460018101825560009190915281516006909102600080516020613f0a833981519152019081906129749082613cd5565b506020820151600182018054600160a060020a03928316600160a060020a0319918216179091556040840151600284018054919093169116179055606082015160038201556080820151600482015560a082015160058201906129d79082613cd5565b5050600280549150600061107983613934565b6001548190600160a060020a03166000805b60405160e460020a6309759673028152600160a060020a03841690639759673090612a2b908790600401613820565b600060405180830381865afa158015612a48573d6000803e3d6000fd5b505050506040513d6000823e601f3d908101601f19168201604052612a709190810190613834565b51811015612b345760405160e460020a63097596730281523390600160a060020a03851690639759673090612aa9908890600401613820565b600060405180830381865afa158015612ac6573d6000803e3d6000fd5b505050506040513d6000823e601f3d908101601f19168201604052612aee9190810190613834565b8281518110612aff57612aff613900565b602002602001015160000151600160a060020a031603612b225760019150612b34565b80612b2c81613934565b9150506129fc565b50600181151514612b5a5760405160e560020a62461bcd02815260040161046c9061394d565b600154600160a060020a031660005b60405160e460020a6309759673028152600160a060020a03831690639759673090612b98908990600401613820565b600060405180830381865afa158015612bb5573d6000803e3d6000fd5b505050506040513d6000823e601f3d908101601f19168201604052612bdd9190810190613834565b51811015612ceb5786600160a060020a031682600160a060020a03166397596730886040518263ffffffff1660e060020a028152600401612c1e9190613820565b600060405180830381865afa158015612c3b573d6000803e3d6000fd5b505050506040513d6000823e601f3d908101601f19168201604052612c639190810190613834565b8281518110612c7457612c74613900565b602002602001015160000151600160a060020a031603612cd95760405160e560020a62461bcd02815260206004820152601b60248201527f63616e6e6f7420616464206475706c6963617465206f776e6572730000000000604482015260640161046c565b80612ce381613934565b915050612b69565b5060405160e060020a63269ae8b1028152600160a060020a0382169063269ae8b190612d1d9089908990600401613eab565b600060405180830381600087803b158015612d3757600080fd5b505af1158015612d4b573d6000803e3d6000fd5b505050507f43abcff3409244ec1056224394af5f818e9a74866f0a11bfee2ad52f68ad6fb93387426040516123f993929190613ec5565b6001805460405160e460020a6309759673028152600092600160a060020a0390921691908290639759673090612dbc908790600401613820565b600060405180830381865afa158015612dd9573d6000803e3d6000fd5b505050506040513d6000823e601f3d908101601f19168201604052612e019190810190613834565b51612e0c9190613a53565b9392505050565b600a8281548110612e2657612e26613900565b9060005260206000209060080201600401546006600083600160a060020a0316600160a060020a031681526020019081526020016000206000600a8581548110612e7257612e72613900565b6000918252602080832060026008909302019190910154600160a060020a0316835282019290925260409081019091209051612eaf908690613a1e565b90815260200160405180910390206000828254612ecc9190613a3a565b9091555050604080518082019091526003815260eb60020a6208aa8902602091820152835190840120600080516020613eea83398151915201612fa357600a8281548110612f1c57612f1c613900565b906000526020600020906008020160020160009054906101000a9004600160a060020a0316600160a060020a03166108fc600a8481548110612f6057612f60613900565b9060005260206000209060080201600401549081150290604051600060405180830381858888f19350505050158015612f9d573d6000803e3d6000fd5b5061309c565b600883604051612fb39190613a1e565b90815260405190819003602001902060010154600a8054600160a060020a039092169163a9059cbb919085908110612fed57612fed613900565b906000526020600020906008020160020160009054906101000a9004600160a060020a0316600a858154811061302557613025613900565b9060005260206000209060080201600401546040518363ffffffff1660e060020a028152600401613057929190613c5a565b6020604051808303816000875af1158015613076573d6000803e3d6000fd5b505050506040513d601f19601f8201168201806040525081019061309a9190613c73565b505b7fdeea4c72b502b4bd7dce3c793e57c46bb32f3b2f66613d54a765e7585f520a2c8333600a85815481106130d2576130d2613900565b906000526020600020906008020160020160009054906101000a9004600160a060020a0316600a868154811061310a5761310a613900565b906000526020600020906008020160040154600a878154811061312f5761312f613900565b906000526020600020906008020160050154600a888154811061315457613154613900565b906000526020600020906008020160060154600a898154811061317957613179613900565b90600052602060002090600802016007015460405161319e9796959493929190613ba8565b60405180910390a1600a80546131b690600190613a53565b815481106131c6576131c6613900565b9060005260206000209060080201600a83815481106131e7576131e7613900565b60009182526020909120600890910201806132028382613acc565b506001828101549082018054600160a060020a03928316600160a060020a03199182161790915560028085015490840180549184169183169190911790556003808501549084018054919093169116179055600480830154908201556005808301549082015560068083015490820155600791820154910155600a80548061328c5761328c613bf5565b600082815260208120600019909201916008830201906132ac82826132fb565b50600181018054600160a060020a031990811690915560028201805482169055600382018054909116905560006004820181905560058201819055600682018190556007909101559055505050565b50805461330790613999565b6000825580601f10613317575050565b601f0160209004906000526020600020908101906133359190613338565b50565b5b8082111561334d5760008155600101613339565b5090565b600160a060020a038116811461333557600080fd5b6000806040838503121561337957600080fd5b82359150602083013561338b81613351565b809150509250929050565b60005b838110156133b1578181015183820152602001613399565b50506000910152565b600081518084526133d2816020860160208601613396565b601f01601f19169290920160200192915050565b600060208083018184528085518083526040860191506040848202870101925083870160005b8281101561343a57603f198886030184526134288583516133ba565b9450928501929085019060010161340c565b5092979650505050505050565b60e060020a634e487b710260009081526041600452602490fd5b604051602081016001604060020a038111828210171561348357613483613447565b60405290565b604051601f8201601f191681016001604060020a03811182821017156134b1576134b1613447565b604052919050565b60006001604060020a038211156134d2576134d2613447565b50601f01601f191660200190565b600082601f8301126134f157600080fd5b81356135046134ff826134b9565b613489565b81815284602083860101111561351957600080fd5b816020850160208301376000918101602001919091529392505050565b6000806040838503121561354957600080fd5b82356001604060020a0381111561355f57600080fd5b61356b858286016134e0565b925050602083013561338b81613351565b60008060006060848603121561359157600080fd5b83356001604060020a038111156135a757600080fd5b6135b3868287016134e0565b9350506020840135915060408401356135cb81613351565b809150509250925092565b600080600080608085870312156135ec57600080fd5b84356001604060020a0381111561360257600080fd5b61360e878288016134e0565b945050602085013561361f81613351565b925060408501359150606085013561363681613351565b939692955090935050565b60208082528251828201819052600091906040908185019080840286018301878501865b8381101561370257603f198984030185528151610100815181865261368c828701826133ba565b838b0151600160a060020a03908116888d01528a850151168a88015260608085015191935091506136c782880182600160a060020a03169052565b50506080828101519086015260a0808301519086015260c0808301519086015260e09182015191909401529386019390860190600101613665565b509098975050505050505050565b60006020828403121561372257600080fd5b5035919050565b60208082528251828201819052600091906040908185019080840286018301878501865b8381101561370257603f19898403018552815160c08151818652613773828701826133ba565b838b0151600160a060020a03908116888d01528a850151168a880152606080850151908801526080808501519088015260a0938401518782039488019490945291506137c1905081836133ba565b96890196945050509086019060010161374d565b600080604083850312156137e857600080fd5b82356137f381613351565b9150602083013561338b81613351565b60006020828403121561381557600080fd5b8135612e0c81613351565b600160a060020a0391909116815260200190565b6000602080838503121561384757600080fd5b82516001604060020a038082111561385e57600080fd5b818501915085601f83011261387257600080fd5b81518181111561388457613884613447565b8381029150613894848301613489565b81815291830184019184810190888411156138ae57600080fd5b938501935b838510156138f45785858a0312156138cd57600092508283fd5b6138d5613461565b925084516138e281613351565b835282825293850193908501906138b3565b98975050505050505050565b60e060020a634e487b710260009081526032600452602490fd5b60e060020a634e487b710260009081526011600452602490fd5b6000600182016139465761394661391a565b5060010190565b60208082526029908201527f6f6e6c792077616c6c6574206f776e6572732063616e2063616c6c2074686973604082015260b960020a6810333ab731ba34b7b702606082015260800190565b6002810460018216806139ad57607f821691505b6020821081036139d15760e060020a634e487b710260009081526022600452602490fd5b50919050565b60208082526024908201527f6f6e6c7920746865207472616e736665722063726561746f722063616e206361604082015260e260020a631b98d95b02606082015260800190565b60008251613a30818460208701613396565b9190910192915050565b80820180821115613a4d57613a4d61391a565b92915050565b81810381811115613a4d57613a4d61391a565b601f821115613ab0576000818152602081206020601f86010481016020861015613a8d5750805b6020601f860104820191505b81811015613aac57828155600101613a99565b5050505b505050565b6002808302600893909302900a6000190419161790565b818103613ad7575050565b613ae18254613999565b6001604060020a03811115613af857613af8613447565b613b0c81613b068454613999565b84613a66565b6000601f821160018114613b3a5760008315613b285750848201545b613b328482613ab5565b855550613ba1565b600085815260209020601f19841690600086815260209020845b83811015613b745782860154825560019586019590910190602001613b54565b5085831015613b9457818501546008601f88160260020a60001904191681555b5050506001600284020184555b5050505050565b60e081526000613bbb60e083018a6133ba565b600160a060020a0398891660208401529690971660408201526060810194909452608084019290925260a083015260c09091015292915050565b60e060020a634e487b710260009081526031600452602490fd5b6020808252601590820152605860020a74746f6b656e20646f6573206e6f742065786978747302604082015260600190565b600060208284031215613c5357600080fd5b5051919050565b600160a060020a03929092168252602082015260400190565b600060208284031215613c8557600080fd5b81518015158114612e0c57600080fd5b60a081526000613ca860a08301886133ba565b600160a060020a039690961660208301525060408101939093526060830191909152608090910152919050565b81516001604060020a03811115613cee57613cee613447565b613cfc81613b068454613999565b602080601f831160018114613d2b5760008415613d195750858301515b613d238582613ab5565b865550613aac565b600085815260208120601f198616915b82811015613d5a57888601518255948401946001909101908401613d3b565b5085821015613d7a57878501516008601f88160260020a60001904191681555b5050505050600202600101905550565b6000808354613d9881613999565b60018281168015613db05760018114613dc557613df4565b60ff1984168752821515830287019450613df4565b8760005260208060002060005b85811015613deb5781548a820152908401908201613dd2565b50505082870194505b50929695505050505050565b600060208284031215613e1257600080fd5b81516001604060020a03811115613e2857600080fd5b8201601f81018413613e3957600080fd5b8051613e476134ff826134b9565b818152856020838501011115613e5c57600080fd5b613e6d826020830160208601613396565b95945050505050565b6000600160a060020a03808716835260806020840152613e9960808401876133ba565b94166040830152506060015292915050565b600160a060020a0392831681529116602082015260400190565b600160a060020a03938416815291909216602082015260408101919091526060019056fe55514145c7ef4e1948f87e0eb4d28d3e34763f4d4cdf3bc449800860a9d0a00c6e1540171b6c0c960b71a7020d9f60077f6af931a8bbf590da0223dacf75c7afaaaebeba3810b1e6b70781f14b2d72c1cb89c0b2b320c43bb67ff79f562f5ff4a2646970667358221220e594766349af015628a404061fb39560c97c34dff1214faee0784df54370d59564736f6c63430008110033a26469706673582212205a365ce1a2da054f2ad20cec61385eda2e706f3e16e0cd051f548de476b645ee64736f6c63430008110033",
  "immutableReferences": {},
  "source": "// SPDX-License-Identifier: MIT\npragma solidity ^0.8.10;\nimport \"./MultiSigWallet.sol\";\n\ncontract MultiSigFactory {\n\n    struct UserWallets{\n\n        address walletAddress;\n    }\n\n    struct WalletUsers{\n\n        address owners;\n    }\n\n    UserWallets[] userWallets;\n    WalletUsers[] walletUsers;\n    MultiSigWallet[] multisigWalletIntances;\n\n    mapping(address => UserWallets[]) ownersWallets;\n    mapping(address => WalletUsers[]) walletOwners;\n\n    event WalletCreated(address createdBy, address newWalletContractAddress, uint timeOfTransaction);\n\n    function createNewWallet() public {\n\n        MultiSigWallet newMultisigWalletContract = new MultiSigWallet(address(this));\n        multisigWalletIntances.push(newMultisigWalletContract);\n\n        UserWallets[] storage newWallet = ownersWallets[msg.sender];\n        newWallet.push(UserWallets(address(newMultisigWalletContract)));\n\n        WalletUsers[] storage newOwner = walletOwners[address(newMultisigWalletContract)];\n        newOwner.push(WalletUsers(msg.sender));\n\n        emit WalletCreated(msg.sender, address(newMultisigWalletContract), block.timestamp);\n\n    }\n\n    function addNewWalletInstance(address owner, address walletAddress) external {\n\n        UserWallets[] storage newWallet = ownersWallets[owner];\n        newWallet.push(UserWallets(walletAddress));\n\n        WalletUsers[] storage newOwner = walletOwners[walletAddress];\n        newOwner.push(WalletUsers(owner));\n\n    }\n\n    function removeNewWalletInstance(address _owner, address _walletAddress) external {\n\n        UserWallets[] storage newWallet = ownersWallets[_owner];\n        WalletUsers[] storage newOwner = walletOwners[_walletAddress];\n\n        bool walletHasBeenFound = false;\n        uint walletIndex;\n        bool ownerHasBeenFound = false;\n        uint ownerIndex;\n        for (uint i = 0; i < newWallet.length; i++) {\n\n            if(newWallet[i].walletAddress == _walletAddress) {\n\n                walletHasBeenFound = true;\n                walletIndex = i;\n                break;\n            }\n\n        }\n\n        for (uint i = 0; i < newOwner.length; i++) {\n\n            if(newOwner[i].owners == _owner) {\n\n                ownerHasBeenFound = true;\n                ownerIndex = i;\n                break;\n            }\n\n        }\n\n        require(walletHasBeenFound);\n        require(ownerHasBeenFound);\n\n        newWallet[walletIndex] = newWallet[newWallet.length - 1];\n        newOwner[ownerIndex] = newOwner[newOwner.length - 1];\n\n        newOwner.pop();\n        newWallet.pop();\n\n\n    }\n\n    function getOwnerWallets(address owner) public view returns(UserWallets[] memory) {\n\n        return ownersWallets[owner];\n    }\n\n    function getWalletOwners(address walletAddress) public view returns(WalletUsers[] memory) {\n\n        return walletOwners[walletAddress];\n    }\n\n}\n",
  "sourcePath": "/Users/paras/Documents/multisig-wallet/contracts/MultiSigFactory.sol",
  "compiler": {
    "name": "solc",
    "version": "0.8.17+commit.8df45f5f.Emscripten.clang"
  },
  "schemaVersion": "3.4.7",
  "updatedAt": "2022-09-17T07:08:03.115Z",
  "networkType": "ethereum",
  "devdoc": {
    "kind": "dev",
    "methods": {},
    "version": 1
  },
  "userdoc": {
    "kind": "user",
    "methods": {},
    "version": 1
  }
}