{
  "contractName": "MultiSigWallet",
  "abi": [
    {
      "inputs": [
        {
          "internalType": "address",
          "name": "_factoryContractAddress",
          "type": "address"
        }
      ],
      "stateMutability": "nonpayable",
      "type": "constructor"
    },
    {
      "anonymous": false,
      "inputs": [
        {
          "indexed": false,
          "internalType": "string",
          "name": "ticker",
          "type": "string"
        },
        {
          "indexed": false,
          "internalType": "address",
          "name": "sender",
          "type": "address"
        },
        {
          "indexed": false,
          "internalType": "uint256",
          "name": "amount",
          "type": "uint256"
        },
        {
          "indexed": false,
          "internalType": "uint256",
          "name": "depositId",
          "type": "uint256"
        },
        {
          "indexed": false,
          "internalType": "uint256",
          "name": "timeOfTransaction",
          "type": "uint256"
        }
      ],
      "name": "fundsDeposited",
      "type": "event"
    },
    {
      "anonymous": false,
      "inputs": [
        {
          "indexed": false,
          "internalType": "string",
          "name": "ticker",
          "type": "string"
        },
        {
          "indexed": false,
          "internalType": "address",
          "name": "sender",
          "type": "address"
        },
        {
          "indexed": false,
          "internalType": "address",
          "name": "receiver",
          "type": "address"
        },
        {
          "indexed": false,
          "internalType": "uint256",
          "name": "amount",
          "type": "uint256"
        },
        {
          "indexed": false,
          "internalType": "uint256",
          "name": "id",
          "type": "uint256"
        },
        {
          "indexed": false,
          "internalType": "uint256",
          "name": "approvals",
          "type": "uint256"
        },
        {
          "indexed": false,
          "internalType": "uint256",
          "name": "timeOfTransaction",
          "type": "uint256"
        }
      ],
      "name": "fundsTransfered",
      "type": "event"
    },
    {
      "anonymous": false,
      "inputs": [
        {
          "indexed": false,
          "internalType": "string",
          "name": "ticker",
          "type": "string"
        },
        {
          "indexed": false,
          "internalType": "address",
          "name": "sender",
          "type": "address"
        },
        {
          "indexed": false,
          "internalType": "uint256",
          "name": "amount",
          "type": "uint256"
        },
        {
          "indexed": false,
          "internalType": "uint256",
          "name": "withdrawalId",
          "type": "uint256"
        },
        {
          "indexed": false,
          "internalType": "uint256",
          "name": "timeOfTransaction",
          "type": "uint256"
        }
      ],
      "name": "fundsWithdrawed",
      "type": "event"
    },
    {
      "anonymous": false,
      "inputs": [
        {
          "indexed": false,
          "internalType": "address",
          "name": "addedBy",
          "type": "address"
        },
        {
          "indexed": false,
          "internalType": "string",
          "name": "ticker",
          "type": "string"
        },
        {
          "indexed": false,
          "internalType": "address",
          "name": "tokenAddress",
          "type": "address"
        },
        {
          "indexed": false,
          "internalType": "uint256",
          "name": "timeOfTransaction",
          "type": "uint256"
        }
      ],
      "name": "tokenAdded",
      "type": "event"
    },
    {
      "anonymous": false,
      "inputs": [
        {
          "indexed": false,
          "internalType": "string",
          "name": "ticker",
          "type": "string"
        },
        {
          "indexed": false,
          "internalType": "address",
          "name": "sender",
          "type": "address"
        },
        {
          "indexed": false,
          "internalType": "address",
          "name": "receiver",
          "type": "address"
        },
        {
          "indexed": false,
          "internalType": "uint256",
          "name": "amount",
          "type": "uint256"
        },
        {
          "indexed": false,
          "internalType": "uint256",
          "name": "id",
          "type": "uint256"
        },
        {
          "indexed": false,
          "internalType": "uint256",
          "name": "approvals",
          "type": "uint256"
        },
        {
          "indexed": false,
          "internalType": "uint256",
          "name": "timeOfTransaction",
          "type": "uint256"
        }
      ],
      "name": "transferApproved",
      "type": "event"
    },
    {
      "anonymous": false,
      "inputs": [
        {
          "indexed": false,
          "internalType": "string",
          "name": "ticker",
          "type": "string"
        },
        {
          "indexed": false,
          "internalType": "address",
          "name": "sender",
          "type": "address"
        },
        {
          "indexed": false,
          "internalType": "address",
          "name": "receiver",
          "type": "address"
        },
        {
          "indexed": false,
          "internalType": "uint256",
          "name": "amount",
          "type": "uint256"
        },
        {
          "indexed": false,
          "internalType": "uint256",
          "name": "id",
          "type": "uint256"
        },
        {
          "indexed": false,
          "internalType": "uint256",
          "name": "approvals",
          "type": "uint256"
        },
        {
          "indexed": false,
          "internalType": "uint256",
          "name": "timeOfTransaction",
          "type": "uint256"
        }
      ],
      "name": "transferCancelled",
      "type": "event"
    },
    {
      "anonymous": false,
      "inputs": [
        {
          "indexed": false,
          "internalType": "string",
          "name": "ticker",
          "type": "string"
        },
        {
          "indexed": false,
          "internalType": "address",
          "name": "sender",
          "type": "address"
        },
        {
          "indexed": false,
          "internalType": "address",
          "name": "receiver",
          "type": "address"
        },
        {
          "indexed": false,
          "internalType": "uint256",
          "name": "amount",
          "type": "uint256"
        },
        {
          "indexed": false,
          "internalType": "uint256",
          "name": "id",
          "type": "uint256"
        },
        {
          "indexed": false,
          "internalType": "uint256",
          "name": "approvals",
          "type": "uint256"
        },
        {
          "indexed": false,
          "internalType": "uint256",
          "name": "timeOfTransaction",
          "type": "uint256"
        }
      ],
      "name": "transferCreated",
      "type": "event"
    },
    {
      "anonymous": false,
      "inputs": [
        {
          "indexed": false,
          "internalType": "address",
          "name": "addedBy",
          "type": "address"
        },
        {
          "indexed": false,
          "internalType": "address",
          "name": "ownerAdded",
          "type": "address"
        },
        {
          "indexed": false,
          "internalType": "uint256",
          "name": "timeOfTransaction",
          "type": "uint256"
        }
      ],
      "name": "walletOwnerAdded",
      "type": "event"
    },
    {
      "anonymous": false,
      "inputs": [
        {
          "indexed": false,
          "internalType": "address",
          "name": "removedBy",
          "type": "address"
        },
        {
          "indexed": false,
          "internalType": "address",
          "name": "ownerRemoved",
          "type": "address"
        },
        {
          "indexed": false,
          "internalType": "uint256",
          "name": "timeOfTransaction",
          "type": "uint256"
        }
      ],
      "name": "walletOwnerRemoved",
      "type": "event"
    },
    {
      "inputs": [
        {
          "internalType": "string",
          "name": "ticker",
          "type": "string"
        },
        {
          "internalType": "address",
          "name": "_tokenAddress",
          "type": "address"
        }
      ],
      "name": "addToken",
      "outputs": [],
      "stateMutability": "nonpayable",
      "type": "function"
    },
    {
      "inputs": [
        {
          "internalType": "address",
          "name": "owner",
          "type": "address"
        },
        {
          "internalType": "address",
          "name": "walletAddress",
          "type": "address"
        }
      ],
      "name": "addWalletOwner",
      "outputs": [],
      "stateMutability": "nonpayable",
      "type": "function"
    },
    {
      "inputs": [
        {
          "internalType": "address",
          "name": "owner",
          "type": "address"
        },
        {
          "internalType": "address",
          "name": "walletAddress",
          "type": "address"
        }
      ],
      "name": "removeWalletOwner",
      "outputs": [],
      "stateMutability": "nonpayable",
      "type": "function"
    },
    {
      "inputs": [
        {
          "internalType": "string",
          "name": "ticker",
          "type": "string"
        },
        {
          "internalType": "uint256",
          "name": "amount",
          "type": "uint256"
        },
        {
          "internalType": "address",
          "name": "walletAddress",
          "type": "address"
        }
      ],
      "name": "deposit",
      "outputs": [],
      "stateMutability": "payable",
      "type": "function",
      "payable": true
    },
    {
      "inputs": [
        {
          "internalType": "string",
          "name": "ticker",
          "type": "string"
        },
        {
          "internalType": "uint256",
          "name": "amount",
          "type": "uint256"
        },
        {
          "internalType": "address",
          "name": "walletAddress",
          "type": "address"
        }
      ],
      "name": "withdraw",
      "outputs": [],
      "stateMutability": "nonpayable",
      "type": "function"
    },
    {
      "inputs": [
        {
          "internalType": "string",
          "name": "ticker",
          "type": "string"
        },
        {
          "internalType": "address payable",
          "name": "receiver",
          "type": "address"
        },
        {
          "internalType": "uint256",
          "name": "amount",
          "type": "uint256"
        },
        {
          "internalType": "address",
          "name": "walletAddress",
          "type": "address"
        }
      ],
      "name": "createTransferRequest",
      "outputs": [],
      "stateMutability": "nonpayable",
      "type": "function"
    },
    {
      "inputs": [
        {
          "internalType": "uint256",
          "name": "id",
          "type": "uint256"
        },
        {
          "internalType": "address",
          "name": "walletAddress",
          "type": "address"
        }
      ],
      "name": "cancelTransferRequest",
      "outputs": [],
      "stateMutability": "nonpayable",
      "type": "function"
    },
    {
      "inputs": [
        {
          "internalType": "uint256",
          "name": "id",
          "type": "uint256"
        },
        {
          "internalType": "address",
          "name": "walletAddress",
          "type": "address"
        }
      ],
      "name": "approveTransferRequest",
      "outputs": [],
      "stateMutability": "nonpayable",
      "type": "function"
    },
    {
      "inputs": [
        {
          "internalType": "uint256",
          "name": "id",
          "type": "uint256"
        }
      ],
      "name": "getApprovals",
      "outputs": [
        {
          "internalType": "bool",
          "name": "",
          "type": "bool"
        }
      ],
      "stateMutability": "view",
      "type": "function",
      "constant": true
    },
    {
      "inputs": [],
      "name": "getTransferRequests",
      "outputs": [
        {
          "components": [
            {
              "internalType": "string",
              "name": "ticker",
              "type": "string"
            },
            {
              "internalType": "address",
              "name": "sender",
              "type": "address"
            },
            {
              "internalType": "address payable",
              "name": "receiver",
              "type": "address"
            },
            {
              "internalType": "uint256",
              "name": "amount",
              "type": "uint256"
            },
            {
              "internalType": "uint256",
              "name": "id",
              "type": "uint256"
            },
            {
              "internalType": "uint256",
              "name": "approvals",
              "type": "uint256"
            },
            {
              "internalType": "uint256",
              "name": "timeOfTransaction",
              "type": "uint256"
            }
          ],
          "internalType": "struct MultiSigWallet.Transfer[]",
          "name": "",
          "type": "tuple[]"
        }
      ],
      "stateMutability": "view",
      "type": "function",
      "constant": true
    },
    {
      "inputs": [
        {
          "internalType": "string",
          "name": "ticker",
          "type": "string"
        },
        {
          "internalType": "address",
          "name": "walletAddress",
          "type": "address"
        }
      ],
      "name": "getBalance",
      "outputs": [
        {
          "internalType": "uint256",
          "name": "",
          "type": "uint256"
        }
      ],
      "stateMutability": "view",
      "type": "function",
      "constant": true
    },
    {
      "inputs": [
        {
          "internalType": "address",
          "name": "walletAddress",
          "type": "address"
        }
      ],
      "name": "getApprovalLimit",
      "outputs": [
        {
          "internalType": "uint256",
          "name": "",
          "type": "uint256"
        }
      ],
      "stateMutability": "view",
      "type": "function",
      "constant": true
    },
    {
      "inputs": [],
      "name": "getContractETHBalance",
      "outputs": [
        {
          "internalType": "uint256",
          "name": "",
          "type": "uint256"
        }
      ],
      "stateMutability": "view",
      "type": "function",
      "constant": true
    },
    {
      "inputs": [
        {
          "internalType": "string",
          "name": "ticker",
          "type": "string"
        },
        {
          "internalType": "address",
          "name": "walletAddress",
          "type": "address"
        }
      ],
      "name": "getContractERC20Balance",
      "outputs": [
        {
          "internalType": "uint256",
          "name": "",
          "type": "uint256"
        }
      ],
      "stateMutability": "view",
      "type": "function",
      "constant": true
    },
    {
      "inputs": [],
      "name": "getTokenList",
      "outputs": [
        {
          "internalType": "string[]",
          "name": "",
          "type": "string[]"
        }
      ],
      "stateMutability": "view",
      "type": "function",
      "constant": true
    }
  ],
  "bytecode": "0x60806040523480156200001157600080fd5b5060405162003bce38038062003bce8339810160408190526200003491620000de565b60008054600160a060020a0319163317815560058054600181018255915260408051808201909152600381527f455448000000000000000000000000000000000000000000000000000000000060208201527f036b6384b5eca791c62761152d0c79bb0604c104a5fb6f4eb0703f3154bb3db090910190620000b79082620001e7565b5060018054600160a060020a031916600160a060020a0392909216919091179055620002ba565b600060208284031215620000f157600080fd5b8151600160a060020a03811681146200010957600080fd5b9392505050565b7f4e487b7100000000000000000000000000000000000000000000000000000000600052604160045260246000fd5b6002810460018216806200015457607f821691505b6020821081036200018e577f4e487b7100000000000000000000000000000000000000000000000000000000600052602260045260246000fd5b50919050565b601f821115620001e2576000818152602081206020601f86010481016020861015620001bd5750805b6020601f860104820191505b81811015620001de57828155600101620001c9565b5050505b505050565b815167ffffffffffffffff81111562000204576200020462000110565b6200021c816200021584546200013f565b8462000194565b602080601f8311600181146200025857600084156200023b5750858301515b60028086026008870290910a6000190419821617865550620001de565b600085815260208120601f198616915b82811015620002895788860151825594840194600190910190840162000268565b5085821015620002aa57878501516008601f88160260020a60001904191681555b5050505050600202600101905550565b61390480620002ca6000396000f3fe6080604052600436106100bb5760e060020a6000350463064842ce81146100c0578063273cbaa0146100e25780635cc596a11461010d5780637804e7071461013b57806389f4b3171461015b5780638c89a0ad1461017b5780638fcfe7281461018f578063926eeb30146101af578063a04ef145146101cf578063a4e360c8146101f1578063b0b22c2c1461023c578063c81d42591461025c578063d63196e81461027c578063e7fb86391461028f578063f8394342146102af575b600080fd5b3480156100cc57600080fd5b506100e06100db366004612ded565b6102cf565b005b3480156100ee57600080fd5b506100f76108c8565b6040516101049190612e6d565b60405180910390f35b34801561011957600080fd5b5061012d610128366004612fbd565b6109a1565b604051908152602001610104565b34801561014757600080fd5b506100e0610156366004613003565b610a7f565b34801561016757600080fd5b5061012d610176366004612fbd565b610e85565b34801561018757600080fd5b50303161012d565b34801561019b57600080fd5b506100e06101aa36600461305d565b610f4b565b3480156101bb57600080fd5b506100e06101ca366004612ded565b61153d565b3480156101db57600080fd5b506101e4611a5b565b60405161010491906130c8565b3480156101fd57600080fd5b5061022c61020c36600461317a565b336000908152600760209081526040808320938352929052205460ff1690565b6040519015158152602001610104565b34801561024857600080fd5b506100e0610257366004612fbd565b611b93565b34801561026857600080fd5b506100e0610277366004613193565b611e0b565b6100e061028a366004613003565b612027565b34801561029b57600080fd5b506100e06102aa366004613193565b612492565b3480156102bb57600080fd5b5061012d6102ca3660046131c1565b61282a565b6001548190600160a060020a03166000805b60405160e460020a6309759673028152600160a060020a038416906397596730906103109087906004016131de565b600060405180830381865afa15801561032d573d6000803e3d6000fd5b505050506040513d6000823e601f3d908101601f1916820160405261035591908101906131f2565b518110156104195760405160e460020a63097596730281523390600160a060020a0385169063975967309061038e9088906004016131de565b600060405180830381865afa1580156103ab573d6000803e3d6000fd5b505050506040513d6000823e601f3d908101601f191682016040526103d391908101906131f2565b82815181106103e4576103e46132be565b602002602001015160000151600160a060020a0316036104075760019150610419565b80610411816132f2565b9150506102e1565b506001811515146104485760405160e560020a62461bcd02815260040161043f9061330b565b60405180910390fd5b60006009868154811061045d5761045d6132be565b9060005260206000209060070201600001805461047990613357565b80601f01602080910402602001604051908101604052809291908181526020018280546104a590613357565b80156104f25780601f106104c7576101008083540402835291602001916104f2565b820191906000526020600020905b8154815290600101906020018083116104d557829003601f168201915b5050505050905060008060005b60095481101561055d57886009828154811061051d5761051d6132be565b9060005260206000209060070201600401540361053d576001925061055d565b81610547816132f2565b9250508080610555906132f2565b9150506104ff565b5033600160a060020a03166009828154811061057b5761057b6132be565b6000918252602090912060016007909202010154600160a060020a0316146105b85760405160e560020a62461bcd02815260040161043f90613395565b816106085760405160e560020a62461bcd02815260206004820152601f60248201527f7472616e73666572207265717565737420646f6573206e6f7420657869737400604482015260640161043f565b6009818154811061061b5761061b6132be565b6000918252602080832060036007909302019190910154600160a060020a038a16835260068252604080842033855290925291819020905161065e9086906133dc565b9081526020016040518091039020600082825461067b91906133f8565b90915550506009805461069090600190613411565b815481106106a0576106a06132be565b9060005260206000209060070201600982815481106106c1576106c16132be565b60009182526020909120600790910201806106dc838261348a565b506001828101549082018054600160a060020a03928316600160a060020a0319918216179091556002808501549084018054919093169116179055600380830154908201556004808301549082015560058083015490820155600691820154910155600980547f88ac4e01306872c0a5f289baf13af804eedb981db2018261cf8afed94bd9e19b91859133919085908110610779576107796132be565b906000526020600020906007020160020160009054906101000a9004600160a060020a0316600985815481106107b1576107b16132be565b906000526020600020906007020160030154600986815481106107d6576107d66132be565b906000526020600020906007020160040154600987815481106107fb576107fb6132be565b90600052602060002090600702016005015460098881548110610820576108206132be565b9060005260206000209060070201600601546040516108459796959493929190613566565b60405180910390a1600980548061085e5761085e6135b3565b6000828152602081206000199092019160078302019061087e8282612d82565b50600181018054600160a060020a03199081169091556002820180549091169055600060038201819055600482018190556005820181905560069091015590555050505050505050565b60606005805480602002602001604051908101604052809291908181526020016000905b8282101561099857838290600052602060002001805461090b90613357565b80601f016020809104026020016040519081016040528092919081815260200182805461093790613357565b80156109845780601f1061095957610100808354040283529160200191610984565b820191906000526020600020905b81548152906001019060200180831161096757829003601f168201915b5050505050815260200190600101906108ec565b50505050905090565b604080518082019091526003815260eb60020a6208aa890260209182015282519083012060009083906000805160206138af83398151915214610a35576000600160a060020a03166008826040516109f991906133dc565b90815260405190819003602001902060010154600160a060020a031603610a355760405160e560020a62461bcd02815260040161043f906135cd565b600160a060020a0383166000908152600660209081526040808320308452909152908190209051610a679086906133dc565b90815260200160405180910390205491505092915050565b6001548190600160a060020a03166000805b60405160e460020a6309759673028152600160a060020a03841690639759673090610ac09087906004016131de565b600060405180830381865afa158015610add573d6000803e3d6000fd5b505050506040513d6000823e601f3d908101601f19168201604052610b0591908101906131f2565b51811015610bc95760405160e460020a63097596730281523390600160a060020a03851690639759673090610b3e9088906004016131de565b600060405180830381865afa158015610b5b573d6000803e3d6000fd5b505050506040513d6000823e601f3d908101601f19168201604052610b8391908101906131f2565b8281518110610b9457610b946132be565b602002602001015160000151600160a060020a031603610bb75760019150610bc9565b80610bc1816132f2565b915050610a91565b50600181151514610bef5760405160e560020a62461bcd02815260040161043f9061330b565b604080518082019091526003815260eb60020a6208aa890260209182015286519087012086906000805160206138af83398151915214610c80576000600160a060020a0316600882604051610c4491906133dc565b90815260405190819003602001902060010154600160a060020a031603610c805760405160e560020a62461bcd02815260040161043f906135cd565b600160a060020a0385166000908152600660209081526040808320338452909152908190209051879190610cb5908a906133dc565b9081526020016040518091039020541015610ccf57600080fd5b600160a060020a0385166000908152600660209081526040808320338452909152908190209051879190610d04908a906133dc565b90815260200160405180910390206000828254610d219190613411565b9091555050604080518082019091526003815260eb60020a6208aa890260209182015287519088012060008051602061388f83398151915201610d9157604051339087156108fc029088906000818181858888f19350505050158015610d8b573d6000803e3d6000fd5b50610e26565b600887604051610da191906133dc565b9081526040519081900360200181206001015460e060020a63a9059cbb028252600160a060020a03169063a9059cbb90610de19033908a906004016135ff565b6020604051808303816000875af1158015610e00573d6000803e3d6000fd5b505050506040513d601f19601f82011682018060405250810190610e249190613618565b505b7f6a647eacc9e98792655e8dba08e3167440b93e02ef76e8e3330fa10a27b4ecbf87338860035442604051610e5f95949392919061363a565b60405180910390a160038054906000610e77836132f2565b919050555050505050505050565b604080518082019091526003815260eb60020a6208aa890260209182015282519083012060009083906000805160206138af83398151915214610f19576000600160a060020a0316600882604051610edd91906133dc565b90815260405190819003602001902060010154600160a060020a031603610f195760405160e560020a62461bcd02815260040161043f906135cd565b600160a060020a0383166000908152600660209081526040808320338452909152908190209051610a679086906133dc565b6001548190600160a060020a03166000805b60405160e460020a6309759673028152600160a060020a03841690639759673090610f8c9087906004016131de565b600060405180830381865afa158015610fa9573d6000803e3d6000fd5b505050506040513d6000823e601f3d908101601f19168201604052610fd191908101906131f2565b518110156110955760405160e460020a63097596730281523390600160a060020a0385169063975967309061100a9088906004016131de565b600060405180830381865afa158015611027573d6000803e3d6000fd5b505050506040513d6000823e601f3d908101601f1916820160405261104f91908101906131f2565b8281518110611060576110606132be565b602002602001015160000151600160a060020a0316036110835760019150611095565b8061108d816132f2565b915050610f5d565b506001811515146110bb5760405160e560020a62461bcd02815260040161043f9061330b565b604080518082019091526003815260eb60020a6208aa890260209182015287519088012087906000805160206138af8339815191521461114c576000600160a060020a031660088260405161111091906133dc565b90815260405190819003602001902060010154600160a060020a03160361114c5760405160e560020a62461bcd02815260040161043f906135cd565b600154600160a060020a03868116600090815260066020908152604080832033845290915290819020905191909216918891611189908c906133dc565b90815260200160405180910390205410156111fb5760405160e560020a62461bcd02815260206004820152602660248201527f696e737566666963656e742066756e647320746f206372656174652061207472604482015260d160020a6530b739b332b902606482015260840161043f565b60005b60405160e460020a6309759673028152600160a060020a0383169063975967309061122d908a906004016131de565b600060405180830381865afa15801561124a573d6000803e3d6000fd5b505050506040513d6000823e601f3d908101601f1916820160405261127291908101906131f2565b518110156113945788600160a060020a031682600160a060020a03166397596730896040518263ffffffff1660e060020a0281526004016112b391906131de565b600060405180830381865afa1580156112d0573d6000803e3d6000fd5b505050506040513d6000823e601f3d908101601f191682016040526112f891908101906131f2565b8281518110611309576113096132be565b602002602001015160000151600160a060020a0316036113825760405160e560020a62461bcd02815260206004820152602860248201527f63616e6e6f74207472616e736665722066756e6473207769746869776e207468604482015260c260020a6719481dd85b1b195d02606482015260840161043f565b8061138c816132f2565b9150506111fe565b50600160a060020a03861660009081526006602090815260408083203384529091529081902090518891906113ca908c906133dc565b908152602001604051809103902060008282546113e79190613411565b90915550506040805160e0810182528a8152336020820152600160a060020a038a1691810191909152606081018890526004546080820152600060a082018190524260c0830152600980546001810182559152815160079091027f6e1540171b6c0c960b71a7020d9f60077f6af931a8bbf590da0223dacf75c7af01908190611470908261367a565b506020820151600182018054600160a060020a03928316600160a060020a031991821617909155604084015160028401805491909316911617905560608201516003820155608082015160048083019190915560a0830151600583015560c09092015160069091015580549060006114e7836132f2565b91905055507f9cc5df05955d08828d561f92ad3f6b82c78a55cf7d3dedacffacc4f694faf9be89338a8a60045460004260405161152a9796959493929190613566565b60405180910390a1505050505050505050565b6001548190600160a060020a03166000805b60405160e460020a6309759673028152600160a060020a0384169063975967309061157e9087906004016131de565b600060405180830381865afa15801561159b573d6000803e3d6000fd5b505050506040513d6000823e601f3d908101601f191682016040526115c391908101906131f2565b518110156116875760405160e460020a63097596730281523390600160a060020a038516906397596730906115fc9088906004016131de565b600060405180830381865afa158015611619573d6000803e3d6000fd5b505050506040513d6000823e601f3d908101601f1916820160405261164191908101906131f2565b8281518110611652576116526132be565b602002602001015160000151600160a060020a0316036116755760019150611687565b8061167f816132f2565b91505061154f565b506001811515146116ad5760405160e560020a62461bcd02815260040161043f9061330b565b6000600986815481106116c2576116c26132be565b906000526020600020906007020160000180546116de90613357565b80601f016020809104026020016040519081016040528092919081815260200182805461170a90613357565b80156117575780601f1061172c57610100808354040283529160200191611757565b820191906000526020600020905b81548152906001019060200180831161173a57829003601f168201915b5050505050905060008060005b6009548110156117c2578860098281548110611782576117826132be565b906000526020600020906007020160040154036117a257600192506117c2565b816117ac816132f2565b92505080806117ba906132f2565b915050611764565b50816117e35760405160e560020a62461bcd02815260040161043f90613395565b3360009081526007602090815260408083208b845290915290205460ff16156118635760405160e560020a62461bcd02815260206004820152602660248201527f63616e6e6f7420617070726f7665207468652073616d65207472616e73666572604482015260d060020a6520747769636502606482015260840161043f565b33600160a060020a031660098281548110611880576118806132be565b6000918252602090912060016007909202010154600160a060020a0316036118a757600080fd5b3360009081526007602090815260408083208b84529091529020805460ff1916600117905560098054829081106118e0576118e06132be565b6000918252602082206005600790920201018054916118fe836132f2565b91905055507fead8052a59bd99f1b0115f4da8e862ebc15be06d11ad168b737b8e6dae0886c8833360098481548110611939576119396132be565b906000526020600020906007020160020160009054906101000a9004600160a060020a031660098581548110611971576119716132be565b90600052602060002090600702016003015460098681548110611996576119966132be565b906000526020600020906007020160040154600987815481106119bb576119bb6132be565b906000526020600020906007020160050154600988815481106119e0576119e06132be565b906000526020600020906007020160060154604051611a059796959493929190613566565b60405180910390a16000611a188861282a565b90508060098381548110611a2e57611a2e6132be565b90600052602060002090600702016005015403611a5057611a5084838a6128bb565b505050505050505050565b60606009805480602002602001604051908101604052809291908181526020016000905b8282101561099857838290600052602060002090600702016040518060e0016040529081600082018054611ab290613357565b80601f0160208091040260200160405190810160405280929190818152602001828054611ade90613357565b8015611b2b5780601f10611b0057610100808354040283529160200191611b2b565b820191906000526020600020905b815481529060010190602001808311611b0e57829003601f168201915b5050509183525050600182810154600160a060020a03908116602080850191909152600285015490911660408401526003840154606084015260048401546080840152600584015460a084015260069093015460c09092019190915291835292019101611a7f565b600054600160a060020a03163314611bf05760405160e560020a62461bcd02815260206004820152601b60248201527f4f6e6c7920436f6e7472616374204f776e657220616c6c6f7765640000000000604482015260640161043f565b60005b600554811015611c9957828051906020012060058281548110611c1857611c186132be565b90600052602060002001604051611c2f919061372f565b604051809103902003611c875760405160e560020a62461bcd02815260206004820152601b60248201527f63616e6e6f7420616464206475706c696361746520746f6b656e730000000000604482015260640161043f565b80611c91816132f2565b915050611bf3565b50818051906020012081600160a060020a03166395d89b416040518163ffffffff1660e060020a028152600401600060405180830381865afa158015611ce3573d6000803e3d6000fd5b505050506040513d6000823e601f3d908101601f19168201604052611d0b91908101906137a5565b8051906020012014611d1c57600080fd5b604051806040016040528083815260200182600160a060020a0316815250600883604051611d4a91906133dc565b90815260405190819003602001902081518190611d67908261367a565b506020919091015160019182018054600160a060020a031916600160a060020a039092169190911790556005805491820181556000527f036b6384b5eca791c62761152d0c79bb0604c104a5fb6f4eb0703f3154bb3db001611dc9838261367a565b507fe6887a88bb2477605d9b68e33f64a263587018a6a232f3b234ba1b78c96b84f233838342604051611dff949392919061381b565b60405180910390a15050565b6001548190600160a060020a03166000805b60405160e460020a6309759673028152600160a060020a03841690639759673090611e4c9087906004016131de565b600060405180830381865afa158015611e69573d6000803e3d6000fd5b505050506040513d6000823e601f3d908101601f19168201604052611e9191908101906131f2565b51811015611f555760405160e460020a63097596730281523390600160a060020a03851690639759673090611eca9088906004016131de565b600060405180830381865afa158015611ee7573d6000803e3d6000fd5b505050506040513d6000823e601f3d908101601f19168201604052611f0f91908101906131f2565b8281518110611f2057611f206132be565b602002602001015160000151600160a060020a031603611f435760019150611f55565b80611f4d816132f2565b915050611e1d565b50600181151514611f7b5760405160e560020a62461bcd02815260040161043f9061330b565b60015460405160e060020a63628bf691028152600160a060020a0390911690819063628bf69190611fb29089908990600401613850565b600060405180830381600087803b158015611fcc57600080fd5b505af1158015611fe0573d6000803e3d6000fd5b505050507fd1f329271e4a98b0181a7d91618a0a5de6f42a1aaf4c1362493d829eaf405a8a3387426040516120179392919061386a565b60405180910390a1505050505050565b6001548190600160a060020a03166000805b60405160e460020a6309759673028152600160a060020a038416906397596730906120689087906004016131de565b600060405180830381865afa158015612085573d6000803e3d6000fd5b505050506040513d6000823e601f3d908101601f191682016040526120ad91908101906131f2565b518110156121715760405160e460020a63097596730281523390600160a060020a038516906397596730906120e69088906004016131de565b600060405180830381865afa158015612103573d6000803e3d6000fd5b505050506040513d6000823e601f3d908101601f1916820160405261212b91908101906131f2565b828151811061213c5761213c6132be565b602002602001015160000151600160a060020a03160361215f5760019150612171565b80612169816132f2565b915050612039565b506001811515146121975760405160e560020a62461bcd02815260040161043f9061330b565b604080518082019091526003815260eb60020a6208aa890260209182015286519087012086906000805160206138af83398151915214612228576000600160a060020a03166008826040516121ec91906133dc565b90815260405190819003602001902060010154600160a060020a0316036122285760405160e560020a62461bcd02815260040161043f906135cd565b600160a060020a03851660009081526006602090815260408083203384529091528082209051612259908a906133dc565b90815260200160405180910390205410156122b95760405160e560020a62461bcd02815260206004820152601c60248201527f63616e6e6f74206465706f7369697420612063616c7565206f66203000000000604482015260640161043f565b604080518082019091526003815260eb60020a6208aa890260209182015287519088012060008051602061388f8339815191520161235257600160a060020a038516600090815260066020908152604080832033845290915290819020905160eb60020a6208aa890281523491906003019081526020016040518091039020600082825461234791906133f8565b909155506124419050565b600160a060020a0385166000908152600660209081526040808320338452909152908190209051879190612387908a906133dc565b908152602001604051809103902060008282546123a491906133f8565b90915550506040516008906123ba9089906133dc565b9081526040519081900360200181206001015460e060020a6323b872dd028252600160a060020a0316906323b872dd906123fc90339030908b9060040161386a565b6020604051808303816000875af115801561241b573d6000803e3d6000fd5b505050506040513d601f19601f8201168201806040525081019061243f9190613618565b505b7f41751252894a74bd975de630158c4e47bb25c36d9ce7ad90383d86d391d2be128733346002544260405161247a95949392919061363a565b60405180910390a160028054906000610e77836132f2565b6001548190600160a060020a03166000805b60405160e460020a6309759673028152600160a060020a038416906397596730906124d39087906004016131de565b600060405180830381865afa1580156124f0573d6000803e3d6000fd5b505050506040513d6000823e601f3d908101601f1916820160405261251891908101906131f2565b518110156125dc5760405160e460020a63097596730281523390600160a060020a038516906397596730906125519088906004016131de565b600060405180830381865afa15801561256e573d6000803e3d6000fd5b505050506040513d6000823e601f3d908101601f1916820160405261259691908101906131f2565b82815181106125a7576125a76132be565b602002602001015160000151600160a060020a0316036125ca57600191506125dc565b806125d4816132f2565b9150506124a4565b506001811515146126025760405160e560020a62461bcd02815260040161043f9061330b565b600154600160a060020a031660005b60405160e460020a6309759673028152600160a060020a038316906397596730906126409089906004016131de565b600060405180830381865afa15801561265d573d6000803e3d6000fd5b505050506040513d6000823e601f3d908101601f1916820160405261268591908101906131f2565b518110156127935786600160a060020a031682600160a060020a03166397596730886040518263ffffffff1660e060020a0281526004016126c691906131de565b600060405180830381865afa1580156126e3573d6000803e3d6000fd5b505050506040513d6000823e601f3d908101601f1916820160405261270b91908101906131f2565b828151811061271c5761271c6132be565b602002602001015160000151600160a060020a0316036127815760405160e560020a62461bcd02815260206004820152601b60248201527f63616e6e6f7420616464206475706c6963617465206f776e6572730000000000604482015260640161043f565b8061278b816132f2565b915050612611565b5060405160e060020a63269ae8b1028152600160a060020a0382169063269ae8b1906127c59089908990600401613850565b600060405180830381600087803b1580156127df57600080fd5b505af11580156127f3573d6000803e3d6000fd5b505050507f43abcff3409244ec1056224394af5f818e9a74866f0a11bfee2ad52f68ad6fb93387426040516120179392919061386a565b6001805460405160e460020a6309759673028152600092600160a060020a03909216919082906397596730906128649087906004016131de565b600060405180830381865afa158015612881573d6000803e3d6000fd5b505050506040513d6000823e601f3d908101601f191682016040526128a991908101906131f2565b516128b49190613411565b9392505050565b600982815481106128ce576128ce6132be565b9060005260206000209060070201600301546006600083600160a060020a0316600160a060020a0316815260200190815260200160002060006009858154811061291a5761291a6132be565b6000918252602080832060026007909302019190910154600160a060020a03168352820192909252604090810190912090516129579086906133dc565b9081526020016040518091039020600082825461297491906133f8565b9091555050604080518082019091526003815260eb60020a6208aa890260209182015283519084012060008051602061388f83398151915201612a4b57600982815481106129c4576129c46132be565b906000526020600020906007020160020160009054906101000a9004600160a060020a0316600160a060020a03166108fc60098481548110612a0857612a086132be565b9060005260206000209060070201600301549081150290604051600060405180830381858888f19350505050158015612a45573d6000803e3d6000fd5b50612b44565b600883604051612a5b91906133dc565b9081526040519081900360200190206001015460098054600160a060020a039092169163a9059cbb919085908110612a9557612a956132be565b906000526020600020906007020160020160009054906101000a9004600160a060020a031660098581548110612acd57612acd6132be565b9060005260206000209060070201600301546040518363ffffffff1660e060020a028152600401612aff9291906135ff565b6020604051808303816000875af1158015612b1e573d6000803e3d6000fd5b505050506040513d601f19601f82011682018060405250810190612b429190613618565b505b7fdeea4c72b502b4bd7dce3c793e57c46bb32f3b2f66613d54a765e7585f520a2c833360098581548110612b7a57612b7a6132be565b906000526020600020906007020160020160009054906101000a9004600160a060020a031660098681548110612bb257612bb26132be565b90600052602060002090600702016003015460098781548110612bd757612bd76132be565b90600052602060002090600702016004015460098881548110612bfc57612bfc6132be565b90600052602060002090600702016005015460098981548110612c2157612c216132be565b906000526020600020906007020160060154604051612c469796959493929190613566565b60405180910390a160098054612c5e90600190613411565b81548110612c6e57612c6e6132be565b906000526020600020906007020160098381548110612c8f57612c8f6132be565b6000918252602090912060079091020180612caa838261348a565b506001828101549082018054600160a060020a03928316600160a060020a03199182161790915560028085015490840180549190931691161790556003808301549082015560048083015490820155600580830154908201556006918201549101556009805480612d1d57612d1d6135b3565b60008281526020812060001990920191600783020190612d3d8282612d82565b50600181018054600160a060020a0319908116909155600282018054909116905560006003820181905560048201819055600582018190556006909101559055505050565b508054612d8e90613357565b6000825580601f10612d9e575050565b601f016020900490600052602060002090810190612dbc9190612dbf565b50565b5b80821115612dd45760008155600101612dc0565b5090565b600160a060020a0381168114612dbc57600080fd5b60008060408385031215612e0057600080fd5b823591506020830135612e1281612dd8565b809150509250929050565b60005b83811015612e38578181015183820152602001612e20565b50506000910152565b60008151808452612e59816020860160208601612e1d565b601f01601f19169290920160200192915050565b600060208083018184528085518083526040860191506040848202870101925083870160005b82811015612ec157603f19888603018452612eaf858351612e41565b94509285019290850190600101612e93565b5092979650505050505050565b60e060020a634e487b710260009081526041600452602490fd5b604051602081016001604060020a0381118282101715612f0a57612f0a612ece565b60405290565b604051601f8201601f191681016001604060020a0381118282101715612f3857612f38612ece565b604052919050565b60006001604060020a03821115612f5957612f59612ece565b50601f01601f191660200190565b600082601f830112612f7857600080fd5b8135612f8b612f8682612f40565b612f10565b818152846020838601011115612fa057600080fd5b816020850160208301376000918101602001919091529392505050565b60008060408385031215612fd057600080fd5b82356001604060020a03811115612fe657600080fd5b612ff285828601612f67565b9250506020830135612e1281612dd8565b60008060006060848603121561301857600080fd5b83356001604060020a0381111561302e57600080fd5b61303a86828701612f67565b93505060208401359150604084013561305281612dd8565b809150509250925092565b6000806000806080858703121561307357600080fd5b84356001604060020a0381111561308957600080fd5b61309587828801612f67565b94505060208501356130a681612dd8565b92506040850135915060608501356130bd81612dd8565b939692955090935050565b60208082528251828201819052600091906040908185019080840286018301878501865b8381101561316c57603f19898403018552815160e0815181865261311282870182612e41565b838b0151600160a060020a03908116888d01528a850151168a880152606080850151908801526080808501519088015260a0808501519088015260c0938401519390960192909252505093860193908601906001016130ec565b509098975050505050505050565b60006020828403121561318c57600080fd5b5035919050565b600080604083850312156131a657600080fd5b82356131b181612dd8565b91506020830135612e1281612dd8565b6000602082840312156131d357600080fd5b81356128b481612dd8565b600160a060020a0391909116815260200190565b6000602080838503121561320557600080fd5b82516001604060020a038082111561321c57600080fd5b818501915085601f83011261323057600080fd5b81518181111561324257613242612ece565b8381029150613252848301612f10565b818152918301840191848101908884111561326c57600080fd5b938501935b838510156132b25785858a03121561328b57600092508283fd5b613293612ee8565b925084516132a081612dd8565b83528282529385019390850190613271565b98975050505050505050565b60e060020a634e487b710260009081526032600452602490fd5b60e060020a634e487b710260009081526011600452602490fd5b600060018201613304576133046132d8565b5060010190565b60208082526029908201527f6f6e6c792077616c6c6574206f776e6572732063616e2063616c6c2074686973604082015260b960020a6810333ab731ba34b7b702606082015260800190565b60028104600182168061336b57607f821691505b60208210810361338f5760e060020a634e487b710260009081526022600452602490fd5b50919050565b60208082526024908201527f6f6e6c7920746865207472616e736665722063726561746f722063616e206361604082015260e260020a631b98d95b02606082015260800190565b600082516133ee818460208701612e1d565b9190910192915050565b8082018082111561340b5761340b6132d8565b92915050565b8181038181111561340b5761340b6132d8565b601f82111561346e576000818152602081206020601f8601048101602086101561344b5750805b6020601f860104820191505b8181101561346a57828155600101613457565b5050505b505050565b6002808302600893909302900a6000190419161790565b818103613495575050565b61349f8254613357565b6001604060020a038111156134b6576134b6612ece565b6134ca816134c48454613357565b84613424565b6000601f8211600181146134f857600083156134e65750848201545b6134f08482613473565b85555061355f565b600085815260209020601f19841690600086815260209020845b838110156135325782860154825560019586019590910190602001613512565b508583101561355257818501546008601f88160260020a60001904191681555b5050506001600284020184555b5050505050565b60e08152600061357960e083018a612e41565b600160a060020a0398891660208401529690971660408201526060810194909452608084019290925260a083015260c09091015292915050565b60e060020a634e487b710260009081526031600452602490fd5b6020808252601590820152605860020a74746f6b656e20646f6573206e6f742065786978747302604082015260600190565b600160a060020a03929092168252602082015260400190565b60006020828403121561362a57600080fd5b815180151581146128b457600080fd5b60a08152600061364d60a0830188612e41565b600160a060020a039690961660208301525060408101939093526060830191909152608090910152919050565b81516001604060020a0381111561369357613693612ece565b6136a1816134c48454613357565b602080601f8311600181146136d057600084156136be5750858301515b6136c88582613473565b86555061346a565b600085815260208120601f198616915b828110156136ff578886015182559484019460019091019084016136e0565b508582101561371f57878501516008601f88160260020a60001904191681555b5050505050600202600101905550565b600080835461373d81613357565b60018281168015613755576001811461376a57613799565b60ff1984168752821515830287019450613799565b8760005260208060002060005b858110156137905781548a820152908401908201613777565b50505082870194505b50929695505050505050565b6000602082840312156137b757600080fd5b81516001604060020a038111156137cd57600080fd5b8201601f810184136137de57600080fd5b80516137ec612f8682612f40565b81815285602083850101111561380157600080fd5b613812826020830160208601612e1d565b95945050505050565b6000600160a060020a0380871683526080602084015261383e6080840187612e41565b94166040830152506060015292915050565b600160a060020a0392831681529116602082015260400190565b600160a060020a03938416815291909216602082015260408101919091526060019056fe55514145c7ef4e1948f87e0eb4d28d3e34763f4d4cdf3bc449800860a9d0a00caaaebeba3810b1e6b70781f14b2d72c1cb89c0b2b320c43bb67ff79f562f5ff4a264697066735822122040b5f3ba927488f4d1eb6c9e7016923c343f95161a1b9abd4162fbf80f05005a64736f6c63430008110033",
  "immutableReferences": {},
  "source": "// SPDX-License-Identifier: MIT\npragma solidity ^0.8.10;\n\nimport \"@openzeppelin/contracts/token/ERC20/IERC20.sol\";\nimport \"@openzeppelin/contracts/token/ERC20/ERC20.sol\";\nimport \"./MultiSigFactory.sol\";\n\ncontract MultiSigWallet {\n\n    address admin;\n    address factoryContractAddress;\n    uint depositId;\n    uint withdrawalId;\n    uint transferId;\n    string[] tokenList;\n\n    constructor(address _factoryContractAddress) {\n        admin = msg.sender;\n        tokenList.push(\"ETH\");\n        factoryContractAddress = _factoryContractAddress;\n    }\n\n    mapping(address => mapping(address => mapping(string => uint))) balance;\n    mapping(address => mapping(uint => bool)) approvals;\n    mapping(string => Token) tokenMapping;\n\n    struct Token {\n\n        string ticker;\n        address tokenAddress;\n    }\n\n    struct Transfer {\n\n        string ticker;\n        address sender;\n        address payable receiver;\n        uint amount;\n        uint id;\n        uint approvals;\n        uint timeOfTransaction;\n    }\n\n    Transfer[] transferRequests;\n\n    event walletOwnerAdded(address addedBy, address ownerAdded, uint timeOfTransaction);\n    event walletOwnerRemoved(address removedBy, address ownerRemoved, uint timeOfTransaction);\n    event fundsDeposited(string ticker, address sender, uint amount, uint depositId, uint timeOfTransaction);\n    event fundsWithdrawed(string ticker, address sender, uint amount, uint withdrawalId, uint timeOfTransaction);\n    event transferCreated(string ticker, address sender, address receiver, uint amount, uint id, uint approvals, uint timeOfTransaction);\n    event transferCancelled(string ticker, address sender, address receiver, uint amount, uint id, uint approvals, uint timeOfTransaction);\n    event transferApproved(string ticker, address sender, address receiver, uint amount, uint id, uint approvals, uint timeOfTransaction);\n    event fundsTransfered(string ticker, address sender, address receiver, uint amount, uint id, uint approvals, uint timeOfTransaction);\n    event tokenAdded(address addedBy, string ticker, address tokenAddress, uint timeOfTransaction);\n\n    modifier onlyAdmin() {\n      require(msg.sender == admin, \"Only Contract Owner allowed\");\n      _;\n\n    }\n\n    modifier onlyOwners(address walletAddress) {\n       MultiSigFactory factory = MultiSigFactory(factoryContractAddress);\n\n       bool isOwner = false;\n       for (uint i = 0; i< factory.getWalletOwners(walletAddress).length; i++) {\n\n           if (factory.getWalletOwners(walletAddress)[i].owners == msg.sender) {\n\n               isOwner = true;\n               break;\n           }\n       }\n\n       require(isOwner == true, \"only wallet owners can call this function\");\n       _;\n\n    }\n\n    modifier tokenExists(string memory ticker) {\n\n        if(keccak256(bytes(ticker)) != keccak256(bytes(\"ETH\"))) {\n\n            require(tokenMapping[ticker].tokenAddress != address(0), \"token does not exixts\");\n        }\n        _;\n    }\n\n    function addToken(string memory ticker, address _tokenAddress) public onlyAdmin {\n\n        for (uint i = 0; i < tokenList.length; i++) {\n\n            require(keccak256(bytes(tokenList[i])) != keccak256(bytes(ticker)), \"cannot add duplicate tokens\");\n        }\n\n        require(keccak256(bytes(ERC20(_tokenAddress).symbol())) == keccak256(bytes(ticker)));\n\n        tokenMapping[ticker] = Token(ticker, _tokenAddress);\n\n        tokenList.push(ticker);\n\n        emit tokenAdded(msg.sender, ticker, _tokenAddress, block.timestamp);\n    }\n\n    function addWalletOwner(address owner, address walletAddress) public onlyOwners(walletAddress) {\n\n       MultiSigFactory factory = MultiSigFactory(factoryContractAddress);\n\n       for (uint i = 0; i < factory.getWalletOwners(walletAddress).length; i++) {\n\n           if(factory.getWalletOwners(walletAddress)[i].owners == owner) {\n\n               revert(\"cannot add duplicate owners\");\n           }\n       }\n\n       factory.addNewWalletInstance(owner, walletAddress);\n       emit walletOwnerAdded(msg.sender, owner, block.timestamp);\n\n    }\n\n    function removeWalletOwner(address owner, address walletAddress) public onlyOwners(walletAddress) {\n\n        MultiSigFactory factory = MultiSigFactory(factoryContractAddress);\n\n        factory.removeNewWalletInstance(owner, walletAddress);\n        emit walletOwnerRemoved(msg.sender, owner, block.timestamp);\n\n    }\n\n    function deposit(string memory ticker, uint amount, address walletAddress) public payable onlyOwners(walletAddress) tokenExists(ticker) {\n\n        require(balance[walletAddress][msg.sender][ticker] >= 0, \"cannot deposiit a calue of 0\");\n\n        if(keccak256(bytes(ticker)) == keccak256(bytes(\"ETH\"))) {\n\n            balance[walletAddress][msg.sender][\"ETH\"] += msg.value;\n\n        }\n\n        else {\n\n            balance[walletAddress][msg.sender][ticker] += amount;\n            IERC20(tokenMapping[ticker].tokenAddress).transferFrom(msg.sender, address(this), amount);\n\n        }\n\n        emit fundsDeposited(ticker, msg.sender, msg.value, depositId, block.timestamp);\n\n        depositId++;\n\n    }\n\n    function withdraw(string memory ticker, uint amount, address walletAddress) public onlyOwners(walletAddress) tokenExists(ticker) {\n\n        require(balance[walletAddress][msg.sender][ticker] >= amount);\n\n        balance[walletAddress][msg.sender][ticker] -= amount;\n\n        if(keccak256(bytes(ticker)) == keccak256(bytes(\"ETH\"))) {\n\n            payable(msg.sender).transfer(amount);\n        }\n\n        else {\n\n            IERC20(tokenMapping[ticker].tokenAddress).transfer(msg.sender, amount);\n\n        }\n\n        emit fundsWithdrawed(ticker, msg.sender, amount, withdrawalId, block.timestamp);\n\n        withdrawalId++;\n\n    }\n\n    function createTransferRequest(string memory ticker, address payable receiver, uint amount, address walletAddress) public onlyOwners(walletAddress) tokenExists(ticker) {\n\n        MultiSigFactory factory = MultiSigFactory(factoryContractAddress);\n\n        require(balance[walletAddress][msg.sender][ticker] >= amount, \"insufficent funds to create a transfer\");\n\n        for (uint i = 0; i < factory.getWalletOwners(walletAddress).length; i++) {\n\n            require(factory.getWalletOwners(walletAddress)[i].owners != receiver, \"cannot transfer funds withiwn the wallet\");\n        }\n\n        balance[walletAddress][msg.sender][ticker] -= amount;\n        transferRequests.push(Transfer(ticker, msg.sender, receiver, amount, transferId, 0, block.timestamp));\n        transferId++;\n        emit transferCreated(ticker, msg.sender, receiver, amount, transferId, 0, block.timestamp);\n    }\n\n    function cancelTransferRequest(uint id, address walletAddress) public onlyOwners(walletAddress) {\n\n        string memory ticker = transferRequests[id].ticker;\n        bool hasBeenFound = false;\n        uint transferIndex = 0;\n        for (uint i = 0; i < transferRequests.length; i++) {\n\n            if(transferRequests[i].id == id) {\n\n                hasBeenFound = true;\n                break;\n\n            }\n\n             transferIndex++;\n        }\n\n        require(transferRequests[transferIndex].sender == msg.sender, \"only the transfer creator can cancel\");\n        require(hasBeenFound, \"transfer request does not exist\");\n\n        balance[walletAddress][msg.sender][ticker] += transferRequests[transferIndex].amount;\n\n        transferRequests[transferIndex] = transferRequests[transferRequests.length - 1];\n\n        emit transferCancelled(ticker, msg.sender, transferRequests[transferIndex].receiver, transferRequests[transferIndex].amount, transferRequests[transferIndex].id, transferRequests[transferIndex].approvals, transferRequests[transferIndex].timeOfTransaction);\n        transferRequests.pop();\n    }\n\n    function approveTransferRequest(uint id, address walletAddress) public onlyOwners(walletAddress) {\n\n        string memory ticker = transferRequests[id].ticker;\n        bool hasBeenFound = false;\n        uint transferIndex = 0;\n        for (uint i = 0; i < transferRequests.length; i++) {\n\n            if(transferRequests[i].id == id) {\n\n                hasBeenFound = true;\n                break;\n\n            }\n\n             transferIndex++;\n        }\n\n        require(hasBeenFound, \"only the transfer creator can cancel\");\n        require(approvals[msg.sender][id] == false, \"cannot approve the same transfer twice\");\n        require(transferRequests[transferIndex].sender != msg.sender);\n\n        approvals[msg.sender][id] = true;\n        transferRequests[transferIndex].approvals++;\n\n        emit transferApproved(\n            ticker,\n            msg.sender,\n            transferRequests[transferIndex].receiver,\n            transferRequests[transferIndex].amount,\n            transferRequests[transferIndex].id,\n            transferRequests[transferIndex].approvals,\n            transferRequests[transferIndex].timeOfTransaction);\n\n        uint limit = getApprovalLimit(walletAddress);\n        if (transferRequests[transferIndex].approvals == limit) {\n\n            transferFunds(ticker, transferIndex, walletAddress);\n        }\n    }\n\n    function transferFunds(string memory ticker, uint id, address walletAddress) private {\n\n        balance[walletAddress][transferRequests[id].receiver][ticker] += transferRequests[id].amount;\n\n        if(keccak256(bytes(ticker)) == keccak256(bytes(\"ETH\"))) {\n\n            transferRequests[id].receiver.transfer(transferRequests[id].amount);\n        }\n        else {\n\n            IERC20(tokenMapping[ticker].tokenAddress).transfer(transferRequests[id].receiver, transferRequests[id].amount);\n        }\n\n\n        emit fundsTransfered(ticker, msg.sender, transferRequests[id].receiver, transferRequests[id].amount, transferRequests[id].id, transferRequests[id].approvals, transferRequests[id].timeOfTransaction);\n\n        transferRequests[id] = transferRequests[transferRequests.length - 1];\n        transferRequests.pop();\n    }\n\n    function getApprovals(uint id) public view returns(bool) {\n\n        return approvals[msg.sender][id];\n    }\n\n    function getTransferRequests() public view returns(Transfer[] memory) {\n\n        return transferRequests;\n    }\n\n    function getBalance(string memory ticker, address walletAddress) public view tokenExists(ticker) returns(uint) {\n\n        return balance[walletAddress][msg.sender][ticker];\n    }\n\n    function getApprovalLimit(address walletAddress) public view returns (uint) {\n        MultiSigFactory factory = MultiSigFactory(factoryContractAddress);\n\n        return factory.getWalletOwners(walletAddress).length - 1;\n    }\n\n    function getContractETHBalance() public view returns(uint) {\n\n        return address(this).balance;\n    }\n\n    function getContractERC20Balance(string memory ticker, address walletAddress) public view tokenExists(ticker) returns(uint) {\n\n        return balance[walletAddress][address(this)][ticker];\n    }\n\n    function getTokenList() public view returns(string[] memory) {\n\n        return tokenList;\n    }\n\n}\n",
  "sourcePath": "/Users/paras/Documents/multisig-wallet/contracts/MultiSigWallet.sol",
  "compiler": {
    "name": "solc",
    "version": "0.8.17+commit.8df45f5f.Emscripten.clang"
  },
  "schemaVersion": "3.4.7",
  "updatedAt": "2022-09-17T04:16:58.555Z",
  "networkType": "ethereum",
  "devdoc": {
    "kind": "dev",
    "methods": {},
    "version": 1
  },
  "userdoc": {
    "kind": "user",
    "methods": {},
    "version": 1
  }
}