{
  "contractName": "MultiSigWallet",
  "abi": [
    {
      "inputs": [
        {
          "internalType": "address",
          "name": "_factoryContractAddress",
          "type": "address"
        }
      ],
      "stateMutability": "nonpayable",
      "type": "constructor"
    },
    {
      "anonymous": false,
      "inputs": [
        {
          "indexed": false,
          "internalType": "string",
          "name": "ticker",
          "type": "string"
        },
        {
          "indexed": false,
          "internalType": "address",
          "name": "sender",
          "type": "address"
        },
        {
          "indexed": false,
          "internalType": "uint256",
          "name": "amount",
          "type": "uint256"
        },
        {
          "indexed": false,
          "internalType": "uint256",
          "name": "depositId",
          "type": "uint256"
        },
        {
          "indexed": false,
          "internalType": "uint256",
          "name": "timeOfTransaction",
          "type": "uint256"
        }
      ],
      "name": "fundsDeposited",
      "type": "event"
    },
    {
      "anonymous": false,
      "inputs": [
        {
          "indexed": false,
          "internalType": "string",
          "name": "ticker",
          "type": "string"
        },
        {
          "indexed": false,
          "internalType": "address",
          "name": "sender",
          "type": "address"
        },
        {
          "indexed": false,
          "internalType": "address",
          "name": "receiver",
          "type": "address"
        },
        {
          "indexed": false,
          "internalType": "uint256",
          "name": "amount",
          "type": "uint256"
        },
        {
          "indexed": false,
          "internalType": "uint256",
          "name": "id",
          "type": "uint256"
        },
        {
          "indexed": false,
          "internalType": "uint256",
          "name": "approvals",
          "type": "uint256"
        },
        {
          "indexed": false,
          "internalType": "uint256",
          "name": "timeOfTransaction",
          "type": "uint256"
        }
      ],
      "name": "fundsTransfered",
      "type": "event"
    },
    {
      "anonymous": false,
      "inputs": [
        {
          "indexed": false,
          "internalType": "string",
          "name": "ticker",
          "type": "string"
        },
        {
          "indexed": false,
          "internalType": "address",
          "name": "sender",
          "type": "address"
        },
        {
          "indexed": false,
          "internalType": "uint256",
          "name": "amount",
          "type": "uint256"
        },
        {
          "indexed": false,
          "internalType": "uint256",
          "name": "withdrawalId",
          "type": "uint256"
        },
        {
          "indexed": false,
          "internalType": "uint256",
          "name": "timeOfTransaction",
          "type": "uint256"
        }
      ],
      "name": "fundsWithdrawed",
      "type": "event"
    },
    {
      "anonymous": false,
      "inputs": [
        {
          "indexed": false,
          "internalType": "address",
          "name": "addedBy",
          "type": "address"
        },
        {
          "indexed": false,
          "internalType": "string",
          "name": "ticker",
          "type": "string"
        },
        {
          "indexed": false,
          "internalType": "address",
          "name": "tokenAddress",
          "type": "address"
        },
        {
          "indexed": false,
          "internalType": "uint256",
          "name": "timeOfTransaction",
          "type": "uint256"
        }
      ],
      "name": "tokenAdded",
      "type": "event"
    },
    {
      "anonymous": false,
      "inputs": [
        {
          "indexed": false,
          "internalType": "string",
          "name": "ticker",
          "type": "string"
        },
        {
          "indexed": false,
          "internalType": "address",
          "name": "sender",
          "type": "address"
        },
        {
          "indexed": false,
          "internalType": "address",
          "name": "receiver",
          "type": "address"
        },
        {
          "indexed": false,
          "internalType": "uint256",
          "name": "amount",
          "type": "uint256"
        },
        {
          "indexed": false,
          "internalType": "uint256",
          "name": "id",
          "type": "uint256"
        },
        {
          "indexed": false,
          "internalType": "uint256",
          "name": "approvals",
          "type": "uint256"
        },
        {
          "indexed": false,
          "internalType": "uint256",
          "name": "timeOfTransaction",
          "type": "uint256"
        }
      ],
      "name": "transferApproved",
      "type": "event"
    },
    {
      "anonymous": false,
      "inputs": [
        {
          "indexed": false,
          "internalType": "string",
          "name": "ticker",
          "type": "string"
        },
        {
          "indexed": false,
          "internalType": "address",
          "name": "sender",
          "type": "address"
        },
        {
          "indexed": false,
          "internalType": "address",
          "name": "receiver",
          "type": "address"
        },
        {
          "indexed": false,
          "internalType": "uint256",
          "name": "amount",
          "type": "uint256"
        },
        {
          "indexed": false,
          "internalType": "uint256",
          "name": "id",
          "type": "uint256"
        },
        {
          "indexed": false,
          "internalType": "uint256",
          "name": "approvals",
          "type": "uint256"
        },
        {
          "indexed": false,
          "internalType": "uint256",
          "name": "timeOfTransaction",
          "type": "uint256"
        }
      ],
      "name": "transferCancelled",
      "type": "event"
    },
    {
      "anonymous": false,
      "inputs": [
        {
          "indexed": false,
          "internalType": "string",
          "name": "ticker",
          "type": "string"
        },
        {
          "indexed": false,
          "internalType": "address",
          "name": "sender",
          "type": "address"
        },
        {
          "indexed": false,
          "internalType": "address",
          "name": "receiver",
          "type": "address"
        },
        {
          "indexed": false,
          "internalType": "uint256",
          "name": "amount",
          "type": "uint256"
        },
        {
          "indexed": false,
          "internalType": "uint256",
          "name": "id",
          "type": "uint256"
        },
        {
          "indexed": false,
          "internalType": "uint256",
          "name": "approvals",
          "type": "uint256"
        },
        {
          "indexed": false,
          "internalType": "uint256",
          "name": "timeOfTransaction",
          "type": "uint256"
        }
      ],
      "name": "transferCreated",
      "type": "event"
    },
    {
      "anonymous": false,
      "inputs": [
        {
          "indexed": false,
          "internalType": "address",
          "name": "addedBy",
          "type": "address"
        },
        {
          "indexed": false,
          "internalType": "address",
          "name": "ownerAdded",
          "type": "address"
        },
        {
          "indexed": false,
          "internalType": "uint256",
          "name": "timeOfTransaction",
          "type": "uint256"
        }
      ],
      "name": "walletOwnerAdded",
      "type": "event"
    },
    {
      "anonymous": false,
      "inputs": [
        {
          "indexed": false,
          "internalType": "address",
          "name": "removedBy",
          "type": "address"
        },
        {
          "indexed": false,
          "internalType": "address",
          "name": "ownerRemoved",
          "type": "address"
        },
        {
          "indexed": false,
          "internalType": "uint256",
          "name": "timeOfTransaction",
          "type": "uint256"
        }
      ],
      "name": "walletOwnerRemoved",
      "type": "event"
    },
    {
      "inputs": [
        {
          "internalType": "string",
          "name": "ticker",
          "type": "string"
        },
        {
          "internalType": "address",
          "name": "_tokenAddress",
          "type": "address"
        }
      ],
      "name": "addToken",
      "outputs": [],
      "stateMutability": "nonpayable",
      "type": "function"
    },
    {
      "inputs": [
        {
          "internalType": "address",
          "name": "owner",
          "type": "address"
        },
        {
          "internalType": "address",
          "name": "walletAddress",
          "type": "address"
        }
      ],
      "name": "addWalletOwner",
      "outputs": [],
      "stateMutability": "nonpayable",
      "type": "function"
    },
    {
      "inputs": [
        {
          "internalType": "address",
          "name": "owner",
          "type": "address"
        },
        {
          "internalType": "address",
          "name": "walletAddress",
          "type": "address"
        }
      ],
      "name": "removeWalletOwner",
      "outputs": [],
      "stateMutability": "nonpayable",
      "type": "function"
    },
    {
      "inputs": [
        {
          "internalType": "string",
          "name": "ticker",
          "type": "string"
        },
        {
          "internalType": "uint256",
          "name": "amount",
          "type": "uint256"
        },
        {
          "internalType": "address",
          "name": "walletAddress",
          "type": "address"
        }
      ],
      "name": "deposit",
      "outputs": [],
      "stateMutability": "payable",
      "type": "function",
      "payable": true
    },
    {
      "inputs": [
        {
          "internalType": "string",
          "name": "ticker",
          "type": "string"
        },
        {
          "internalType": "uint256",
          "name": "amount",
          "type": "uint256"
        },
        {
          "internalType": "address",
          "name": "walletAddress",
          "type": "address"
        }
      ],
      "name": "withdraw",
      "outputs": [],
      "stateMutability": "nonpayable",
      "type": "function"
    },
    {
      "inputs": [
        {
          "internalType": "string",
          "name": "ticker",
          "type": "string"
        },
        {
          "internalType": "address payable",
          "name": "receiver",
          "type": "address"
        },
        {
          "internalType": "uint256",
          "name": "amount",
          "type": "uint256"
        },
        {
          "internalType": "address",
          "name": "walletAddress",
          "type": "address"
        }
      ],
      "name": "createTransferRequest",
      "outputs": [],
      "stateMutability": "nonpayable",
      "type": "function"
    },
    {
      "inputs": [
        {
          "internalType": "uint256",
          "name": "id",
          "type": "uint256"
        },
        {
          "internalType": "address",
          "name": "walletAddress",
          "type": "address"
        }
      ],
      "name": "cancelTransferRequest",
      "outputs": [],
      "stateMutability": "nonpayable",
      "type": "function"
    },
    {
      "inputs": [
        {
          "internalType": "uint256",
          "name": "id",
          "type": "uint256"
        },
        {
          "internalType": "address",
          "name": "walletAddress",
          "type": "address"
        }
      ],
      "name": "approveTransferRequest",
      "outputs": [],
      "stateMutability": "payable",
      "type": "function",
      "payable": true
    },
    {
      "inputs": [
        {
          "internalType": "uint256",
          "name": "id",
          "type": "uint256"
        }
      ],
      "name": "getApprovals",
      "outputs": [
        {
          "internalType": "bool",
          "name": "",
          "type": "bool"
        }
      ],
      "stateMutability": "view",
      "type": "function",
      "constant": true
    },
    {
      "inputs": [],
      "name": "getTransferRequests",
      "outputs": [
        {
          "components": [
            {
              "internalType": "string",
              "name": "ticker",
              "type": "string"
            },
            {
              "internalType": "address",
              "name": "sender",
              "type": "address"
            },
            {
              "internalType": "address payable",
              "name": "receiver",
              "type": "address"
            },
            {
              "internalType": "address",
              "name": "walletAddress",
              "type": "address"
            },
            {
              "internalType": "uint256",
              "name": "amount",
              "type": "uint256"
            },
            {
              "internalType": "uint256",
              "name": "id",
              "type": "uint256"
            },
            {
              "internalType": "uint256",
              "name": "approvals",
              "type": "uint256"
            },
            {
              "internalType": "uint256",
              "name": "timeOfTransaction",
              "type": "uint256"
            }
          ],
          "internalType": "struct MultiSigWallet.Transfer[]",
          "name": "",
          "type": "tuple[]"
        }
      ],
      "stateMutability": "view",
      "type": "function",
      "constant": true
    },
    {
      "inputs": [],
      "name": "getAccountTransactions",
      "outputs": [
        {
          "components": [
            {
              "internalType": "string",
              "name": "ticker",
              "type": "string"
            },
            {
              "internalType": "address",
              "name": "sender",
              "type": "address"
            },
            {
              "internalType": "address",
              "name": "walletAddress",
              "type": "address"
            },
            {
              "internalType": "uint256",
              "name": "amount",
              "type": "uint256"
            },
            {
              "internalType": "uint256",
              "name": "timeOfTransaction",
              "type": "uint256"
            },
            {
              "internalType": "string",
              "name": "action",
              "type": "string"
            }
          ],
          "internalType": "struct MultiSigWallet.Account[]",
          "name": "",
          "type": "tuple[]"
        }
      ],
      "stateMutability": "view",
      "type": "function",
      "constant": true
    },
    {
      "inputs": [
        {
          "internalType": "string",
          "name": "ticker",
          "type": "string"
        },
        {
          "internalType": "address",
          "name": "walletAddress",
          "type": "address"
        }
      ],
      "name": "getBalance",
      "outputs": [
        {
          "internalType": "uint256",
          "name": "",
          "type": "uint256"
        }
      ],
      "stateMutability": "view",
      "type": "function",
      "constant": true
    },
    {
      "inputs": [
        {
          "internalType": "address",
          "name": "walletAddress",
          "type": "address"
        }
      ],
      "name": "getWalletDetails",
      "outputs": [
        {
          "internalType": "uint256[]",
          "name": "",
          "type": "uint256[]"
        }
      ],
      "stateMutability": "view",
      "type": "function",
      "constant": true
    },
    {
      "inputs": [
        {
          "internalType": "address",
          "name": "walletAddress",
          "type": "address"
        }
      ],
      "name": "getApprovalLimit",
      "outputs": [
        {
          "internalType": "uint256",
          "name": "",
          "type": "uint256"
        }
      ],
      "stateMutability": "view",
      "type": "function",
      "constant": true
    },
    {
      "inputs": [],
      "name": "getContractETHBalance",
      "outputs": [
        {
          "internalType": "uint256",
          "name": "",
          "type": "uint256"
        }
      ],
      "stateMutability": "view",
      "type": "function",
      "constant": true
    },
    {
      "inputs": [
        {
          "internalType": "string",
          "name": "ticker",
          "type": "string"
        },
        {
          "internalType": "address",
          "name": "walletAddress",
          "type": "address"
        }
      ],
      "name": "getContractERC20Balance",
      "outputs": [
        {
          "internalType": "uint256",
          "name": "",
          "type": "uint256"
        }
      ],
      "stateMutability": "view",
      "type": "function",
      "constant": true
    },
    {
      "inputs": [],
      "name": "getTokenList",
      "outputs": [
        {
          "internalType": "string[]",
          "name": "",
          "type": "string[]"
        }
      ],
      "stateMutability": "view",
      "type": "function",
      "constant": true
    }
  ],
  "bytecode": "0x60806040523480156200001157600080fd5b50604051620045e3380380620045e38339810160408190526200003491620000de565b60008054600160a060020a0319163317815560058054600181018255915260408051808201909152600381527f455448000000000000000000000000000000000000000000000000000000000060208201527f036b6384b5eca791c62761152d0c79bb0604c104a5fb6f4eb0703f3154bb3db090910190620000b79082620001e7565b5060018054600160a060020a031916600160a060020a0392909216919091179055620002ba565b600060208284031215620000f157600080fd5b8151600160a060020a03811681146200010957600080fd5b9392505050565b7f4e487b7100000000000000000000000000000000000000000000000000000000600052604160045260246000fd5b6002810460018216806200015457607f821691505b6020821081036200018e577f4e487b7100000000000000000000000000000000000000000000000000000000600052602260045260246000fd5b50919050565b601f821115620001e2576000818152602081206020601f86010481016020861015620001bd5750805b6020601f860104820191505b81811015620001de57828155600101620001c9565b5050505b505050565b815167ffffffffffffffff81111562000204576200020462000110565b6200021c816200021584546200013f565b8462000194565b602080601f8311600181146200025857600084156200023b5750858301515b60028086026008870290910a6000190419821617865550620001de565b600085815260208120601f198616915b82811015620002895788860151825594840194600190910190840162000268565b5085821015620002aa57878501516008601f88160260020a60001904191681555b5050505050600202600101905550565b61431980620002ca6000396000f3fe6080604052600436106100d15760e060020a6000350463064842ce81146100d6578063273cbaa0146100f85780635cc596a1146101235780637804e7071461015157806389f4b317146101715780638c89a0ad146101915780638cae45d2146101a55780638fcfe728146101d2578063926eeb30146101f2578063a04ef14514610205578063a4e360c814610227578063b0b22c2c14610272578063c682cce414610292578063c81d4259146102b4578063d63196e8146102d4578063e7fb8639146102e7578063f839434214610307575b600080fd5b3480156100e257600080fd5b506100f66100f1366004613706565b610327565b005b34801561010457600080fd5b5061010d610980565b60405161011a9190613786565b60405180910390f35b34801561012f57600080fd5b5061014361013e3660046138d6565b610a59565b60405190815260200161011a565b34801561015d57600080fd5b506100f661016c36600461391c565b610b37565b34801561017d57600080fd5b5061014361018c3660046138d6565b6110f1565b34801561019d57600080fd5b503031610143565b3480156101b157600080fd5b506101c56101c0366004613976565b6112b5565b60405161011a9190613993565b3480156101de57600080fd5b506100f66101ed3660046139cb565b611488565b6100f6610200366004613706565b611a9b565b34801561021157600080fd5b5061021a612021565b60405161011a9190613a36565b34801561023357600080fd5b50610262610242366004613b05565b336000908152600760209081526040808320938352929052205460ff1690565b604051901515815260200161011a565b34801561027e57600080fd5b506100f661028d3660046138d6565b612166565b34801561029e57600080fd5b506102a76123de565b60405161011a9190613b1e565b3480156102c057600080fd5b506100f66102cf366004613bca565b612590565b6100f66102e236600461391c565b6127ac565b3480156102f357600080fd5b506100f6610302366004613bca565b612d8a565b34801561031357600080fd5b50610143610322366004613976565b613122565b6001548190600160a060020a03166000805b60405160e460020a6309759673028152600160a060020a03841690639759673090610368908790600401613bf8565b600060405180830381865afa158015610385573d6000803e3d6000fd5b505050506040513d6000823e601f3d908101601f191682016040526103ad9190810190613c0c565b518110156104715760405160e460020a63097596730281523390600160a060020a038516906397596730906103e6908890600401613bf8565b600060405180830381865afa158015610403573d6000803e3d6000fd5b505050506040513d6000823e601f3d908101601f1916820160405261042b9190810190613c0c565b828151811061043c5761043c613cd8565b602002602001015160000151600160a060020a03160361045f5760019150610471565b8061046981613d0c565b915050610339565b506001811515146104a05760405160e560020a62461bcd02815260040161049790613d25565b60405180910390fd5b60008060005b600a548110156105045787600a82815481106104c4576104c4613cd8565b906000526020600020906008020160050154036104e45760019250610504565b816104ee81613d0c565b92505080806104fc90613d0c565b9150506104a6565b506000600a828154811061051a5761051a613cd8565b9060005260206000209060080201600001805461053690613d71565b80601f016020809104026020016040519081016040528092919081815260200182805461056290613d71565b80156105af5780601f10610584576101008083540402835291602001916105af565b820191906000526020600020905b81548152906001019060200180831161059257829003601f168201915b5050505050905033600160a060020a0316600a83815481106105d3576105d3613cd8565b6000918252602090912060016008909202010154600160a060020a03161461064f5760405160e560020a62461bcd028152602060048201526024808201527f4f6e6c7920746865207472616e736665722063726561746f722063616e206361604482015260e260020a631b98d95b026064820152608401610497565b8261069f5760405160e560020a62461bcd02815260206004820152601f60248201527f5472616e73666572207265717565737420646f6573206e6f74206578697374006044820152606401610497565b600a82815481106106b2576106b2613cd8565b6000918252602080832060046008909302019190910154600160a060020a038a1683526006825260408084203385529092529181902090516106f5908490613daf565b908152602001604051809103902060008282546107129190613dcb565b9091555050600a805461072790600190613de4565b8154811061073757610737613cd8565b9060005260206000209060080201600a838154811061075857610758613cd8565b60009182526020909120600890910201806107738382613e5d565b506001828101549082018054600160a060020a03928316600160a060020a03199182161790915560028085015490840180549184169183169190911790556003808501549084018054919093169116179055600480830154908201556005808301549082015560068083015490820155600791820154910155600a80547f88ac4e01306872c0a5f289baf13af804eedb981db2018261cf8afed94bd9e19b9183913391908690811061082757610827613cd8565b906000526020600020906008020160020160009054906101000a9004600160a060020a0316600a868154811061085f5761085f613cd8565b906000526020600020906008020160040154600a878154811061088457610884613cd8565b906000526020600020906008020160050154600a88815481106108a9576108a9613cd8565b906000526020600020906008020160060154600a89815481106108ce576108ce613cd8565b9060005260206000209060080201600701546040516108f39796959493929190613f39565b60405180910390a1600a80548061090c5761090c613f86565b6000828152602081206000199092019160088302019061092c828261369b565b50600181018054600160a060020a0319908116909155600282018054821690556003820180549091169055600060048201819055600582018190556006820181905560079091015590555050505050505050565b60606005805480602002602001604051908101604052809291908181526020016000905b82821015610a505783829060005260206000200180546109c390613d71565b80601f01602080910402602001604051908101604052809291908181526020018280546109ef90613d71565b8015610a3c5780601f10610a1157610100808354040283529160200191610a3c565b820191906000526020600020905b815481529060010190602001808311610a1f57829003601f168201915b5050505050815260200190600101906109a4565b50505050905090565b604080518082019091526003815260eb60020a6208aa890260209182015282519083012060009083906000805160206142c483398151915214610aed576000600160a060020a0316600882604051610ab19190613daf565b90815260405190819003602001902060010154600160a060020a031603610aed5760405160e560020a62461bcd02815260040161049790613fa0565b600160a060020a0383166000908152600660209081526040808320308452909152908190209051610b1f908690613daf565b90815260200160405180910390205491505092915050565b6001548190600160a060020a03166000805b60405160e460020a6309759673028152600160a060020a03841690639759673090610b78908790600401613bf8565b600060405180830381865afa158015610b95573d6000803e3d6000fd5b505050506040513d6000823e601f3d908101601f19168201604052610bbd9190810190613c0c565b51811015610c815760405160e460020a63097596730281523390600160a060020a03851690639759673090610bf6908890600401613bf8565b600060405180830381865afa158015610c13573d6000803e3d6000fd5b505050506040513d6000823e601f3d908101601f19168201604052610c3b9190810190613c0c565b8281518110610c4c57610c4c613cd8565b602002602001015160000151600160a060020a031603610c6f5760019150610c81565b80610c7981613d0c565b915050610b49565b50600181151514610ca75760405160e560020a62461bcd02815260040161049790613d25565b604080518082019091526003815260eb60020a6208aa890260209182015286519087012086906000805160206142c483398151915214610d38576000600160a060020a0316600882604051610cfc9190613daf565b90815260405190819003602001902060010154600160a060020a031603610d385760405160e560020a62461bcd02815260040161049790613fa0565b600160a060020a0385166000908152600660209081526040808320338452909152908190209051879190610d6d908a90613daf565b9081526020016040518091039020541015610d8757600080fd5b600160a060020a0385166000908152600660209081526040808320338452909152908190209051879190610dbc908a90613daf565b90815260200160405180910390206000828254610dd99190613de4565b9091555050604080518082019091526003815260eb60020a6208aa890260209182015287519088012060008051602061428483398151915201610e4957604051339087156108fc029088906000818181858888f19350505050158015610e43573d6000803e3d6000fd5b50610f9f565b6000600888604051610e5b9190613daf565b9081526040519081900360200181206001015460e060020a6370a08231028252600160a060020a03169150879082906370a0823190610e9e903090600401613bf8565b602060405180830381865afa158015610ebb573d6000803e3d6000fd5b505050506040513d601f19601f82011682018060405250810190610edf9190613fd2565b1015610f285760405160e560020a62461bcd0281526020600482015260126024820152607160020a7124b739bab33334b1b4b2b73a102a37b5b2b7026044820152606401610497565b60405160e060020a63a9059cbb028152600160a060020a0382169063a9059cbb90610f599033908b90600401613feb565b6020604051808303816000875af1158015610f78573d6000803e3d6000fd5b505050506040513d601f19601f82011682018060405250810190610f9c9190614004565b50505b7f6a647eacc9e98792655e8dba08e3167440b93e02ef76e8e3330fa10a27b4ecbf87338860035442604051610fd8959493929190614026565b60405180910390a16040805160c08101825288815233602080830191909152600160a060020a038816828401526060820189905242608083015282518084019093526008835260c060020a675769746864726177029083015260a081019190915260098054600181018255600091909152815160069091026000805160206142a48339815191520190819061106d9082614066565b506020820151600182018054600160a060020a03928316600160a060020a0319918216179091556040840151600284018054919093169116179055606082015160038201556080820151600482015560a082015160058201906110d09082614066565b505060038054915060006110e383613d0c565b919050555050505050505050565b604080518082019091526003815260eb60020a6208aa890260209182015282519083012060009083906000805160206142c483398151915214611185576000600160a060020a03166008826040516111499190613daf565b90815260405190819003602001902060010154600160a060020a0316036111855760405160e560020a62461bcd02815260040161049790613fa0565b60015460405160e460020a6309759673028152600160a060020a0390911690600090819083906397596730906111bf908990600401613bf8565b600060405180830381865afa1580156111dc573d6000803e3d6000fd5b505050506040513d6000823e601f3d908101601f191682016040526112049190810190613c0c565b905060005b81518110156112a957600160a060020a0387166000908152600660205260408120835190919084908490811061124157611241613cd8565b602002602001015160000151600160a060020a0316600160a060020a031681526020019081526020016000208860405161127b9190613daf565b908152602001604051809103902054836112959190613dcb565b9250806112a181613d0c565b915050611209565b50909695505050505050565b6005546060906000906001604060020a038111156112d5576112d56137e7565b6040519080825280602002602001820160405280156112fe578160200160208202803683370190505b5060015460405160e460020a6309759673028152919250600160a060020a0316906000908290639759673090611338908890600401613bf8565b600060405180830381865afa158015611355573d6000803e3d6000fd5b505050506040513d6000823e601f3d908101601f1916820160405261137d9190810190613c0c565b905060005b60055481101561147e576000805b835181101561144c57600160a060020a038816600090815260066020526040812085519091908690849081106113c8576113c8613cd8565b602002602001015160000151600160a060020a0316600160a060020a031681526020019081526020016000206005848154811061140757611407613cd8565b9060005260206000200160405161141e919061418e565b908152602001604051809103902054826114389190613dcb565b91508061144481613d0c565b915050611390565b508085838151811061146057611460613cd8565b6020908102919091010152508061147681613d0c565b915050611382565b5091949350505050565b6001548190600160a060020a03166000805b60405160e460020a6309759673028152600160a060020a038416906397596730906114c9908790600401613bf8565b600060405180830381865afa1580156114e6573d6000803e3d6000fd5b505050506040513d6000823e601f3d908101601f1916820160405261150e9190810190613c0c565b518110156115d25760405160e460020a63097596730281523390600160a060020a03851690639759673090611547908890600401613bf8565b600060405180830381865afa158015611564573d6000803e3d6000fd5b505050506040513d6000823e601f3d908101601f1916820160405261158c9190810190613c0c565b828151811061159d5761159d613cd8565b602002602001015160000151600160a060020a0316036115c057600191506115d2565b806115ca81613d0c565b91505061149a565b506001811515146115f85760405160e560020a62461bcd02815260040161049790613d25565b604080518082019091526003815260eb60020a6208aa890260209182015287519088012087906000805160206142c483398151915214611689576000600160a060020a031660088260405161164d9190613daf565b90815260405190819003602001902060010154600160a060020a0316036116895760405160e560020a62461bcd02815260040161049790613fa0565b600154600160a060020a038681166000908152600660209081526040808320338452909152908190209051919092169188916116c6908c90613daf565b90815260200160405180910390205410156117385760405160e560020a62461bcd02815260206004820152602660248201527f496e737566666963656e742066756e647320746f206372656174652061205472604482015260d160020a6530b739b332b9026064820152608401610497565b60005b60405160e460020a6309759673028152600160a060020a0383169063975967309061176a908a90600401613bf8565b600060405180830381865afa158015611787573d6000803e3d6000fd5b505050506040513d6000823e601f3d908101601f191682016040526117af9190810190613c0c565b518110156118d15788600160a060020a031682600160a060020a03166397596730896040518263ffffffff1660e060020a0281526004016117f09190613bf8565b600060405180830381865afa15801561180d573d6000803e3d6000fd5b505050506040513d6000823e601f3d908101601f191682016040526118359190810190613c0c565b828151811061184657611846613cd8565b602002602001015160000151600160a060020a0316036118bf5760405160e560020a62461bcd02815260206004820152602860248201527f43616e6e6f74207472616e736665722066756e6473207769746869776e207468604482015260c260020a6719481dd85b1b195d026064820152608401610497565b806118c981613d0c565b91505061173b565b50600160a060020a0386166000908152600660209081526040808320338452909152908190209051889190611907908c90613daf565b908152602001604051809103902060008282546119249190613de4565b909155505060408051610100810182528a8152336020820152600160a060020a038a81169282019290925290871660608201526080810188905260045460a0820152600060c082018190524260e0830152600a80546001810182559152815160089091027fc65a7bb8d6351c1cf70c95a316cc6a92839c986682d98bc35f958f4883f9d2a8019081906119b79082614066565b506020820151600182018054600160a060020a03928316600160a060020a03199182161790915560408401516002840180549184169183169190911790556060840151600384018054919093169116179055608082015160048083019190915560a0830151600583015560c0830151600683015560e0909201516007909101558054906000611a4583613d0c565b91905055507f9cc5df05955d08828d561f92ad3f6b82c78a55cf7d3dedacffacc4f694faf9be89338a8a600454600042604051611a889796959493929190613f39565b60405180910390a1505050505050505050565b6001548190600160a060020a03166000805b60405160e460020a6309759673028152600160a060020a03841690639759673090611adc908790600401613bf8565b600060405180830381865afa158015611af9573d6000803e3d6000fd5b505050506040513d6000823e601f3d908101601f19168201604052611b219190810190613c0c565b51811015611be55760405160e460020a63097596730281523390600160a060020a03851690639759673090611b5a908890600401613bf8565b600060405180830381865afa158015611b77573d6000803e3d6000fd5b505050506040513d6000823e601f3d908101601f19168201604052611b9f9190810190613c0c565b8281518110611bb057611bb0613cd8565b602002602001015160000151600160a060020a031603611bd35760019150611be5565b80611bdd81613d0c565b915050611aad565b50600181151514611c0b5760405160e560020a62461bcd02815260040161049790613d25565b60008060005b600a54811015611c6f5787600a8281548110611c2f57611c2f613cd8565b90600052602060002090600802016005015403611c4f5760019250611c6f565b81611c5981613d0c565b9250508080611c6790613d0c565b915050611c11565b506000600a8281548110611c8557611c85613cd8565b90600052602060002090600802016000018054611ca190613d71565b80601f0160208091040260200160405190810160405280929190818152602001828054611ccd90613d71565b8015611d1a5780601f10611cef57610100808354040283529160200191611d1a565b820191906000526020600020905b815481529060010190602001808311611cfd57829003601f168201915b5050505050905082611d635760405160e560020a62461bcd02815260206004820152600c602482015260a260020a6b151e081b9bdd08199bdd5b99026044820152606401610497565b3360009081526007602090815260408083208b845290915290205460ff1615611de35760405160e560020a62461bcd02815260206004820152602660248201527f43616e6e6f7420617070726f7665207468652073616d65207472616e73666572604482015260d060020a65207477696365026064820152608401610497565b33600160a060020a0316600a8381548110611e0057611e00613cd8565b6000918252602090912060016008909202010154600160a060020a031603611e6d5760405160e560020a62461bcd02815260206004820152601f60248201527f5472616e736665722063726561746f722063616e6e6f7420617070726f7665006044820152606401610497565b3360009081526007602090815260408083208b84529091529020805460ff19166001179055600a805483908110611ea657611ea6613cd8565b600091825260208220600660089092020101805491611ec483613d0c565b91905055507fead8052a59bd99f1b0115f4da8e862ebc15be06d11ad168b737b8e6dae0886c88133600a8581548110611eff57611eff613cd8565b906000526020600020906008020160020160009054906101000a9004600160a060020a0316600a8681548110611f3757611f37613cd8565b906000526020600020906008020160040154600a8781548110611f5c57611f5c613cd8565b906000526020600020906008020160050154600a8881548110611f8157611f81613cd8565b906000526020600020906008020160060154600a8981548110611fa657611fa6613cd8565b906000526020600020906008020160070154604051611fcb9796959493929190613f39565b60405180910390a16000611fde88613122565b905080600a8481548110611ff457611ff4613cd8565b906000526020600020906008020160060154036120165761201682848a6131b3565b505050505050505050565b6060600a805480602002602001604051908101604052809291908181526020016000905b82821015610a5057838290600052602060002090600802016040518061010001604052908160008201805461207990613d71565b80601f01602080910402602001604051908101604052809291908181526020018280546120a590613d71565b80156120f25780601f106120c7576101008083540402835291602001916120f2565b820191906000526020600020905b8154815290600101906020018083116120d557829003601f168201915b5050509183525050600182810154600160a060020a039081166020808501919091526002850154821660408501526003850154909116606084015260048401546080840152600584015460a0840152600684015460c084015260079093015460e09092019190915291835292019101612045565b600054600160a060020a031633146121c35760405160e560020a62461bcd02815260206004820152601b60248201527f4f6e6c7920436f6e7472616374204f776e657220616c6c6f77656400000000006044820152606401610497565b60005b60055481101561226c578280519060200120600582815481106121eb576121eb613cd8565b90600052602060002001604051612202919061418e565b60405180910390200361225a5760405160e560020a62461bcd02815260206004820152601b60248201527f43616e6e6f7420616464206475706c696361746520746f6b656e7300000000006044820152606401610497565b8061226481613d0c565b9150506121c6565b50818051906020012081600160a060020a03166395d89b416040518163ffffffff1660e060020a028152600401600060405180830381865afa1580156122b6573d6000803e3d6000fd5b505050506040513d6000823e601f3d908101601f191682016040526122de919081019061419a565b80519060200120146122ef57600080fd5b604051806040016040528083815260200182600160a060020a031681525060088360405161231d9190613daf565b9081526040519081900360200190208151819061233a9082614066565b506020919091015160019182018054600160a060020a031916600160a060020a039092169190911790556005805491820181556000527f036b6384b5eca791c62761152d0c79bb0604c104a5fb6f4eb0703f3154bb3db00161239c8382614066565b507fe6887a88bb2477605d9b68e33f64a263587018a6a232f3b234ba1b78c96b84f2338383426040516123d29493929190614210565b60405180910390a15050565b60606009805480602002602001604051908101604052809291908181526020016000905b82821015610a5057838290600052602060002090600602016040518060c001604052908160008201805461243590613d71565b80601f016020809104026020016040519081016040528092919081815260200182805461246190613d71565b80156124ae5780601f10612483576101008083540402835291602001916124ae565b820191906000526020600020905b81548152906001019060200180831161249157829003601f168201915b50505091835250506001820154600160a060020a0390811660208301526002830154166040820152600382015460608201526004820154608082015260058201805460a0909201916124ff90613d71565b80601f016020809104026020016040519081016040528092919081815260200182805461252b90613d71565b80156125785780601f1061254d57610100808354040283529160200191612578565b820191906000526020600020905b81548152906001019060200180831161255b57829003601f168201915b50505050508152505081526020019060010190612402565b6001548190600160a060020a03166000805b60405160e460020a6309759673028152600160a060020a038416906397596730906125d1908790600401613bf8565b600060405180830381865afa1580156125ee573d6000803e3d6000fd5b505050506040513d6000823e601f3d908101601f191682016040526126169190810190613c0c565b518110156126da5760405160e460020a63097596730281523390600160a060020a0385169063975967309061264f908890600401613bf8565b600060405180830381865afa15801561266c573d6000803e3d6000fd5b505050506040513d6000823e601f3d908101601f191682016040526126949190810190613c0c565b82815181106126a5576126a5613cd8565b602002602001015160000151600160a060020a0316036126c857600191506126da565b806126d281613d0c565b9150506125a2565b506001811515146127005760405160e560020a62461bcd02815260040161049790613d25565b60015460405160e060020a63628bf691028152600160a060020a0390911690819063628bf691906127379089908990600401614245565b600060405180830381600087803b15801561275157600080fd5b505af1158015612765573d6000803e3d6000fd5b505050507fd1f329271e4a98b0181a7d91618a0a5de6f42a1aaf4c1362493d829eaf405a8a33874260405161279c9392919061425f565b60405180910390a1505050505050565b6001548190600160a060020a03166000805b60405160e460020a6309759673028152600160a060020a038416906397596730906127ed908790600401613bf8565b600060405180830381865afa15801561280a573d6000803e3d6000fd5b505050506040513d6000823e601f3d908101601f191682016040526128329190810190613c0c565b518110156128f65760405160e460020a63097596730281523390600160a060020a0385169063975967309061286b908890600401613bf8565b600060405180830381865afa158015612888573d6000803e3d6000fd5b505050506040513d6000823e601f3d908101601f191682016040526128b09190810190613c0c565b82815181106128c1576128c1613cd8565b602002602001015160000151600160a060020a0316036128e457600191506128f6565b806128ee81613d0c565b9150506127be565b5060018115151461291c5760405160e560020a62461bcd02815260040161049790613d25565b604080518082019091526003815260eb60020a6208aa890260209182015286519087012086906000805160206142c4833981519152146129ad576000600160a060020a03166008826040516129719190613daf565b90815260405190819003602001902060010154600160a060020a0316036129ad5760405160e560020a62461bcd02815260040161049790613fa0565b600160a060020a038516600090815260066020908152604080832033845290915280822090516129de908a90613daf565b9081526020016040518091039020541015612a3b5760405160e560020a62461bcd0281526020600482015260176024820152604a60020a7610d85b9b9bdd0819195c1bdcda5d080c08185b5bdd5b9d026044820152606401610497565b604080518082019091526003815260eb60020a6208aa890260209182015287519088012060008051602061428483398151915201612ad457600160a060020a038516600090815260066020908152604080832033845290915290819020905160eb60020a6208aa8902815234919060030190815260200160405180910390206000828254612ac99190613dcb565b90915550612c479050565b600160a060020a0385166000908152600660209081526040808320338452909152908190209051879190612b09908a90613daf565b90815260200160405180910390206000828254612b269190613dcb565b925050819055506000600888604051612b3f9190613daf565b9081526040519081900360200181206001015460e060020a6370a08231028252600160a060020a03169150879082906370a0823190612b82903390600401613bf8565b602060405180830381865afa158015612b9f573d6000803e3d6000fd5b505050506040513d601f19601f82011682018060405250810190612bc39190613fd2565b1015612bce57600080fd5b60405160e060020a6323b872dd028152600160a060020a038216906323b872dd90612c0190339030908c9060040161425f565b6020604051808303816000875af1158015612c20573d6000803e3d6000fd5b505050506040513d601f19601f82011682018060405250810190612c449190614004565b50505b7f41751252894a74bd975de630158c4e47bb25c36d9ce7ad90383d86d391d2be1287333460025442604051612c80959493929190614026565b60405180910390a16040805160c08101825288815233602080830191909152600160a060020a038816828401526060820189905242608083015282518084019093526007835260ca60020a6611195c1bdcda5d029083015260a081019190915260098054600181018255600091909152815160069091026000805160206142a483398151915201908190612d149082614066565b506020820151600182018054600160a060020a03928316600160a060020a0319918216179091556040840151600284018054919093169116179055606082015160038201556080820151600482015560a08201516005820190612d779082614066565b505060028054915060006110e383613d0c565b6001548190600160a060020a03166000805b60405160e460020a6309759673028152600160a060020a03841690639759673090612dcb908790600401613bf8565b600060405180830381865afa158015612de8573d6000803e3d6000fd5b505050506040513d6000823e601f3d908101601f19168201604052612e109190810190613c0c565b51811015612ed45760405160e460020a63097596730281523390600160a060020a03851690639759673090612e49908890600401613bf8565b600060405180830381865afa158015612e66573d6000803e3d6000fd5b505050506040513d6000823e601f3d908101601f19168201604052612e8e9190810190613c0c565b8281518110612e9f57612e9f613cd8565b602002602001015160000151600160a060020a031603612ec25760019150612ed4565b80612ecc81613d0c565b915050612d9c565b50600181151514612efa5760405160e560020a62461bcd02815260040161049790613d25565b600154600160a060020a031660005b60405160e460020a6309759673028152600160a060020a03831690639759673090612f38908990600401613bf8565b600060405180830381865afa158015612f55573d6000803e3d6000fd5b505050506040513d6000823e601f3d908101601f19168201604052612f7d9190810190613c0c565b5181101561308b5786600160a060020a031682600160a060020a03166397596730886040518263ffffffff1660e060020a028152600401612fbe9190613bf8565b600060405180830381865afa158015612fdb573d6000803e3d6000fd5b505050506040513d6000823e601f3d908101601f191682016040526130039190810190613c0c565b828151811061301457613014613cd8565b602002602001015160000151600160a060020a0316036130795760405160e560020a62461bcd02815260206004820152601b60248201527f63616e6e6f7420616464206475706c6963617465206f776e65727300000000006044820152606401610497565b8061308381613d0c565b915050612f09565b5060405160e060020a63269ae8b1028152600160a060020a0382169063269ae8b1906130bd9089908990600401614245565b600060405180830381600087803b1580156130d757600080fd5b505af11580156130eb573d6000803e3d6000fd5b505050507f43abcff3409244ec1056224394af5f818e9a74866f0a11bfee2ad52f68ad6fb933874260405161279c9392919061425f565b6001805460405160e460020a6309759673028152600092600160a060020a039092169190829063975967309061315c908790600401613bf8565b600060405180830381865afa158015613179573d6000803e3d6000fd5b505050506040513d6000823e601f3d908101601f191682016040526131a19190810190613c0c565b516131ac9190613de4565b9392505050565b600a82815481106131c6576131c6613cd8565b9060005260206000209060080201600401546006600083600160a060020a0316600160a060020a031681526020019081526020016000206000600a858154811061321257613212613cd8565b6000918252602080832060026008909302019190910154600160a060020a031683528201929092526040908101909120905161324f908690613daf565b9081526020016040518091039020600082825461326c9190613dcb565b9091555050604080518082019091526003815260eb60020a6208aa89026020918201528351908401206000805160206142848339815191520161334357600a82815481106132bc576132bc613cd8565b906000526020600020906008020160020160009054906101000a9004600160a060020a0316600160a060020a03166108fc600a848154811061330057613300613cd8565b9060005260206000209060080201600401549081150290604051600060405180830381858888f1935050505015801561333d573d6000803e3d6000fd5b5061343c565b6008836040516133539190613daf565b90815260405190819003602001902060010154600a8054600160a060020a039092169163a9059cbb91908590811061338d5761338d613cd8565b906000526020600020906008020160020160009054906101000a9004600160a060020a0316600a85815481106133c5576133c5613cd8565b9060005260206000209060080201600401546040518363ffffffff1660e060020a0281526004016133f7929190613feb565b6020604051808303816000875af1158015613416573d6000803e3d6000fd5b505050506040513d601f19601f8201168201806040525081019061343a9190614004565b505b7fdeea4c72b502b4bd7dce3c793e57c46bb32f3b2f66613d54a765e7585f520a2c8333600a858154811061347257613472613cd8565b906000526020600020906008020160020160009054906101000a9004600160a060020a0316600a86815481106134aa576134aa613cd8565b906000526020600020906008020160040154600a87815481106134cf576134cf613cd8565b906000526020600020906008020160050154600a88815481106134f4576134f4613cd8565b906000526020600020906008020160060154600a898154811061351957613519613cd8565b90600052602060002090600802016007015460405161353e9796959493929190613f39565b60405180910390a1600a805461355690600190613de4565b8154811061356657613566613cd8565b9060005260206000209060080201600a838154811061358757613587613cd8565b60009182526020909120600890910201806135a28382613e5d565b506001828101549082018054600160a060020a03928316600160a060020a03199182161790915560028085015490840180549184169183169190911790556003808501549084018054919093169116179055600480830154908201556005808301549082015560068083015490820155600791820154910155600a80548061362c5761362c613f86565b6000828152602081206000199092019160088302019061364c828261369b565b50600181018054600160a060020a031990811690915560028201805482169055600382018054909116905560006004820181905560058201819055600682018190556007909101559055505050565b5080546136a790613d71565b6000825580601f106136b7575050565b601f0160209004906000526020600020908101906136d591906136d8565b50565b5b808211156136ed57600081556001016136d9565b5090565b600160a060020a03811681146136d557600080fd5b6000806040838503121561371957600080fd5b82359150602083013561372b816136f1565b809150509250929050565b60005b83811015613751578181015183820152602001613739565b50506000910152565b60008151808452613772816020860160208601613736565b601f01601f19169290920160200192915050565b600060208083018184528085518083526040860191506040848202870101925083870160005b828110156137da57603f198886030184526137c885835161375a565b945092850192908501906001016137ac565b5092979650505050505050565b60e060020a634e487b710260009081526041600452602490fd5b604051602081016001604060020a0381118282101715613823576138236137e7565b60405290565b604051601f8201601f191681016001604060020a0381118282101715613851576138516137e7565b604052919050565b60006001604060020a03821115613872576138726137e7565b50601f01601f191660200190565b600082601f83011261389157600080fd5b81356138a461389f82613859565b613829565b8181528460208386010111156138b957600080fd5b816020850160208301376000918101602001919091529392505050565b600080604083850312156138e957600080fd5b82356001604060020a038111156138ff57600080fd5b61390b85828601613880565b925050602083013561372b816136f1565b60008060006060848603121561393157600080fd5b83356001604060020a0381111561394757600080fd5b61395386828701613880565b93505060208401359150604084013561396b816136f1565b809150509250925092565b60006020828403121561398857600080fd5b81356131ac816136f1565b6020808252825182820181905260009190848201906040850190845b818110156112a9578351835292840192918401916001016139af565b600080600080608085870312156139e157600080fd5b84356001604060020a038111156139f757600080fd5b613a0387828801613880565b9450506020850135613a14816136f1565b9250604085013591506060850135613a2b816136f1565b939692955090935050565b60208082528251828201819052600091906040908185019080840286018301878501865b83811015613af757603f1989840301855281516101008151818652613a818287018261375a565b838b0151600160a060020a03908116888d01528a850151168a8801526060808501519193509150613abc82880182600160a060020a03169052565b50506080828101519086015260a0808301519086015260c0808301519086015260e09182015191909401529386019390860190600101613a5a565b509098975050505050505050565b600060208284031215613b1757600080fd5b5035919050565b60208082528251828201819052600091906040908185019080840286018301878501865b83811015613af757603f19898403018552815160c08151818652613b688287018261375a565b838b0151600160a060020a03908116888d01528a850151168a880152606080850151908801526080808501519088015260a093840151878203948801949094529150613bb69050818361375a565b968901969450505090860190600101613b42565b60008060408385031215613bdd57600080fd5b8235613be8816136f1565b9150602083013561372b816136f1565b600160a060020a0391909116815260200190565b60006020808385031215613c1f57600080fd5b82516001604060020a0380821115613c3657600080fd5b818501915085601f830112613c4a57600080fd5b815181811115613c5c57613c5c6137e7565b8381029150613c6c848301613829565b8181529183018401918481019088841115613c8657600080fd5b938501935b83851015613ccc5785858a031215613ca557600092508283fd5b613cad613801565b92508451613cba816136f1565b83528282529385019390850190613c8b565b98975050505050505050565b60e060020a634e487b710260009081526032600452602490fd5b60e060020a634e487b710260009081526011600452602490fd5b600060018201613d1e57613d1e613cf2565b5060010190565b60208082526029908201527f4f6e6c792077616c6c6574206f776e6572732063616e2063616c6c2074686973604082015260b960020a6810333ab731ba34b7b702606082015260800190565b600281046001821680613d8557607f821691505b602082108103613da95760e060020a634e487b710260009081526022600452602490fd5b50919050565b60008251613dc1818460208701613736565b9190910192915050565b80820180821115613dde57613dde613cf2565b92915050565b81810381811115613dde57613dde613cf2565b601f821115613e41576000818152602081206020601f86010481016020861015613e1e5750805b6020601f860104820191505b81811015613e3d57828155600101613e2a565b5050505b505050565b6002808302600893909302900a6000190419161790565b818103613e68575050565b613e728254613d71565b6001604060020a03811115613e8957613e896137e7565b613e9d81613e978454613d71565b84613df7565b6000601f821160018114613ecb5760008315613eb95750848201545b613ec38482613e46565b855550613f32565b600085815260209020601f19841690600086815260209020845b83811015613f055782860154825560019586019590910190602001613ee5565b5085831015613f2557818501546008601f88160260020a60001904191681555b5050506001600284020184555b5050505050565b60e081526000613f4c60e083018a61375a565b600160a060020a0398891660208401529690971660408201526060810194909452608084019290925260a083015260c09091015292915050565b60e060020a634e487b710260009081526031600452602490fd5b6020808252601590820152605860020a74546f6b656e20646f6573206e6f742065786978747302604082015260600190565b600060208284031215613fe457600080fd5b5051919050565b600160a060020a03929092168252602082015260400190565b60006020828403121561401657600080fd5b815180151581146131ac57600080fd5b60a08152600061403960a083018861375a565b600160a060020a039690961660208301525060408101939093526060830191909152608090910152919050565b81516001604060020a0381111561407f5761407f6137e7565b61408d81613e978454613d71565b602080601f8311600181146140bc57600084156140aa5750858301515b6140b48582613e46565b865550613e3d565b600085815260208120601f198616915b828110156140eb578886015182559484019460019091019084016140cc565b508582101561410b57878501516008601f88160260020a60001904191681555b5050505050600202600101905550565b6000815461412881613d71565b60018281168015614140576001811461415557614184565b60ff1984168752821515830287019450614184565b8560005260208060002060005b8581101561417b5781548a820152908401908201614162565b50505082870194505b5050505092915050565b60006131ac828461411b565b6000602082840312156141ac57600080fd5b81516001604060020a038111156141c257600080fd5b8201601f810184136141d357600080fd5b80516141e161389f82613859565b8181528560208385010111156141f657600080fd5b614207826020830160208601613736565b95945050505050565b6000600160a060020a03808716835260806020840152614233608084018761375a565b94166040830152506060015292915050565b600160a060020a0392831681529116602082015260400190565b600160a060020a03938416815291909216602082015260408101919091526060019056fe55514145c7ef4e1948f87e0eb4d28d3e34763f4d4cdf3bc449800860a9d0a00c6e1540171b6c0c960b71a7020d9f60077f6af931a8bbf590da0223dacf75c7afaaaebeba3810b1e6b70781f14b2d72c1cb89c0b2b320c43bb67ff79f562f5ff4a2646970667358221220c62e29e1a494ef2f1034ee6c15e47f956d6ca66acab288172a066178115158ea64736f6c63430008110033",
  "immutableReferences": {},
  "source": "// SPDX-License-Identifier: MIT\npragma solidity ^0.8.10;\n\nimport \"@openzeppelin/contracts/token/ERC20/IERC20.sol\";\nimport \"@openzeppelin/contracts/token/ERC20/ERC20.sol\";\nimport \"@openzeppelin/contracts/utils/Strings.sol\";\n\nimport \"./MultiSigFactory.sol\";\n\ncontract MultiSigWallet {\n\n    address admin;\n    address factoryContractAddress;\n    uint depositId;\n    uint withdrawalId;\n    uint transferId;\n    string[] tokenList;\n\n    constructor(address _factoryContractAddress) {\n        admin = msg.sender;\n        tokenList.push(\"ETH\");\n        factoryContractAddress = _factoryContractAddress;\n    }\n\n    mapping(address => mapping(address => mapping(string => uint))) balance;\n    mapping(address => mapping(uint => bool)) approvals;\n    mapping(string => Token) tokenMapping;\n\n    struct Token {\n\n        string ticker;\n        address tokenAddress;\n    }\n\n    struct Account {\n\n        string ticker;\n        address sender;\n        address walletAddress;\n        uint amount;\n        uint timeOfTransaction;\n        string action;\n    }\n\n    Account[] accountTransactions;\n\n    struct Transfer {\n\n        string ticker;\n        address sender;\n        address payable receiver;\n        address walletAddress;\n        uint amount;\n        uint id;\n        uint approvals;\n        uint timeOfTransaction;\n    }\n\n    Transfer[] transferRequests;\n\n    event walletOwnerAdded(address addedBy, address ownerAdded, uint timeOfTransaction);\n    event walletOwnerRemoved(address removedBy, address ownerRemoved, uint timeOfTransaction);\n    event fundsDeposited(string ticker, address sender, uint amount, uint depositId, uint timeOfTransaction);\n    event fundsWithdrawed(string ticker, address sender, uint amount, uint withdrawalId, uint timeOfTransaction);\n    event transferCreated(string ticker, address sender, address receiver, uint amount, uint id, uint approvals, uint timeOfTransaction);\n    event transferCancelled(string ticker, address sender, address receiver, uint amount, uint id, uint approvals, uint timeOfTransaction);\n    event transferApproved(string ticker, address sender, address receiver, uint amount, uint id, uint approvals, uint timeOfTransaction);\n    event fundsTransfered(string ticker, address sender, address receiver, uint amount, uint id, uint approvals, uint timeOfTransaction);\n    event tokenAdded(address addedBy, string ticker, address tokenAddress, uint timeOfTransaction);\n\n    modifier onlyAdmin() {\n      require(msg.sender == admin, \"Only Contract Owner allowed\");\n      _;\n\n    }\n\n    modifier onlyOwners(address walletAddress) {\n       MultiSigFactory factory = MultiSigFactory(factoryContractAddress);\n\n       bool isOwner = false;\n       for (uint i = 0; i< factory.getWalletOwners(walletAddress).length; i++) {\n\n           if (factory.getWalletOwners(walletAddress)[i].owners == msg.sender) {\n\n               isOwner = true;\n               break;\n           }\n       }\n\n       require(isOwner == true, \"Only wallet owners can call this function\");\n       _;\n\n    }\n\n    modifier tokenExists(string memory ticker) {\n\n        if(keccak256(bytes(ticker)) != keccak256(bytes(\"ETH\"))) {\n\n            require(tokenMapping[ticker].tokenAddress != address(0), \"Token does not exixts\");\n        }\n        _;\n    }\n\n    function addToken(string memory ticker, address _tokenAddress) public onlyAdmin {\n\n        for (uint i = 0; i < tokenList.length; i++) {\n\n            require(keccak256(bytes(tokenList[i])) != keccak256(bytes(ticker)), \"Cannot add duplicate tokens\");\n        }\n\n        require(keccak256(bytes(ERC20(_tokenAddress).symbol())) == keccak256(bytes(ticker)));\n\n        tokenMapping[ticker] = Token(ticker, _tokenAddress);\n\n        tokenList.push(ticker);\n\n        emit tokenAdded(msg.sender, ticker, _tokenAddress, block.timestamp);\n    }\n\n    function addWalletOwner(address owner, address walletAddress) public onlyOwners(walletAddress) {\n\n       MultiSigFactory factory = MultiSigFactory(factoryContractAddress);\n\n       for (uint i = 0; i < factory.getWalletOwners(walletAddress).length; i++) {\n\n           if(factory.getWalletOwners(walletAddress)[i].owners == owner) {\n\n               revert(\"cannot add duplicate owners\");\n           }\n       }\n\n       factory.addNewWalletInstance(owner, walletAddress);\n       emit walletOwnerAdded(msg.sender, owner, block.timestamp);\n\n    }\n\n    function removeWalletOwner(address owner, address walletAddress) public onlyOwners(walletAddress) {\n\n        MultiSigFactory factory = MultiSigFactory(factoryContractAddress);\n\n        factory.removeNewWalletInstance(owner, walletAddress);\n        emit walletOwnerRemoved(msg.sender, owner, block.timestamp);\n\n    }\n\n    function deposit(string memory ticker, uint amount, address walletAddress) public payable onlyOwners(walletAddress) tokenExists(ticker) {\n\n        require(balance[walletAddress][msg.sender][ticker] >= 0, \"Cannot deposit 0 amount\");\n\n        if(keccak256(bytes(ticker)) == keccak256(bytes(\"ETH\"))) {\n\n            balance[walletAddress][msg.sender][\"ETH\"] += msg.value;\n        }\n\n        else {\n            balance[walletAddress][msg.sender][ticker] += amount;\n            IERC20 token = IERC20(tokenMapping[ticker].tokenAddress);\n            require(token.balanceOf(msg.sender) >= amount);\n            token.transferFrom(msg.sender, address(this), amount);\n        }\n\n        emit fundsDeposited(ticker, msg.sender, msg.value, depositId, block.timestamp);\n        accountTransactions.push(Account(ticker, msg.sender, walletAddress, amount, block.timestamp, \"Deposit\"));\n\n        depositId++;\n\n    }\n\n    function withdraw(string memory ticker, uint amount, address walletAddress) public onlyOwners(walletAddress) tokenExists(ticker) {\n\n        require(balance[walletAddress][msg.sender][ticker] >= amount);\n\n        balance[walletAddress][msg.sender][ticker] -= amount;\n\n        if(keccak256(bytes(ticker)) == keccak256(bytes(\"ETH\"))) {\n\n            payable(msg.sender).transfer(amount);\n        }\n\n        else {\n            IERC20 token = IERC20(tokenMapping[ticker].tokenAddress);\n            require(token.balanceOf(address(this)) >= amount,\"Insufficient Token\");\n            token.transfer(msg.sender, amount);\n        }\n\n        emit fundsWithdrawed(ticker, msg.sender, amount, withdrawalId, block.timestamp);\n        accountTransactions.push(Account(ticker, msg.sender, walletAddress, amount, block.timestamp, \"Withdraw\"));\n\n        withdrawalId++;\n\n    }\n\n    function createTransferRequest(string memory ticker, address payable receiver, uint amount, address walletAddress) public onlyOwners(walletAddress) tokenExists(ticker) {\n\n        MultiSigFactory factory = MultiSigFactory(factoryContractAddress);\n\n        require(balance[walletAddress][msg.sender][ticker] >= amount, \"Insufficent funds to create a Transfer\");\n\n        for (uint i = 0; i < factory.getWalletOwners(walletAddress).length; i++) {\n\n            require(factory.getWalletOwners(walletAddress)[i].owners != receiver, \"Cannot transfer funds withiwn the wallet\");\n        }\n\n        balance[walletAddress][msg.sender][ticker] -= amount;\n        transferRequests.push(Transfer(ticker, msg.sender, receiver, walletAddress, amount, transferId, 0, block.timestamp));\n        transferId++;\n        emit transferCreated(ticker, msg.sender, receiver, amount, transferId, 0, block.timestamp);\n    }\n\n    function cancelTransferRequest(uint id, address walletAddress) public onlyOwners(walletAddress) {\n\n        bool hasBeenFound = false;\n        uint transferIndex = 0;\n        for (uint i = 0; i < transferRequests.length; i++) {\n            if(transferRequests[i].id == id) {\n                hasBeenFound = true;\n                break;\n            }\n             transferIndex++;\n        }\n        string memory ticker = transferRequests[transferIndex].ticker;\n        require(transferRequests[transferIndex].sender == msg.sender, \"Only the transfer creator can cancel\");\n        require(hasBeenFound, \"Transfer request does not exist\");\n\n        balance[walletAddress][msg.sender][ticker] += transferRequests[transferIndex].amount;\n\n        transferRequests[transferIndex] = transferRequests[transferRequests.length - 1];\n\n        emit transferCancelled(\n            ticker,\n            msg.sender,\n            transferRequests[transferIndex].receiver,\n            transferRequests[transferIndex].amount,\n            transferRequests[transferIndex].id,\n            transferRequests[transferIndex].approvals,\n            transferRequests[transferIndex].timeOfTransaction);\n\n        transferRequests.pop();\n    }\n\n    function approveTransferRequest(uint id, address walletAddress) public payable onlyOwners(walletAddress) {\n\n        bool hasBeenFound = false;\n        uint transferIndex = 0;\n        for (uint i = 0; i < transferRequests.length; i++) {\n            if(transferRequests[i].id == id) {\n                hasBeenFound = true;\n                break;\n            }\n             transferIndex++;\n        }\n        string memory ticker = transferRequests[transferIndex].ticker;\n        require(hasBeenFound, \"Tx not found\");\n        require(approvals[msg.sender][id] == false, \"Cannot approve the same transfer twice\");\n        require(transferRequests[transferIndex].sender != msg.sender, \"Transfer creator cannot approve\");\n\n        approvals[msg.sender][id] = true;\n        transferRequests[transferIndex].approvals++;\n\n        emit transferApproved(\n            ticker,\n            msg.sender,\n            transferRequests[transferIndex].receiver,\n            transferRequests[transferIndex].amount,\n            transferRequests[transferIndex].id,\n            transferRequests[transferIndex].approvals,\n            transferRequests[transferIndex].timeOfTransaction);\n\n        uint limit = getApprovalLimit(walletAddress);\n        if (transferRequests[transferIndex].approvals == limit) {\n\n            transferFunds(ticker, transferIndex, walletAddress);\n        }\n    }\n\n    function transferFunds(string memory ticker, uint id, address walletAddress) private {\n\n        balance[walletAddress][transferRequests[id].receiver][ticker] += transferRequests[id].amount;\n\n        if(keccak256(bytes(ticker)) == keccak256(bytes(\"ETH\"))) {\n\n            transferRequests[id].receiver.transfer(transferRequests[id].amount);\n        }\n        else {\n            IERC20(tokenMapping[ticker].tokenAddress).transfer(transferRequests[id].receiver, transferRequests[id].amount);\n        }\n\n        emit fundsTransfered(ticker, msg.sender, transferRequests[id].receiver, transferRequests[id].amount, transferRequests[id].id, transferRequests[id].approvals, transferRequests[id].timeOfTransaction);\n\n        transferRequests[id] = transferRequests[transferRequests.length - 1];\n        transferRequests.pop();\n    }\n\n    function getApprovals(uint id) public view returns(bool) {\n\n        return approvals[msg.sender][id];\n    }\n\n    function getTransferRequests() public view returns(Transfer[] memory) {\n\n        return transferRequests;\n    }\n\n    function getAccountTransactions() public view returns(Account[] memory) {\n\n        return accountTransactions;\n    }\n\n    function getBalance(string memory ticker, address walletAddress) public view tokenExists(ticker) returns(uint) {\n        MultiSigFactory factory = MultiSigFactory(factoryContractAddress);\n        uint walletBalance;\n        MultiSigFactory.WalletUsers[] memory walletOwners = factory.getWalletOwners(walletAddress);\n        for (uint i = 0; i < walletOwners.length; i++) {\n                walletBalance += balance[walletAddress][walletOwners[i].owners][ticker];\n\n            }\n        return walletBalance;\n    }\n\n    function getWalletDetails(address walletAddress) public view returns(uint[] memory) {\n        uint256[] memory walletDetails = new uint256[](tokenList.length);\n\n        MultiSigFactory factory = MultiSigFactory(factoryContractAddress);\n        MultiSigFactory.WalletUsers[] memory walletOwners = factory.getWalletOwners(walletAddress);\n\n\n        for (uint j = 0; j< tokenList.length; j++)\n        {\n          uint walletBalance;\n          for (uint i = 0; i < walletOwners.length; i++) {\n              walletBalance += balance[walletAddress][walletOwners[i].owners][tokenList[j]];\n            }\n            walletDetails[j] = walletBalance;\n        }\n\n\n        return walletDetails;\n    }\n\n    function getApprovalLimit(address walletAddress) public view returns (uint) {\n        MultiSigFactory factory = MultiSigFactory(factoryContractAddress);\n\n        return factory.getWalletOwners(walletAddress).length - 1;\n    }\n\n    function getContractETHBalance() public view returns(uint) {\n\n        return address(this).balance;\n    }\n\n    function getContractERC20Balance(string memory ticker, address walletAddress) public view tokenExists(ticker) returns(uint) {\n\n        return balance[walletAddress][address(this)][ticker];\n    }\n\n    function getTokenList() public view returns(string[] memory) {\n\n        return tokenList;\n    }\n\n}\n",
  "sourcePath": "/Users/paras/Documents/multisig-wallet/contracts/MultiSigWallet.sol",
  "compiler": {
    "name": "solc",
    "version": "0.8.17+commit.8df45f5f.Emscripten.clang"
  },
  "schemaVersion": "3.4.7",
  "updatedAt": "2022-09-22T17:11:01.894Z",
  "networkType": "ethereum",
  "devdoc": {
    "kind": "dev",
    "methods": {},
    "version": 1
  },
  "userdoc": {
    "kind": "user",
    "methods": {},
    "version": 1
  }
}