{
  "contractName": "MultiSigWallet",
  "abi": [
    {
      "inputs": [
        {
          "internalType": "address",
          "name": "_factoryContractAddress",
          "type": "address"
        }
      ],
      "stateMutability": "nonpayable",
      "type": "constructor"
    },
    {
      "anonymous": false,
      "inputs": [
        {
          "indexed": false,
          "internalType": "string",
          "name": "ticker",
          "type": "string"
        },
        {
          "indexed": false,
          "internalType": "address",
          "name": "sender",
          "type": "address"
        },
        {
          "indexed": false,
          "internalType": "uint256",
          "name": "amount",
          "type": "uint256"
        },
        {
          "indexed": false,
          "internalType": "uint256",
          "name": "depositId",
          "type": "uint256"
        },
        {
          "indexed": false,
          "internalType": "uint256",
          "name": "timeOfTransaction",
          "type": "uint256"
        }
      ],
      "name": "fundsDeposited",
      "type": "event"
    },
    {
      "anonymous": false,
      "inputs": [
        {
          "indexed": false,
          "internalType": "string",
          "name": "ticker",
          "type": "string"
        },
        {
          "indexed": false,
          "internalType": "address",
          "name": "sender",
          "type": "address"
        },
        {
          "indexed": false,
          "internalType": "address",
          "name": "receiver",
          "type": "address"
        },
        {
          "indexed": false,
          "internalType": "uint256",
          "name": "amount",
          "type": "uint256"
        },
        {
          "indexed": false,
          "internalType": "uint256",
          "name": "id",
          "type": "uint256"
        },
        {
          "indexed": false,
          "internalType": "uint256",
          "name": "approvals",
          "type": "uint256"
        },
        {
          "indexed": false,
          "internalType": "uint256",
          "name": "timeOfTransaction",
          "type": "uint256"
        }
      ],
      "name": "fundsTransfered",
      "type": "event"
    },
    {
      "anonymous": false,
      "inputs": [
        {
          "indexed": false,
          "internalType": "string",
          "name": "ticker",
          "type": "string"
        },
        {
          "indexed": false,
          "internalType": "address",
          "name": "sender",
          "type": "address"
        },
        {
          "indexed": false,
          "internalType": "uint256",
          "name": "amount",
          "type": "uint256"
        },
        {
          "indexed": false,
          "internalType": "uint256",
          "name": "withdrawalId",
          "type": "uint256"
        },
        {
          "indexed": false,
          "internalType": "uint256",
          "name": "timeOfTransaction",
          "type": "uint256"
        }
      ],
      "name": "fundsWithdrawed",
      "type": "event"
    },
    {
      "anonymous": false,
      "inputs": [
        {
          "indexed": false,
          "internalType": "address",
          "name": "addedBy",
          "type": "address"
        },
        {
          "indexed": false,
          "internalType": "string",
          "name": "ticker",
          "type": "string"
        },
        {
          "indexed": false,
          "internalType": "address",
          "name": "tokenAddress",
          "type": "address"
        },
        {
          "indexed": false,
          "internalType": "uint256",
          "name": "timeOfTransaction",
          "type": "uint256"
        }
      ],
      "name": "tokenAdded",
      "type": "event"
    },
    {
      "anonymous": false,
      "inputs": [
        {
          "indexed": false,
          "internalType": "string",
          "name": "ticker",
          "type": "string"
        },
        {
          "indexed": false,
          "internalType": "address",
          "name": "sender",
          "type": "address"
        },
        {
          "indexed": false,
          "internalType": "address",
          "name": "receiver",
          "type": "address"
        },
        {
          "indexed": false,
          "internalType": "uint256",
          "name": "amount",
          "type": "uint256"
        },
        {
          "indexed": false,
          "internalType": "uint256",
          "name": "id",
          "type": "uint256"
        },
        {
          "indexed": false,
          "internalType": "uint256",
          "name": "approvals",
          "type": "uint256"
        },
        {
          "indexed": false,
          "internalType": "uint256",
          "name": "timeOfTransaction",
          "type": "uint256"
        }
      ],
      "name": "transferApproved",
      "type": "event"
    },
    {
      "anonymous": false,
      "inputs": [
        {
          "indexed": false,
          "internalType": "string",
          "name": "ticker",
          "type": "string"
        },
        {
          "indexed": false,
          "internalType": "address",
          "name": "sender",
          "type": "address"
        },
        {
          "indexed": false,
          "internalType": "address",
          "name": "receiver",
          "type": "address"
        },
        {
          "indexed": false,
          "internalType": "uint256",
          "name": "amount",
          "type": "uint256"
        },
        {
          "indexed": false,
          "internalType": "uint256",
          "name": "id",
          "type": "uint256"
        },
        {
          "indexed": false,
          "internalType": "uint256",
          "name": "approvals",
          "type": "uint256"
        },
        {
          "indexed": false,
          "internalType": "uint256",
          "name": "timeOfTransaction",
          "type": "uint256"
        }
      ],
      "name": "transferCancelled",
      "type": "event"
    },
    {
      "anonymous": false,
      "inputs": [
        {
          "indexed": false,
          "internalType": "string",
          "name": "ticker",
          "type": "string"
        },
        {
          "indexed": false,
          "internalType": "address",
          "name": "sender",
          "type": "address"
        },
        {
          "indexed": false,
          "internalType": "address",
          "name": "receiver",
          "type": "address"
        },
        {
          "indexed": false,
          "internalType": "uint256",
          "name": "amount",
          "type": "uint256"
        },
        {
          "indexed": false,
          "internalType": "uint256",
          "name": "id",
          "type": "uint256"
        },
        {
          "indexed": false,
          "internalType": "uint256",
          "name": "approvals",
          "type": "uint256"
        },
        {
          "indexed": false,
          "internalType": "uint256",
          "name": "timeOfTransaction",
          "type": "uint256"
        }
      ],
      "name": "transferCreated",
      "type": "event"
    },
    {
      "anonymous": false,
      "inputs": [
        {
          "indexed": false,
          "internalType": "address",
          "name": "addedBy",
          "type": "address"
        },
        {
          "indexed": false,
          "internalType": "address",
          "name": "ownerAdded",
          "type": "address"
        },
        {
          "indexed": false,
          "internalType": "uint256",
          "name": "timeOfTransaction",
          "type": "uint256"
        }
      ],
      "name": "walletOwnerAdded",
      "type": "event"
    },
    {
      "anonymous": false,
      "inputs": [
        {
          "indexed": false,
          "internalType": "address",
          "name": "removedBy",
          "type": "address"
        },
        {
          "indexed": false,
          "internalType": "address",
          "name": "ownerRemoved",
          "type": "address"
        },
        {
          "indexed": false,
          "internalType": "uint256",
          "name": "timeOfTransaction",
          "type": "uint256"
        }
      ],
      "name": "walletOwnerRemoved",
      "type": "event"
    },
    {
      "inputs": [
        {
          "internalType": "string",
          "name": "ticker",
          "type": "string"
        },
        {
          "internalType": "address",
          "name": "_tokenAddress",
          "type": "address"
        }
      ],
      "name": "addToken",
      "outputs": [],
      "stateMutability": "nonpayable",
      "type": "function"
    },
    {
      "inputs": [
        {
          "internalType": "address",
          "name": "owner",
          "type": "address"
        },
        {
          "internalType": "address",
          "name": "walletAddress",
          "type": "address"
        }
      ],
      "name": "addWalletOwner",
      "outputs": [],
      "stateMutability": "nonpayable",
      "type": "function"
    },
    {
      "inputs": [
        {
          "internalType": "address",
          "name": "owner",
          "type": "address"
        },
        {
          "internalType": "address",
          "name": "walletAddress",
          "type": "address"
        }
      ],
      "name": "removeWalletOwner",
      "outputs": [],
      "stateMutability": "nonpayable",
      "type": "function"
    },
    {
      "inputs": [
        {
          "internalType": "string",
          "name": "ticker",
          "type": "string"
        },
        {
          "internalType": "uint256",
          "name": "amount",
          "type": "uint256"
        },
        {
          "internalType": "address",
          "name": "walletAddress",
          "type": "address"
        }
      ],
      "name": "deposit",
      "outputs": [],
      "stateMutability": "payable",
      "type": "function",
      "payable": true
    },
    {
      "inputs": [
        {
          "internalType": "string",
          "name": "ticker",
          "type": "string"
        },
        {
          "internalType": "uint256",
          "name": "amount",
          "type": "uint256"
        },
        {
          "internalType": "address",
          "name": "walletAddress",
          "type": "address"
        }
      ],
      "name": "withdraw",
      "outputs": [],
      "stateMutability": "nonpayable",
      "type": "function"
    },
    {
      "inputs": [
        {
          "internalType": "string",
          "name": "ticker",
          "type": "string"
        },
        {
          "internalType": "address payable",
          "name": "receiver",
          "type": "address"
        },
        {
          "internalType": "uint256",
          "name": "amount",
          "type": "uint256"
        },
        {
          "internalType": "address",
          "name": "walletAddress",
          "type": "address"
        }
      ],
      "name": "createTrnasferRequest",
      "outputs": [],
      "stateMutability": "nonpayable",
      "type": "function"
    },
    {
      "inputs": [
        {
          "internalType": "uint256",
          "name": "id",
          "type": "uint256"
        },
        {
          "internalType": "address",
          "name": "walletAddress",
          "type": "address"
        }
      ],
      "name": "cancelTransferRequest",
      "outputs": [],
      "stateMutability": "nonpayable",
      "type": "function"
    },
    {
      "inputs": [
        {
          "internalType": "uint256",
          "name": "id",
          "type": "uint256"
        },
        {
          "internalType": "address",
          "name": "walletAddress",
          "type": "address"
        }
      ],
      "name": "approveTransferRequest",
      "outputs": [],
      "stateMutability": "nonpayable",
      "type": "function"
    },
    {
      "inputs": [
        {
          "internalType": "uint256",
          "name": "id",
          "type": "uint256"
        }
      ],
      "name": "getApprovals",
      "outputs": [
        {
          "internalType": "bool",
          "name": "",
          "type": "bool"
        }
      ],
      "stateMutability": "view",
      "type": "function",
      "constant": true
    },
    {
      "inputs": [],
      "name": "getTransferRequests",
      "outputs": [
        {
          "components": [
            {
              "internalType": "string",
              "name": "ticker",
              "type": "string"
            },
            {
              "internalType": "address",
              "name": "sender",
              "type": "address"
            },
            {
              "internalType": "address payable",
              "name": "receiver",
              "type": "address"
            },
            {
              "internalType": "uint256",
              "name": "amount",
              "type": "uint256"
            },
            {
              "internalType": "uint256",
              "name": "id",
              "type": "uint256"
            },
            {
              "internalType": "uint256",
              "name": "approvals",
              "type": "uint256"
            },
            {
              "internalType": "uint256",
              "name": "timeOfTransaction",
              "type": "uint256"
            }
          ],
          "internalType": "struct MultiSigWallet.Transfer[]",
          "name": "",
          "type": "tuple[]"
        }
      ],
      "stateMutability": "view",
      "type": "function",
      "constant": true
    },
    {
      "inputs": [
        {
          "internalType": "string",
          "name": "ticker",
          "type": "string"
        }
      ],
      "name": "getBalance",
      "outputs": [
        {
          "internalType": "uint256",
          "name": "",
          "type": "uint256"
        }
      ],
      "stateMutability": "view",
      "type": "function",
      "constant": true
    },
    {
      "inputs": [
        {
          "internalType": "address",
          "name": "walletAddress",
          "type": "address"
        }
      ],
      "name": "getApprovalLimit",
      "outputs": [
        {
          "internalType": "uint256",
          "name": "",
          "type": "uint256"
        }
      ],
      "stateMutability": "view",
      "type": "function",
      "constant": true
    },
    {
      "inputs": [],
      "name": "getContractETHBalance",
      "outputs": [
        {
          "internalType": "uint256",
          "name": "",
          "type": "uint256"
        }
      ],
      "stateMutability": "view",
      "type": "function",
      "constant": true
    },
    {
      "inputs": [
        {
          "internalType": "string",
          "name": "ticker",
          "type": "string"
        }
      ],
      "name": "getContractERC20Balance",
      "outputs": [
        {
          "internalType": "uint256",
          "name": "",
          "type": "uint256"
        }
      ],
      "stateMutability": "view",
      "type": "function",
      "constant": true
    },
    {
      "inputs": [],
      "name": "getTokenList",
      "outputs": [
        {
          "internalType": "string[]",
          "name": "",
          "type": "string[]"
        }
      ],
      "stateMutability": "view",
      "type": "function",
      "constant": true
    }
  ],
  "bytecode": "0x60806040523480156200001157600080fd5b5060405162003b3438038062003b348339810160408190526200003491620000de565b60008054600160a060020a0319163317815560058054600181018255915260408051808201909152600381527f455448000000000000000000000000000000000000000000000000000000000060208201527f036b6384b5eca791c62761152d0c79bb0604c104a5fb6f4eb0703f3154bb3db090910190620000b79082620001e7565b5060018054600160a060020a031916600160a060020a0392909216919091179055620002ba565b600060208284031215620000f157600080fd5b8151600160a060020a03811681146200010957600080fd5b9392505050565b7f4e487b7100000000000000000000000000000000000000000000000000000000600052604160045260246000fd5b6002810460018216806200015457607f821691505b6020821081036200018e577f4e487b7100000000000000000000000000000000000000000000000000000000600052602260045260246000fd5b50919050565b601f821115620001e2576000818152602081206020601f86010481016020861015620001bd5750805b6020601f860104820191505b81811015620001de57828155600101620001c9565b5050505b505050565b815167ffffffffffffffff81111562000204576200020462000110565b6200021c816200021584546200013f565b8462000194565b602080601f8311600181146200025857600084156200023b5750858301515b60028086026008870290910a6000190419821617865550620001de565b600085815260208120601f198616915b82811015620002895788860151825594840194600190910190840162000268565b5085821015620002aa57878501516008601f88160260020a60001904191681555b5050505050600202600101905550565b61386a80620002ca6000396000f3fe6080604052600436106100bb5760e060020a6000350463064842ce81146100c0578063273cbaa0146100e25780633a51d2461461010d5780634c7927a91461013b5780637804e7071461015b5780638c89a0ad1461017b578063926eeb301461018f578063a04ef145146101af578063a4e360c8146101d1578063b0b22c2c1461021c578063c81d42591461023c578063d63196e81461025c578063e7fb86391461026f578063f83943421461028f578063fb4ec8c0146102af575b600080fd5b3480156100cc57600080fd5b506100e06100db366004612d1d565b6102cf565b005b3480156100ee57600080fd5b506100f76108ca565b6040516101049190612d9d565b60405180910390f35b34801561011957600080fd5b5061012d610128366004612eed565b6109a3565b604051908152602001610104565b34801561014757600080fd5b5061012d610156366004612eed565b610a6d565b34801561016757600080fd5b506100e0610176366004612f29565b610b1f565b34801561018757600080fd5b50303161012d565b34801561019b57600080fd5b506100e06101aa366004612d1d565b610efd565b3480156101bb57600080fd5b506101c461141a565b6040516101049190612f83565b3480156101dd57600080fd5b5061020c6101ec366004613035565b336000908152600760209081526040808320938352929052205460ff1690565b6040519015158152602001610104565b34801561022857600080fd5b506100e061023736600461304e565b611552565b34801561024857600080fd5b506100e0610257366004613094565b6117ca565b6100e061026a366004612f29565b6119e6565b34801561027b57600080fd5b506100e061028a366004613094565b611e15565b34801561029b57600080fd5b5061012d6102aa3660046130c2565b6121ad565b3480156102bb57600080fd5b506100e06102ca3660046130df565b61223e565b6001548190600160a060020a03166000805b60405160e460020a6309759673028152600160a060020a0384169063975967309061031090879060040161314a565b600060405180830381865afa15801561032d573d6000803e3d6000fd5b505050506040513d6000823e601f3d908101601f19168201604052610355919081019061315e565b518110156104195760405160e460020a63097596730281523390600160a060020a0385169063975967309061038e90889060040161314a565b600060405180830381865afa1580156103ab573d6000803e3d6000fd5b505050506040513d6000823e601f3d908101601f191682016040526103d3919081019061315e565b82815181106103e4576103e461322a565b602002602001015160000151600160a060020a0316036104075760019150610419565b806104118161325e565b9150506102e1565b506001811515146104485760405160e560020a62461bcd02815260040161043f90613277565b60405180910390fd5b60006009868154811061045d5761045d61322a565b90600052602060002090600702016000018054610479906132c3565b80601f01602080910402602001604051908101604052809291908181526020018280546104a5906132c3565b80156104f25780601f106104c7576101008083540402835291602001916104f2565b820191906000526020600020905b8154815290600101906020018083116104d557829003601f168201915b5050505050905060008060005b60095481101561055d57886009828154811061051d5761051d61322a565b9060005260206000209060070201600401540361053d576001925061055d565b816105478161325e565b92505080806105559061325e565b9150506104ff565b5033600160a060020a03166009828154811061057b5761057b61322a565b6000918252602090912060016007909202010154600160a060020a0316146105b85760405160e560020a62461bcd02815260040161043f906132fb565b816106085760405160e560020a62461bcd02815260206004820152601f60248201527f7472616e73666572207265717565737420646f6573206e6f7420657869737400604482015260640161043f565b6009818154811061061b5761061b61322a565b9060005260206000209060070201600301546006600033600160a060020a0316600160a060020a03168152602001908152602001600020846040516106609190613342565b9081526020016040518091039020600082825461067d919061335e565b90915550506009805461069290600190613377565b815481106106a2576106a261322a565b9060005260206000209060070201600982815481106106c3576106c361322a565b60009182526020909120600790910201806106de83826133f0565b506001828101549082018054600160a060020a03928316600160a060020a0319918216179091556002808501549084018054919093169116179055600380830154908201556004808301549082015560058083015490820155600691820154910155600980547f88ac4e01306872c0a5f289baf13af804eedb981db2018261cf8afed94bd9e19b9185913391908590811061077b5761077b61322a565b906000526020600020906007020160020160009054906101000a9004600160a060020a0316600985815481106107b3576107b361322a565b906000526020600020906007020160030154600986815481106107d8576107d861322a565b906000526020600020906007020160040154600987815481106107fd576107fd61322a565b906000526020600020906007020160050154600988815481106108225761082261322a565b90600052602060002090600702016006015460405161084797969594939291906134cc565b60405180910390a1600980548061086057610860613519565b600082815260208120600019909201916007830201906108808282612cb2565b50600181018054600160a060020a03199081169091556002820180549091169055600060038201819055600482018190556005820181905560069091015590555050505050505050565b60606005805480602002602001604051908101604052809291908181526020016000905b8282101561099a57838290600052602060002001805461090d906132c3565b80601f0160208091040260200160405190810160405280929190818152602001828054610939906132c3565b80156109865780601f1061095b57610100808354040283529160200191610986565b820191906000526020600020905b81548152906001019060200180831161096957829003601f168201915b5050505050815260200190600101906108ee565b50505050905090565b604080518082019091526003815260eb60020a6208aa8902602091820152815190820120600090829060008051602061381583398151915214610a37576000600160a060020a03166008826040516109fb9190613342565b90815260405190819003602001902060010154600160a060020a031603610a375760405160e560020a62461bcd02815260040161043f90613533565b33600090815260066020526040908190209051610a55908590613342565b90815260200160405180910390205491505b50919050565b604080518082019091526003815260eb60020a6208aa8902602091820152815190820120600090829060008051602061381583398151915214610b01576000600160a060020a0316600882604051610ac59190613342565b90815260405190819003602001902060010154600160a060020a031603610b015760405160e560020a62461bcd02815260040161043f90613533565b30600090815260066020526040908190209051610a55908590613342565b6001548190600160a060020a03166000805b60405160e460020a6309759673028152600160a060020a03841690639759673090610b6090879060040161314a565b600060405180830381865afa158015610b7d573d6000803e3d6000fd5b505050506040513d6000823e601f3d908101601f19168201604052610ba5919081019061315e565b51811015610c695760405160e460020a63097596730281523390600160a060020a03851690639759673090610bde90889060040161314a565b600060405180830381865afa158015610bfb573d6000803e3d6000fd5b505050506040513d6000823e601f3d908101601f19168201604052610c23919081019061315e565b8281518110610c3457610c3461322a565b602002602001015160000151600160a060020a031603610c575760019150610c69565b80610c618161325e565b915050610b31565b50600181151514610c8f5760405160e560020a62461bcd02815260040161043f90613277565b604080518082019091526003815260eb60020a6208aa8902602091820152865190870120869060008051602061381583398151915214610d20576000600160a060020a0316600882604051610ce49190613342565b90815260405190819003602001902060010154600160a060020a031603610d205760405160e560020a62461bcd02815260040161043f90613533565b33600090815260066020526040908190209051879190610d41908a90613342565b9081526020016040518091039020541015610d5b57600080fd5b33600090815260066020526040908190209051879190610d7c908a90613342565b90815260200160405180910390206000828254610d999190613377565b9091555050604080518082019091526003815260eb60020a6208aa89026020918201528751908801206000805160206137f583398151915201610e0957604051339087156108fc029088906000818181858888f19350505050158015610e03573d6000803e3d6000fd5b50610e9e565b600887604051610e199190613342565b9081526040519081900360200181206001015460e060020a63a9059cbb028252600160a060020a03169063a9059cbb90610e599033908a90600401613565565b6020604051808303816000875af1158015610e78573d6000803e3d6000fd5b505050506040513d601f19601f82011682018060405250810190610e9c919061357e565b505b7f6a647eacc9e98792655e8dba08e3167440b93e02ef76e8e3330fa10a27b4ecbf87338860035442604051610ed79594939291906135a0565b60405180910390a160038054906000610eef8361325e565b919050555050505050505050565b6001548190600160a060020a03166000805b60405160e460020a6309759673028152600160a060020a03841690639759673090610f3e90879060040161314a565b600060405180830381865afa158015610f5b573d6000803e3d6000fd5b505050506040513d6000823e601f3d908101601f19168201604052610f83919081019061315e565b518110156110475760405160e460020a63097596730281523390600160a060020a03851690639759673090610fbc90889060040161314a565b600060405180830381865afa158015610fd9573d6000803e3d6000fd5b505050506040513d6000823e601f3d908101601f19168201604052611001919081019061315e565b82815181106110125761101261322a565b602002602001015160000151600160a060020a0316036110355760019150611047565b8061103f8161325e565b915050610f0f565b5060018115151461106d5760405160e560020a62461bcd02815260040161043f90613277565b6000600986815481106110825761108261322a565b9060005260206000209060070201600001805461109e906132c3565b80601f01602080910402602001604051908101604052809291908181526020018280546110ca906132c3565b80156111175780601f106110ec57610100808354040283529160200191611117565b820191906000526020600020905b8154815290600101906020018083116110fa57829003601f168201915b5050505050905060008060005b6009548110156111825788600982815481106111425761114261322a565b906000526020600020906007020160040154036111625760019250611182565b8161116c8161325e565b925050808061117a9061325e565b915050611124565b50816111a35760405160e560020a62461bcd02815260040161043f906132fb565b3360009081526007602090815260408083208b845290915290205460ff16156112235760405160e560020a62461bcd02815260206004820152602660248201527f63616e6e6f7420617070726f7665207468652073616d65207472616e73666572604482015260d060020a6520747769636502606482015260840161043f565b33600160a060020a0316600982815481106112405761124061322a565b6000918252602090912060016007909202010154600160a060020a03160361126757600080fd5b3360009081526007602090815260408083208b84529091529020805460ff1916600117905560098054829081106112a0576112a061322a565b6000918252602082206005600790920201018054916112be8361325e565b91905055507fead8052a59bd99f1b0115f4da8e862ebc15be06d11ad168b737b8e6dae0886c88333600984815481106112f9576112f961322a565b906000526020600020906007020160020160009054906101000a9004600160a060020a0316600985815481106113315761133161322a565b906000526020600020906007020160030154600986815481106113565761135661322a565b9060005260206000209060070201600401546009878154811061137b5761137b61322a565b906000526020600020906007020160050154600988815481106113a0576113a061322a565b9060005260206000209060070201600601546040516113c597969594939291906134cc565b60405180910390a160006113d8886121ad565b905080600983815481106113ee576113ee61322a565b9060005260206000209060070201600501540361140f5761140f848361280f565b505050505050505050565b60606009805480602002602001604051908101604052809291908181526020016000905b8282101561099a57838290600052602060002090600702016040518060e0016040529081600082018054611471906132c3565b80601f016020809104026020016040519081016040528092919081815260200182805461149d906132c3565b80156114ea5780601f106114bf576101008083540402835291602001916114ea565b820191906000526020600020905b8154815290600101906020018083116114cd57829003601f168201915b5050509183525050600182810154600160a060020a03908116602080850191909152600285015490911660408401526003840154606084015260048401546080840152600584015460a084015260069093015460c0909201919091529183529201910161143e565b600054600160a060020a031633146115af5760405160e560020a62461bcd02815260206004820152601b60248201527f4f6e6c7920436f6e7472616374204f776e657220616c6c6f7765640000000000604482015260640161043f565b60005b600554811015611658578280519060200120600582815481106115d7576115d761322a565b906000526020600020016040516115ee91906135e0565b6040518091039020036116465760405160e560020a62461bcd02815260206004820152601b60248201527f63616e6e6f7420616464206475706c696361746520746f6b656e730000000000604482015260640161043f565b806116508161325e565b9150506115b2565b50818051906020012081600160a060020a03166395d89b416040518163ffffffff1660e060020a028152600401600060405180830381865afa1580156116a2573d6000803e3d6000fd5b505050506040513d6000823e601f3d908101601f191682016040526116ca9190810190613656565b80519060200120146116db57600080fd5b604051806040016040528083815260200182600160a060020a03168152506008836040516117099190613342565b9081526040519081900360200190208151819061172690826136cc565b506020919091015160019182018054600160a060020a031916600160a060020a039092169190911790556005805491820181556000527f036b6384b5eca791c62761152d0c79bb0604c104a5fb6f4eb0703f3154bb3db00161178883826136cc565b507fe6887a88bb2477605d9b68e33f64a263587018a6a232f3b234ba1b78c96b84f2338383426040516117be9493929190613781565b60405180910390a15050565b6001548190600160a060020a03166000805b60405160e460020a6309759673028152600160a060020a0384169063975967309061180b90879060040161314a565b600060405180830381865afa158015611828573d6000803e3d6000fd5b505050506040513d6000823e601f3d908101601f19168201604052611850919081019061315e565b518110156119145760405160e460020a63097596730281523390600160a060020a0385169063975967309061188990889060040161314a565b600060405180830381865afa1580156118a6573d6000803e3d6000fd5b505050506040513d6000823e601f3d908101601f191682016040526118ce919081019061315e565b82815181106118df576118df61322a565b602002602001015160000151600160a060020a0316036119025760019150611914565b8061190c8161325e565b9150506117dc565b5060018115151461193a5760405160e560020a62461bcd02815260040161043f90613277565b60015460405160e060020a63628bf691028152600160a060020a0390911690819063628bf6919061197190899089906004016137b6565b600060405180830381600087803b15801561198b57600080fd5b505af115801561199f573d6000803e3d6000fd5b505050507fd1f329271e4a98b0181a7d91618a0a5de6f42a1aaf4c1362493d829eaf405a8a3387426040516119d6939291906137d0565b60405180910390a1505050505050565b6001548190600160a060020a03166000805b60405160e460020a6309759673028152600160a060020a03841690639759673090611a2790879060040161314a565b600060405180830381865afa158015611a44573d6000803e3d6000fd5b505050506040513d6000823e601f3d908101601f19168201604052611a6c919081019061315e565b51811015611b305760405160e460020a63097596730281523390600160a060020a03851690639759673090611aa590889060040161314a565b600060405180830381865afa158015611ac2573d6000803e3d6000fd5b505050506040513d6000823e601f3d908101601f19168201604052611aea919081019061315e565b8281518110611afb57611afb61322a565b602002602001015160000151600160a060020a031603611b1e5760019150611b30565b80611b288161325e565b9150506119f8565b50600181151514611b565760405160e560020a62461bcd02815260040161043f90613277565b604080518082019091526003815260eb60020a6208aa8902602091820152865190870120869060008051602061381583398151915214611be7576000600160a060020a0316600882604051611bab9190613342565b90815260405190819003602001902060010154600160a060020a031603611be75760405160e560020a62461bcd02815260040161043f90613533565b336000908152600660205260408082209051611c04908a90613342565b9081526020016040518091039020541015611c645760405160e560020a62461bcd02815260206004820152601c60248201527f63616e6e6f74206465706f7369697420612063616c7565206f66203000000000604482015260640161043f565b604080518082019091526003815260eb60020a6208aa89026020918201528751908801206000805160206137f583398151915201611ce9573360009081526006602052604090819020905160eb60020a6208aa8902815234919060030190815260200160405180910390206000828254611cde919061335e565b90915550611dc49050565b33600090815260066020526040908190209051879190611d0a908a90613342565b90815260200160405180910390206000828254611d27919061335e565b9091555050604051600890611d3d908990613342565b9081526040519081900360200181206001015460e060020a6323b872dd028252600160a060020a0316906323b872dd90611d7f90339030908b906004016137d0565b6020604051808303816000875af1158015611d9e573d6000803e3d6000fd5b505050506040513d601f19601f82011682018060405250810190611dc2919061357e565b505b7f41751252894a74bd975de630158c4e47bb25c36d9ce7ad90383d86d391d2be1287333460025442604051611dfd9594939291906135a0565b60405180910390a160028054906000610eef8361325e565b6001548190600160a060020a03166000805b60405160e460020a6309759673028152600160a060020a03841690639759673090611e5690879060040161314a565b600060405180830381865afa158015611e73573d6000803e3d6000fd5b505050506040513d6000823e601f3d908101601f19168201604052611e9b919081019061315e565b51811015611f5f5760405160e460020a63097596730281523390600160a060020a03851690639759673090611ed490889060040161314a565b600060405180830381865afa158015611ef1573d6000803e3d6000fd5b505050506040513d6000823e601f3d908101601f19168201604052611f19919081019061315e565b8281518110611f2a57611f2a61322a565b602002602001015160000151600160a060020a031603611f4d5760019150611f5f565b80611f578161325e565b915050611e27565b50600181151514611f855760405160e560020a62461bcd02815260040161043f90613277565b600154600160a060020a031660005b60405160e460020a6309759673028152600160a060020a03831690639759673090611fc390899060040161314a565b600060405180830381865afa158015611fe0573d6000803e3d6000fd5b505050506040513d6000823e601f3d908101601f19168201604052612008919081019061315e565b518110156121165786600160a060020a031682600160a060020a03166397596730886040518263ffffffff1660e060020a028152600401612049919061314a565b600060405180830381865afa158015612066573d6000803e3d6000fd5b505050506040513d6000823e601f3d908101601f1916820160405261208e919081019061315e565b828151811061209f5761209f61322a565b602002602001015160000151600160a060020a0316036121045760405160e560020a62461bcd02815260206004820152601b60248201527f63616e6e6f7420616464206475706c6963617465206f776e6572730000000000604482015260640161043f565b8061210e8161325e565b915050611f94565b5060405160e060020a63269ae8b1028152600160a060020a0382169063269ae8b19061214890899089906004016137b6565b600060405180830381600087803b15801561216257600080fd5b505af1158015612176573d6000803e3d6000fd5b505050507f43abcff3409244ec1056224394af5f818e9a74866f0a11bfee2ad52f68ad6fb93387426040516119d6939291906137d0565b6001805460405160e460020a6309759673028152600092600160a060020a03909216919082906397596730906121e790879060040161314a565b600060405180830381865afa158015612204573d6000803e3d6000fd5b505050506040513d6000823e601f3d908101601f1916820160405261222c919081019061315e565b516122379190613377565b9392505050565b6001548190600160a060020a03166000805b60405160e460020a6309759673028152600160a060020a0384169063975967309061227f90879060040161314a565b600060405180830381865afa15801561229c573d6000803e3d6000fd5b505050506040513d6000823e601f3d908101601f191682016040526122c4919081019061315e565b518110156123885760405160e460020a63097596730281523390600160a060020a038516906397596730906122fd90889060040161314a565b600060405180830381865afa15801561231a573d6000803e3d6000fd5b505050506040513d6000823e601f3d908101601f19168201604052612342919081019061315e565b82815181106123535761235361322a565b602002602001015160000151600160a060020a0316036123765760019150612388565b806123808161325e565b915050612250565b506001811515146123ae5760405160e560020a62461bcd02815260040161043f90613277565b604080518082019091526003815260eb60020a6208aa890260209182015287519088012087906000805160206138158339815191521461243f576000600160a060020a03166008826040516124039190613342565b90815260405190819003602001902060010154600160a060020a03160361243f5760405160e560020a62461bcd02815260040161043f90613533565b60015433600090815260066020526040908190209051600160a060020a039092169188919061246f908c90613342565b90815260200160405180910390205410156124e15760405160e560020a62461bcd02815260206004820152602660248201527f696e737566666963656e742066756e647320746f206372656174652061207472604482015260d160020a6530b739b332b902606482015260840161043f565b60005b60405160e460020a6309759673028152600160a060020a03831690639759673090612513908a9060040161314a565b600060405180830381865afa158015612530573d6000803e3d6000fd5b505050506040513d6000823e601f3d908101601f19168201604052612558919081019061315e565b5181101561267a5788600160a060020a031682600160a060020a03166397596730896040518263ffffffff1660e060020a028152600401612599919061314a565b600060405180830381865afa1580156125b6573d6000803e3d6000fd5b505050506040513d6000823e601f3d908101601f191682016040526125de919081019061315e565b82815181106125ef576125ef61322a565b602002602001015160000151600160a060020a0316036126685760405160e560020a62461bcd02815260206004820152602860248201527f63616e6e6f74207472616e736665722066756e6473207769746869776e207468604482015260c260020a6719481dd85b1b195d02606482015260840161043f565b806126728161325e565b9150506124e4565b503360009081526006602052604090819020905188919061269c908c90613342565b908152602001604051809103902060008282546126b99190613377565b90915550506040805160e0810182528a8152336020820152600160a060020a038a1691810191909152606081018890526004546080820152600060a082018190524260c0830152600980546001810182559152815160079091027f6e1540171b6c0c960b71a7020d9f60077f6af931a8bbf590da0223dacf75c7af0190819061274290826136cc565b506020820151600182018054600160a060020a03928316600160a060020a031991821617909155604084015160028401805491909316911617905560608201516003820155608082015160048083019190915560a0830151600583015560c09092015160069091015580549060006127b98361325e565b91905055507f9cc5df05955d08828d561f92ad3f6b82c78a55cf7d3dedacffacc4f694faf9be89338a8a6004546000426040516127fc97969594939291906134cc565b60405180910390a1505050505050505050565b600981815481106128225761282261322a565b906000526020600020906007020160030154600660006009848154811061284b5761284b61322a565b6000918252602080832060026007909302019190910154600160a060020a0316835282019290925260409081019091209051612888908590613342565b908152602001604051809103902060008282546128a5919061335e565b9091555050604080518082019091526003815260eb60020a6208aa89026020918201528251908301206000805160206137f58339815191520161297c57600981815481106128f5576128f561322a565b906000526020600020906007020160020160009054906101000a9004600160a060020a0316600160a060020a03166108fc600983815481106129395761293961322a565b9060005260206000209060070201600301549081150290604051600060405180830381858888f19350505050158015612976573d6000803e3d6000fd5b50612a75565b60088260405161298c9190613342565b9081526040519081900360200190206001015460098054600160a060020a039092169163a9059cbb9190849081106129c6576129c661322a565b906000526020600020906007020160020160009054906101000a9004600160a060020a0316600984815481106129fe576129fe61322a565b9060005260206000209060070201600301546040518363ffffffff1660e060020a028152600401612a30929190613565565b6020604051808303816000875af1158015612a4f573d6000803e3d6000fd5b505050506040513d601f19601f82011682018060405250810190612a73919061357e565b505b7fdeea4c72b502b4bd7dce3c793e57c46bb32f3b2f66613d54a765e7585f520a2c823360098481548110612aab57612aab61322a565b906000526020600020906007020160020160009054906101000a9004600160a060020a031660098581548110612ae357612ae361322a565b90600052602060002090600702016003015460098681548110612b0857612b0861322a565b90600052602060002090600702016004015460098781548110612b2d57612b2d61322a565b90600052602060002090600702016005015460098881548110612b5257612b5261322a565b906000526020600020906007020160060154604051612b7797969594939291906134cc565b60405180910390a160098054612b8f90600190613377565b81548110612b9f57612b9f61322a565b906000526020600020906007020160098281548110612bc057612bc061322a565b6000918252602090912060079091020180612bdb83826133f0565b506001828101549082018054600160a060020a03928316600160a060020a03199182161790915560028085015490840180549190931691161790556003808301549082015560048083015490820155600580830154908201556006918201549101556009805480612c4e57612c4e613519565b60008281526020812060001990920191600783020190612c6e8282612cb2565b50600181018054600160a060020a03199081169091556002820180549091169055600060038201819055600482018190556005820181905560069091015590555050565b508054612cbe906132c3565b6000825580601f10612cce575050565b601f016020900490600052602060002090810190612cec9190612cef565b50565b5b80821115612d045760008155600101612cf0565b5090565b600160a060020a0381168114612cec57600080fd5b60008060408385031215612d3057600080fd5b823591506020830135612d4281612d08565b809150509250929050565b60005b83811015612d68578181015183820152602001612d50565b50506000910152565b60008151808452612d89816020860160208601612d4d565b601f01601f19169290920160200192915050565b600060208083018184528085518083526040860191506040848202870101925083870160005b82811015612df157603f19888603018452612ddf858351612d71565b94509285019290850190600101612dc3565b5092979650505050505050565b60e060020a634e487b710260009081526041600452602490fd5b604051602081016001604060020a0381118282101715612e3a57612e3a612dfe565b60405290565b604051601f8201601f191681016001604060020a0381118282101715612e6857612e68612dfe565b604052919050565b60006001604060020a03821115612e8957612e89612dfe565b50601f01601f191660200190565b600082601f830112612ea857600080fd5b8135612ebb612eb682612e70565b612e40565b818152846020838601011115612ed057600080fd5b816020850160208301376000918101602001919091529392505050565b600060208284031215612eff57600080fd5b81356001604060020a03811115612f1557600080fd5b612f2184828501612e97565b949350505050565b600080600060608486031215612f3e57600080fd5b83356001604060020a03811115612f5457600080fd5b612f6086828701612e97565b935050602084013591506040840135612f7881612d08565b809150509250925092565b60208082528251828201819052600091906040908185019080840286018301878501865b8381101561302757603f19898403018552815160e08151818652612fcd82870182612d71565b838b0151600160a060020a03908116888d01528a850151168a880152606080850151908801526080808501519088015260a0808501519088015260c093840151939096019290925250509386019390860190600101612fa7565b509098975050505050505050565b60006020828403121561304757600080fd5b5035919050565b6000806040838503121561306157600080fd5b82356001604060020a0381111561307757600080fd5b61308385828601612e97565b9250506020830135612d4281612d08565b600080604083850312156130a757600080fd5b82356130b281612d08565b91506020830135612d4281612d08565b6000602082840312156130d457600080fd5b813561223781612d08565b600080600080608085870312156130f557600080fd5b84356001604060020a0381111561310b57600080fd5b61311787828801612e97565b945050602085013561312881612d08565b925060408501359150606085013561313f81612d08565b939692955090935050565b600160a060020a0391909116815260200190565b6000602080838503121561317157600080fd5b82516001604060020a038082111561318857600080fd5b818501915085601f83011261319c57600080fd5b8151818111156131ae576131ae612dfe565b83810291506131be848301612e40565b81815291830184019184810190888411156131d857600080fd5b938501935b8385101561321e5785858a0312156131f757600092508283fd5b6131ff612e18565b9250845161320c81612d08565b835282825293850193908501906131dd565b98975050505050505050565b60e060020a634e487b710260009081526032600452602490fd5b60e060020a634e487b710260009081526011600452602490fd5b60006001820161327057613270613244565b5060010190565b60208082526029908201527f6f6e6c792077616c6c6574206f776e6572732063616e2063616c6c2074686973604082015260b960020a6810333ab731ba34b7b702606082015260800190565b6002810460018216806132d757607f821691505b602082108103610a675760e060020a634e487b710260009081526022600452602490fd5b60208082526024908201527f6f6e6c7920746865207472616e736665722063726561746f722063616e206361604082015260e260020a631b98d95b02606082015260800190565b60008251613354818460208701612d4d565b9190910192915050565b8082018082111561337157613371613244565b92915050565b8181038181111561337157613371613244565b601f8211156133d4576000818152602081206020601f860104810160208610156133b15750805b6020601f860104820191505b818110156133d0578281556001016133bd565b5050505b505050565b6002808302600893909302900a6000190419161790565b8181036133fb575050565b61340582546132c3565b6001604060020a0381111561341c5761341c612dfe565b6134308161342a84546132c3565b8461338a565b6000601f82116001811461345e576000831561344c5750848201545b61345684826133d9565b8555506134c5565b600085815260209020601f19841690600086815260209020845b838110156134985782860154825560019586019590910190602001613478565b50858310156134b857818501546008601f88160260020a60001904191681555b5050506001600284020184555b5050505050565b60e0815260006134df60e083018a612d71565b600160a060020a0398891660208401529690971660408201526060810194909452608084019290925260a083015260c09091015292915050565b60e060020a634e487b710260009081526031600452602490fd5b6020808252601590820152605860020a74746f6b656e20646f6573206e6f742065786978747302604082015260600190565b600160a060020a03929092168252602082015260400190565b60006020828403121561359057600080fd5b8151801515811461223757600080fd5b60a0815260006135b360a0830188612d71565b600160a060020a039690961660208301525060408101939093526060830191909152608090910152919050565b60008083546135ee816132c3565b60018281168015613606576001811461361b5761364a565b60ff198416875282151583028701945061364a565b8760005260208060002060005b858110156136415781548a820152908401908201613628565b50505082870194505b50929695505050505050565b60006020828403121561366857600080fd5b81516001604060020a0381111561367e57600080fd5b8201601f8101841361368f57600080fd5b805161369d612eb682612e70565b8181528560208385010111156136b257600080fd5b6136c3826020830160208601612d4d565b95945050505050565b81516001604060020a038111156136e5576136e5612dfe565b6136f38161342a84546132c3565b602080601f83116001811461372257600084156137105750858301515b61371a85826133d9565b8655506133d0565b600085815260208120601f198616915b8281101561375157888601518255948401946001909101908401613732565b508582101561377157878501516008601f88160260020a60001904191681555b5050505050600202600101905550565b6000600160a060020a038087168352608060208401526137a46080840187612d71565b94166040830152506060015292915050565b600160a060020a0392831681529116602082015260400190565b600160a060020a03938416815291909216602082015260408101919091526060019056fe55514145c7ef4e1948f87e0eb4d28d3e34763f4d4cdf3bc449800860a9d0a00caaaebeba3810b1e6b70781f14b2d72c1cb89c0b2b320c43bb67ff79f562f5ff4a264697066735822122020f2c733d73c0979a8125ccfb45539ba2371118882f22be72b68f36b9987be7a64736f6c63430008110033",
  "immutableReferences": {},
  "source": "// SPDX-License-Identifier: MIT\npragma solidity ^0.8.10;\n\nimport \"@openzeppelin/contracts/token/ERC20/IERC20.sol\";\nimport \"@openzeppelin/contracts/token/ERC20/ERC20.sol\";\nimport \"./MultiSigFactory.sol\";\n\ncontract MultiSigWallet {\n\n    address admin;\n    address factoryContractAddress;\n    uint depositId;\n    uint withdrawalId;\n    uint transferId;\n    string[] tokenList;\n\n    constructor(address _factoryContractAddress) {\n        admin = msg.sender;\n        tokenList.push(\"ETH\");\n        factoryContractAddress = _factoryContractAddress;\n    }\n\n    mapping(address => mapping(string => uint)) balance;\n    mapping(address => mapping(uint => bool)) approvals;\n    mapping(string => Token) tokenMapping;\n\n    struct Token {\n\n        string ticker;\n        address tokenAddress;\n    }\n\n    struct Transfer {\n\n        string ticker;\n        address sender;\n        address payable receiver;\n        uint amount;\n        uint id;\n        uint approvals;\n        uint timeOfTransaction;\n    }\n\n    Transfer[] transferRequests;\n\n    event walletOwnerAdded(address addedBy, address ownerAdded, uint timeOfTransaction);\n    event walletOwnerRemoved(address removedBy, address ownerRemoved, uint timeOfTransaction);\n    event fundsDeposited(string ticker, address sender, uint amount, uint depositId, uint timeOfTransaction);\n    event fundsWithdrawed(string ticker, address sender, uint amount, uint withdrawalId, uint timeOfTransaction);\n    event transferCreated(string ticker, address sender, address receiver, uint amount, uint id, uint approvals, uint timeOfTransaction);\n    event transferCancelled(string ticker, address sender, address receiver, uint amount, uint id, uint approvals, uint timeOfTransaction);\n    event transferApproved(string ticker, address sender, address receiver, uint amount, uint id, uint approvals, uint timeOfTransaction);\n    event fundsTransfered(string ticker, address sender, address receiver, uint amount, uint id, uint approvals, uint timeOfTransaction);\n    event tokenAdded(address addedBy, string ticker, address tokenAddress, uint timeOfTransaction);\n\n    modifier onlyAdmin() {\n      require(msg.sender == admin, \"Only Contract Owner allowed\");\n      _;\n\n    }\n\n    modifier onlyOwners(address walletAddress) {\n       MultiSigFactory factory = MultiSigFactory(factoryContractAddress);\n\n       bool isOwner = false;\n       for (uint i = 0; i< factory.getWalletOwners(walletAddress).length; i++) {\n\n           if (factory.getWalletOwners(walletAddress)[i].owners == msg.sender) {\n\n               isOwner = true;\n               break;\n           }\n       }\n\n       require(isOwner == true, \"only wallet owners can call this function\");\n       _;\n\n    }\n\n    modifier tokenExists(string memory ticker) {\n\n        if(keccak256(bytes(ticker)) != keccak256(bytes(\"ETH\"))) {\n\n            require(tokenMapping[ticker].tokenAddress != address(0), \"token does not exixts\");\n        }\n        _;\n    }\n\n    function addToken(string memory ticker, address _tokenAddress) public onlyAdmin {\n\n        for (uint i = 0; i < tokenList.length; i++) {\n\n            require(keccak256(bytes(tokenList[i])) != keccak256(bytes(ticker)), \"cannot add duplicate tokens\");\n        }\n\n        require(keccak256(bytes(ERC20(_tokenAddress).symbol())) == keccak256(bytes(ticker)));\n\n        tokenMapping[ticker] = Token(ticker, _tokenAddress);\n\n        tokenList.push(ticker);\n\n        emit tokenAdded(msg.sender, ticker, _tokenAddress, block.timestamp);\n    }\n\n    function addWalletOwner(address owner, address walletAddress) public onlyOwners(walletAddress) {\n\n       MultiSigFactory factory = MultiSigFactory(factoryContractAddress);\n\n       for (uint i = 0; i < factory.getWalletOwners(walletAddress).length; i++) {\n\n           if(factory.getWalletOwners(walletAddress)[i].owners == owner) {\n\n               revert(\"cannot add duplicate owners\");\n           }\n       }\n\n       factory.addNewWalletInstance(owner, walletAddress);\n       emit walletOwnerAdded(msg.sender, owner, block.timestamp);\n\n    }\n\n    function removeWalletOwner(address owner, address walletAddress) public onlyOwners(walletAddress) {\n\n        MultiSigFactory factory = MultiSigFactory(factoryContractAddress);\n\n        factory.removeNewWalletInstance(owner, walletAddress);\n        emit walletOwnerRemoved(msg.sender, owner, block.timestamp);\n\n\n\n    }\n\n    function deposit(string memory ticker, uint amount, address walletAddress) public payable onlyOwners(walletAddress) tokenExists(ticker) {\n\n        require(balance[msg.sender][ticker] >= 0, \"cannot deposiit a calue of 0\");\n\n        if(keccak256(bytes(ticker)) == keccak256(bytes(\"ETH\"))) {\n\n            balance[msg.sender][\"ETH\"] += msg.value;\n\n        }\n\n        else {\n\n            balance[msg.sender][ticker] += amount;\n            IERC20(tokenMapping[ticker].tokenAddress).transferFrom(msg.sender, address(this), amount);\n\n        }\n\n        emit fundsDeposited(ticker, msg.sender, msg.value, depositId, block.timestamp);\n\n        depositId++;\n\n    }\n\n    function withdraw(string memory ticker, uint amount, address walletAddress) public onlyOwners(walletAddress) tokenExists(ticker) {\n\n        require(balance[msg.sender][ticker] >= amount);\n\n        balance[msg.sender][ticker] -= amount;\n\n        if(keccak256(bytes(ticker)) == keccak256(bytes(\"ETH\"))) {\n\n            payable(msg.sender).transfer(amount);\n        }\n\n        else {\n\n            IERC20(tokenMapping[ticker].tokenAddress).transfer(msg.sender, amount);\n\n        }\n\n        emit fundsWithdrawed(ticker, msg.sender, amount, withdrawalId, block.timestamp);\n\n        withdrawalId++;\n\n    }\n\n    function createTrnasferRequest(string memory ticker, address payable receiver, uint amount, address walletAddress) public onlyOwners(walletAddress) tokenExists(ticker) {\n\n        MultiSigFactory factory = MultiSigFactory(factoryContractAddress);\n\n        require(balance[msg.sender][ticker] >= amount, \"insufficent funds to create a transfer\");\n\n        for (uint i = 0; i < factory.getWalletOwners(walletAddress).length; i++) {\n\n            require(factory.getWalletOwners(walletAddress)[i].owners != receiver, \"cannot transfer funds withiwn the wallet\");\n        }\n\n        balance[msg.sender][ticker] -= amount;\n        transferRequests.push(Transfer(ticker, msg.sender, receiver, amount, transferId, 0, block.timestamp));\n        transferId++;\n        emit transferCreated(ticker, msg.sender, receiver, amount, transferId, 0, block.timestamp);\n    }\n\n    function cancelTransferRequest(uint id, address walletAddress) public onlyOwners(walletAddress) {\n\n        string memory ticker = transferRequests[id].ticker;\n        bool hasBeenFound = false;\n        uint transferIndex = 0;\n        for (uint i = 0; i < transferRequests.length; i++) {\n\n            if(transferRequests[i].id == id) {\n\n                hasBeenFound = true;\n                break;\n\n            }\n\n             transferIndex++;\n        }\n\n        require(transferRequests[transferIndex].sender == msg.sender, \"only the transfer creator can cancel\");\n        require(hasBeenFound, \"transfer request does not exist\");\n\n        balance[msg.sender][ticker] += transferRequests[transferIndex].amount;\n\n        transferRequests[transferIndex] = transferRequests[transferRequests.length - 1];\n\n        emit transferCancelled(ticker, msg.sender, transferRequests[transferIndex].receiver, transferRequests[transferIndex].amount, transferRequests[transferIndex].id, transferRequests[transferIndex].approvals, transferRequests[transferIndex].timeOfTransaction);\n        transferRequests.pop();\n    }\n\n    function approveTransferRequest(uint id, address walletAddress) public onlyOwners(walletAddress) {\n\n        string memory ticker = transferRequests[id].ticker;\n        bool hasBeenFound = false;\n        uint transferIndex = 0;\n        for (uint i = 0; i < transferRequests.length; i++) {\n\n            if(transferRequests[i].id == id) {\n\n                hasBeenFound = true;\n                break;\n\n            }\n\n             transferIndex++;\n        }\n\n        require(hasBeenFound, \"only the transfer creator can cancel\");\n        require(approvals[msg.sender][id] == false, \"cannot approve the same transfer twice\");\n        require(transferRequests[transferIndex].sender != msg.sender);\n\n        approvals[msg.sender][id] = true;\n        transferRequests[transferIndex].approvals++;\n\n        emit transferApproved(\n            ticker,\n            msg.sender,\n            transferRequests[transferIndex].receiver,\n            transferRequests[transferIndex].amount,\n            transferRequests[transferIndex].id,\n            transferRequests[transferIndex].approvals,\n            transferRequests[transferIndex].timeOfTransaction);\n\n        uint limit = getApprovalLimit(walletAddress);\n        if (transferRequests[transferIndex].approvals == limit) {\n\n            transferFunds(ticker, transferIndex);\n        }\n    }\n\n    function transferFunds(string memory ticker, uint id) private {\n\n        balance[transferRequests[id].receiver][ticker] += transferRequests[id].amount;\n\n        if(keccak256(bytes(ticker)) == keccak256(bytes(\"ETH\"))) {\n\n            transferRequests[id].receiver.transfer(transferRequests[id].amount);\n        }\n        else {\n\n            IERC20(tokenMapping[ticker].tokenAddress).transfer(transferRequests[id].receiver, transferRequests[id].amount);\n        }\n\n\n        emit fundsTransfered(ticker, msg.sender, transferRequests[id].receiver, transferRequests[id].amount, transferRequests[id].id, transferRequests[id].approvals, transferRequests[id].timeOfTransaction);\n\n        transferRequests[id] = transferRequests[transferRequests.length - 1];\n        transferRequests.pop();\n    }\n\n    function getApprovals(uint id) public view returns(bool) {\n\n        return approvals[msg.sender][id];\n    }\n\n    function getTransferRequests() public view returns(Transfer[] memory) {\n\n        return transferRequests;\n    }\n\n    function getBalance(string memory ticker) public view tokenExists(ticker) returns(uint) {\n\n        return balance[msg.sender][ticker];\n    }\n\n    function getApprovalLimit(address walletAddress) public view returns (uint) {\n        MultiSigFactory factory = MultiSigFactory(factoryContractAddress);\n\n        return factory.getWalletOwners(walletAddress).length - 1;\n    }\n\n    function getContractETHBalance() public view returns(uint) {\n\n        return address(this).balance;\n    }\n\n    function getContractERC20Balance(string memory ticker) public view tokenExists(ticker) returns(uint) {\n\n        return balance[address(this)][ticker];\n    }\n\n    function getTokenList() public view returns(string[] memory) {\n\n        return tokenList;\n    }\n\n}\n",
  "sourcePath": "/Users/paras/Documents/multisig-wallet/contracts/MultiSigWallet.sol",
  "compiler": {
    "name": "solc",
    "version": "0.8.17+commit.8df45f5f.Emscripten.clang"
  },
  "schemaVersion": "3.4.7",
  "updatedAt": "2022-09-15T10:10:34.246Z",
  "networkType": "ethereum",
  "devdoc": {
    "kind": "dev",
    "methods": {},
    "version": 1
  },
  "userdoc": {
    "kind": "user",
    "methods": {},
    "version": 1
  }
}