{
  "contractName": "MultiSigFactory",
  "abi": [
    {
      "anonymous": false,
      "inputs": [
        {
          "indexed": false,
          "internalType": "address",
          "name": "createdBy",
          "type": "address"
        },
        {
          "indexed": false,
          "internalType": "address",
          "name": "newWalletContractAddress",
          "type": "address"
        },
        {
          "indexed": false,
          "internalType": "uint256",
          "name": "timeOfTransaction",
          "type": "uint256"
        }
      ],
      "name": "WalletCreated",
      "type": "event"
    },
    {
      "inputs": [],
      "name": "createNewWallet",
      "outputs": [],
      "stateMutability": "nonpayable",
      "type": "function"
    },
    {
      "inputs": [
        {
          "internalType": "address",
          "name": "owner",
          "type": "address"
        },
        {
          "internalType": "address",
          "name": "walletAddress",
          "type": "address"
        }
      ],
      "name": "addNewWalletInstance",
      "outputs": [],
      "stateMutability": "nonpayable",
      "type": "function"
    },
    {
      "inputs": [
        {
          "internalType": "address",
          "name": "_owner",
          "type": "address"
        },
        {
          "internalType": "address",
          "name": "_walletAddress",
          "type": "address"
        }
      ],
      "name": "removeNewWalletInstance",
      "outputs": [],
      "stateMutability": "nonpayable",
      "type": "function"
    },
    {
      "inputs": [
        {
          "internalType": "address",
          "name": "owner",
          "type": "address"
        }
      ],
      "name": "getOwnerWallets",
      "outputs": [
        {
          "components": [
            {
              "internalType": "address",
              "name": "walletAddress",
              "type": "address"
            }
          ],
          "internalType": "struct MultiSigFactory.UserWallets[]",
          "name": "",
          "type": "tuple[]"
        }
      ],
      "stateMutability": "view",
      "type": "function",
      "constant": true
    },
    {
      "inputs": [
        {
          "internalType": "address",
          "name": "walletAddress",
          "type": "address"
        }
      ],
      "name": "getWalletOwners",
      "outputs": [
        {
          "components": [
            {
              "internalType": "address",
              "name": "owners",
              "type": "address"
            }
          ],
          "internalType": "struct MultiSigFactory.WalletUsers[]",
          "name": "",
          "type": "tuple[]"
        }
      ],
      "stateMutability": "view",
      "type": "function",
      "constant": true
    }
  ],
  "bytecode": "0x608060405234801561001057600080fd5b50614b8c806100206000396000f3fe60806040523480156200001157600080fd5b5060043610620000615760e060020a6000350463178f0d1c811462000066578063269ae8b11462000072578063628bf691146200010457806397596730146200011b578063bba4c191146200014a575b600080fd5b6200007062000170565b005b620000706200008336600462000639565b600160a060020a03918216600081815260036020908152604080832081518084018352958716808752815460018181018455928652848620975197018054978916600160a060020a03199889161790558452600483528184208251808501909352948252845490810185559383529120905191018054919093169116179055565b620000706200011536600462000639565b620002b5565b620001326200012c36600462000671565b6200051e565b604051620001419190620006a8565b60405180910390f35b620001616200015b36600462000671565b6200059d565b604051620001419190620006f5565b60003060405162000181906200060e565b600160a060020a039091168152602001604051809103906000f080158015620001ae573d6000803e3d6000fd5b506002805460018082019092557f405787fa12a823e0f2b7631cc41b3ba8828b3321ca811111fa75cd3aa3bb5ace018054600160a060020a03848116600160a060020a03199283168117909355336000818152600360209081526040808320815180840183528881528154808b018355828652848620915191018054918816918916919091179055878452600483528184208251808501845286815281549a8b01825581865294849020945194909901805494909616939096169290921790935580519182529181019390935242908301529293507f4459976dae5d173eda0ac09c39b840bed814c9d1e490e8b9ba23148e4b19a8379060600160405180910390a1505050565b600160a060020a03808316600090815260036020908152604080832093851683526004909152812090808080805b8654811015620003495787600160a060020a03168782815481106200030c576200030c62000736565b600091825260209091200154600160a060020a03160362000334576001945080935062000349565b8062000340816200076a565b915050620002e3565b5060005b8554811015620003b35788600160a060020a031686828154811062000376576200037662000736565b600091825260209091200154600160a060020a0316036200039e5760019250809150620003b3565b80620003aa816200076a565b9150506200034d565b5083620003bf57600080fd5b81620003ca57600080fd5b85548690620003dc9060019062000786565b81548110620003ef57620003ef62000736565b906000526020600020018684815481106200040e576200040e62000736565b60009182526020909120915491018054600160a060020a031916600160a060020a03909216919091179055845485906200044b9060019062000786565b815481106200045e576200045e62000736565b906000526020600020018582815481106200047d576200047d62000736565b60009182526020909120915491018054600160a060020a031916600160a060020a039092169190911790558454859080620004bc57620004bc620007a2565b60008281526020902081016000199081018054600160a060020a03191690550190558554869080620004f257620004f2620007a2565b60008281526020902081016000199081018054600160a060020a03191690550190555050505050505050565b600160a060020a0381166000908152600460209081526040808320805482518185028101850190935280835260609492939192909184015b82821015620005925760008481526020908190206040805180840190915290840154600160a060020a0316815282526001909201910162000556565b505050509050919050565b600160a060020a0381166000908152600360209081526040808320805482518185028101850190935280835260609492939192909184018215620005925760008481526020908190206040805180840190915290840154600160a060020a0316815282526001909201910162000556565b61439a80620007bd83390190565b8035600160a060020a03811681146200063457600080fd5b919050565b600080604083850312156200064d57600080fd5b62000658836200061c565b915062000668602084016200061c565b90509250929050565b6000602082840312156200068457600080fd5b6200068f826200061c565b9392505050565b51600160a060020a0316815260200190565b6020808252825182820181905260009190848201906040850190845b81811015620006e957620006da83855162000696565b938501939250600101620006c4565b50909695505050505050565b6020808252825182820181905260009190848201906040850190845b81811015620006e9576200072783855162000696565b93850193925060010162000711565b60e060020a634e487b710260009081526032600452602490fd5b60e060020a634e487b710260009081526011600452602490fd5b6000600182016200077f576200077f62000750565b5060010190565b818103818111156200079c576200079c62000750565b92915050565b60e060020a634e487b710260009081526031600452602490fdfe60806040523480156200001157600080fd5b506040516200439a3803806200439a8339810160408190526200003491620000de565b60008054600160a060020a0319163317815560058054600181018255915260408051808201909152600381527f455448000000000000000000000000000000000000000000000000000000000060208201527f036b6384b5eca791c62761152d0c79bb0604c104a5fb6f4eb0703f3154bb3db090910190620000b79082620001e7565b5060018054600160a060020a031916600160a060020a0392909216919091179055620002ba565b600060208284031215620000f157600080fd5b8151600160a060020a03811681146200010957600080fd5b9392505050565b7f4e487b7100000000000000000000000000000000000000000000000000000000600052604160045260246000fd5b6002810460018216806200015457607f821691505b6020821081036200018e577f4e487b7100000000000000000000000000000000000000000000000000000000600052602260045260246000fd5b50919050565b601f821115620001e2576000818152602081206020601f86010481016020861015620001bd5750805b6020601f860104820191505b81811015620001de57828155600101620001c9565b5050505b505050565b815167ffffffffffffffff81111562000204576200020462000110565b6200021c816200021584546200013f565b8462000194565b602080601f8311600181146200025857600084156200023b5750858301515b60028086026008870290910a6000190419821617865550620001de565b600085815260208120601f198616915b82811015620002895788860151825594840194600190910190840162000268565b5085821015620002aa57878501516008601f88160260020a60001904191681555b5050505050600202600101905550565b6140d080620002ca6000396000f3fe6080604052600436106100c65760e060020a6000350463064842ce81146100cb578063273cbaa0146100ed5780635cc596a1146101185780637804e7071461014657806389f4b317146101665780638c89a0ad146101865780638fcfe7281461019a578063926eeb30146101ba578063a04ef145146101cd578063a4e360c8146101ef578063b0b22c2c1461023a578063c682cce41461025a578063c81d42591461027c578063d63196e81461029c578063e7fb8639146102af578063f8394342146102cf575b600080fd5b3480156100d757600080fd5b506100eb6100e63660046134fe565b6102ef565b005b3480156100f957600080fd5b50610102610948565b60405161010f919061357e565b60405180910390f35b34801561012457600080fd5b506101386101333660046136ce565b610a21565b60405190815260200161010f565b34801561015257600080fd5b506100eb610161366004613714565b610aff565b34801561017257600080fd5b506101386101813660046136ce565b6110b9565b34801561019257600080fd5b503031610138565b3480156101a657600080fd5b506100eb6101b536600461376e565b61127d565b6100eb6101c83660046134fe565b611890565b3480156101d957600080fd5b506101e2611e16565b60405161010f91906137d9565b3480156101fb57600080fd5b5061022a61020a3660046138a8565b336000908152600760209081526040808320938352929052205460ff1690565b604051901515815260200161010f565b34801561024657600080fd5b506100eb6102553660046136ce565b611f5b565b34801561026657600080fd5b5061026f6121d3565b60405161010f91906138c1565b34801561028857600080fd5b506100eb61029736600461396d565b612385565b6100eb6102aa366004613714565b6125a1565b3480156102bb57600080fd5b506100eb6102ca36600461396d565b612b82565b3480156102db57600080fd5b506101386102ea36600461399b565b612f1a565b6001548190600160a060020a03166000805b60405160e460020a6309759673028152600160a060020a038416906397596730906103309087906004016139b8565b600060405180830381865afa15801561034d573d6000803e3d6000fd5b505050506040513d6000823e601f3d908101601f1916820160405261037591908101906139cc565b518110156104395760405160e460020a63097596730281523390600160a060020a038516906397596730906103ae9088906004016139b8565b600060405180830381865afa1580156103cb573d6000803e3d6000fd5b505050506040513d6000823e601f3d908101601f191682016040526103f391908101906139cc565b828151811061040457610404613a98565b602002602001015160000151600160a060020a0316036104275760019150610439565b8061043181613acc565b915050610301565b506001811515146104685760405160e560020a62461bcd02815260040161045f90613ae5565b60405180910390fd5b60008060005b600a548110156104cc5787600a828154811061048c5761048c613a98565b906000526020600020906008020160050154036104ac57600192506104cc565b816104b681613acc565b92505080806104c490613acc565b91505061046e565b506000600a82815481106104e2576104e2613a98565b906000526020600020906008020160000180546104fe90613b31565b80601f016020809104026020016040519081016040528092919081815260200182805461052a90613b31565b80156105775780601f1061054c57610100808354040283529160200191610577565b820191906000526020600020905b81548152906001019060200180831161055a57829003601f168201915b5050505050905033600160a060020a0316600a838154811061059b5761059b613a98565b6000918252602090912060016008909202010154600160a060020a0316146106175760405160e560020a62461bcd028152602060048201526024808201527f6f6e6c7920746865207472616e736665722063726561746f722063616e206361604482015260e260020a631b98d95b02606482015260840161045f565b826106675760405160e560020a62461bcd02815260206004820152601f60248201527f7472616e73666572207265717565737420646f6573206e6f7420657869737400604482015260640161045f565b600a828154811061067a5761067a613a98565b6000918252602080832060046008909302019190910154600160a060020a038a1683526006825260408084203385529092529181902090516106bd908490613b6f565b908152602001604051809103902060008282546106da9190613b8b565b9091555050600a80546106ef90600190613ba4565b815481106106ff576106ff613a98565b9060005260206000209060080201600a838154811061072057610720613a98565b600091825260209091206008909102018061073b8382613c1d565b506001828101549082018054600160a060020a03928316600160a060020a03199182161790915560028085015490840180549184169183169190911790556003808501549084018054919093169116179055600480830154908201556005808301549082015560068083015490820155600791820154910155600a80547f88ac4e01306872c0a5f289baf13af804eedb981db2018261cf8afed94bd9e19b918391339190869081106107ef576107ef613a98565b906000526020600020906008020160020160009054906101000a9004600160a060020a0316600a868154811061082757610827613a98565b906000526020600020906008020160040154600a878154811061084c5761084c613a98565b906000526020600020906008020160050154600a888154811061087157610871613a98565b906000526020600020906008020160060154600a898154811061089657610896613a98565b9060005260206000209060080201600701546040516108bb9796959493929190613cf9565b60405180910390a1600a8054806108d4576108d4613d46565b600082815260208120600019909201916008830201906108f48282613493565b50600181018054600160a060020a0319908116909155600282018054821690556003820180549091169055600060048201819055600582018190556006820181905560079091015590555050505050505050565b60606005805480602002602001604051908101604052809291908181526020016000905b82821015610a1857838290600052602060002001805461098b90613b31565b80601f01602080910402602001604051908101604052809291908181526020018280546109b790613b31565b8015610a045780601f106109d957610100808354040283529160200191610a04565b820191906000526020600020905b8154815290600101906020018083116109e757829003601f168201915b50505050508152602001906001019061096c565b50505050905090565b604080518082019091526003815260eb60020a6208aa8902602091820152825190830120600090839060008051602061407b83398151915214610ab5576000600160a060020a0316600882604051610a799190613b6f565b90815260405190819003602001902060010154600160a060020a031603610ab55760405160e560020a62461bcd02815260040161045f90613d60565b600160a060020a0383166000908152600660209081526040808320308452909152908190209051610ae7908690613b6f565b90815260200160405180910390205491505092915050565b6001548190600160a060020a03166000805b60405160e460020a6309759673028152600160a060020a03841690639759673090610b409087906004016139b8565b600060405180830381865afa158015610b5d573d6000803e3d6000fd5b505050506040513d6000823e601f3d908101601f19168201604052610b8591908101906139cc565b51811015610c495760405160e460020a63097596730281523390600160a060020a03851690639759673090610bbe9088906004016139b8565b600060405180830381865afa158015610bdb573d6000803e3d6000fd5b505050506040513d6000823e601f3d908101601f19168201604052610c0391908101906139cc565b8281518110610c1457610c14613a98565b602002602001015160000151600160a060020a031603610c375760019150610c49565b80610c4181613acc565b915050610b11565b50600181151514610c6f5760405160e560020a62461bcd02815260040161045f90613ae5565b604080518082019091526003815260eb60020a6208aa8902602091820152865190870120869060008051602061407b83398151915214610d00576000600160a060020a0316600882604051610cc49190613b6f565b90815260405190819003602001902060010154600160a060020a031603610d005760405160e560020a62461bcd02815260040161045f90613d60565b600160a060020a0385166000908152600660209081526040808320338452909152908190209051879190610d35908a90613b6f565b9081526020016040518091039020541015610d4f57600080fd5b600160a060020a0385166000908152600660209081526040808320338452909152908190209051879190610d84908a90613b6f565b90815260200160405180910390206000828254610da19190613ba4565b9091555050604080518082019091526003815260eb60020a6208aa890260209182015287519088012060008051602061403b83398151915201610e1157604051339087156108fc029088906000818181858888f19350505050158015610e0b573d6000803e3d6000fd5b50610f67565b6000600888604051610e239190613b6f565b9081526040519081900360200181206001015460e060020a6370a08231028252600160a060020a03169150879082906370a0823190610e669030906004016139b8565b602060405180830381865afa158015610e83573d6000803e3d6000fd5b505050506040513d601f19601f82011682018060405250810190610ea79190613d92565b1015610ef05760405160e560020a62461bcd0281526020600482015260126024820152607160020a7124b739bab33334b1b4b2b73a102a37b5b2b702604482015260640161045f565b60405160e060020a63a9059cbb028152600160a060020a0382169063a9059cbb90610f219033908b90600401613dab565b6020604051808303816000875af1158015610f40573d6000803e3d6000fd5b505050506040513d601f19601f82011682018060405250810190610f649190613dc4565b50505b7f6a647eacc9e98792655e8dba08e3167440b93e02ef76e8e3330fa10a27b4ecbf87338860035442604051610fa0959493929190613de6565b60405180910390a16040805160c08101825288815233602080830191909152600160a060020a038816828401526060820189905242608083015282518084019093526008835260c060020a675769746864726177029083015260a0810191909152600980546001810182556000919091528151600690910260008051602061405b833981519152019081906110359082613e26565b506020820151600182018054600160a060020a03928316600160a060020a0319918216179091556040840151600284018054919093169116179055606082015160038201556080820151600482015560a082015160058201906110989082613e26565b505060038054915060006110ab83613acc565b919050555050505050505050565b604080518082019091526003815260eb60020a6208aa8902602091820152825190830120600090839060008051602061407b8339815191521461114d576000600160a060020a03166008826040516111119190613b6f565b90815260405190819003602001902060010154600160a060020a03160361114d5760405160e560020a62461bcd02815260040161045f90613d60565b60015460405160e460020a6309759673028152600160a060020a0390911690600090819083906397596730906111879089906004016139b8565b600060405180830381865afa1580156111a4573d6000803e3d6000fd5b505050506040513d6000823e601f3d908101601f191682016040526111cc91908101906139cc565b905060005b815181101561127157600160a060020a0387166000908152600660205260408120835190919084908490811061120957611209613a98565b602002602001015160000151600160a060020a0316600160a060020a03168152602001908152602001600020886040516112439190613b6f565b9081526020016040518091039020548361125d9190613b8b565b92508061126981613acc565b9150506111d1565b50909695505050505050565b6001548190600160a060020a03166000805b60405160e460020a6309759673028152600160a060020a038416906397596730906112be9087906004016139b8565b600060405180830381865afa1580156112db573d6000803e3d6000fd5b505050506040513d6000823e601f3d908101601f1916820160405261130391908101906139cc565b518110156113c75760405160e460020a63097596730281523390600160a060020a0385169063975967309061133c9088906004016139b8565b600060405180830381865afa158015611359573d6000803e3d6000fd5b505050506040513d6000823e601f3d908101601f1916820160405261138191908101906139cc565b828151811061139257611392613a98565b602002602001015160000151600160a060020a0316036113b557600191506113c7565b806113bf81613acc565b91505061128f565b506001811515146113ed5760405160e560020a62461bcd02815260040161045f90613ae5565b604080518082019091526003815260eb60020a6208aa8902602091820152875190880120879060008051602061407b8339815191521461147e576000600160a060020a03166008826040516114429190613b6f565b90815260405190819003602001902060010154600160a060020a03160361147e5760405160e560020a62461bcd02815260040161045f90613d60565b600154600160a060020a038681166000908152600660209081526040808320338452909152908190209051919092169188916114bb908c90613b6f565b908152602001604051809103902054101561152d5760405160e560020a62461bcd02815260206004820152602660248201527f696e737566666963656e742066756e647320746f206372656174652061207472604482015260d160020a6530b739b332b902606482015260840161045f565b60005b60405160e460020a6309759673028152600160a060020a0383169063975967309061155f908a906004016139b8565b600060405180830381865afa15801561157c573d6000803e3d6000fd5b505050506040513d6000823e601f3d908101601f191682016040526115a491908101906139cc565b518110156116c65788600160a060020a031682600160a060020a03166397596730896040518263ffffffff1660e060020a0281526004016115e591906139b8565b600060405180830381865afa158015611602573d6000803e3d6000fd5b505050506040513d6000823e601f3d908101601f1916820160405261162a91908101906139cc565b828151811061163b5761163b613a98565b602002602001015160000151600160a060020a0316036116b45760405160e560020a62461bcd02815260206004820152602860248201527f63616e6e6f74207472616e736665722066756e6473207769746869776e207468604482015260c260020a6719481dd85b1b195d02606482015260840161045f565b806116be81613acc565b915050611530565b50600160a060020a03861660009081526006602090815260408083203384529091529081902090518891906116fc908c90613b6f565b908152602001604051809103902060008282546117199190613ba4565b909155505060408051610100810182528a8152336020820152600160a060020a038a81169282019290925290871660608201526080810188905260045460a0820152600060c082018190524260e0830152600a80546001810182559152815160089091027fc65a7bb8d6351c1cf70c95a316cc6a92839c986682d98bc35f958f4883f9d2a8019081906117ac9082613e26565b506020820151600182018054600160a060020a03928316600160a060020a03199182161790915560408401516002840180549184169183169190911790556060840151600384018054919093169116179055608082015160048083019190915560a0830151600583015560c0830151600683015560e090920151600790910155805490600061183a83613acc565b91905055507f9cc5df05955d08828d561f92ad3f6b82c78a55cf7d3dedacffacc4f694faf9be89338a8a60045460004260405161187d9796959493929190613cf9565b60405180910390a1505050505050505050565b6001548190600160a060020a03166000805b60405160e460020a6309759673028152600160a060020a038416906397596730906118d19087906004016139b8565b600060405180830381865afa1580156118ee573d6000803e3d6000fd5b505050506040513d6000823e601f3d908101601f1916820160405261191691908101906139cc565b518110156119da5760405160e460020a63097596730281523390600160a060020a0385169063975967309061194f9088906004016139b8565b600060405180830381865afa15801561196c573d6000803e3d6000fd5b505050506040513d6000823e601f3d908101601f1916820160405261199491908101906139cc565b82815181106119a5576119a5613a98565b602002602001015160000151600160a060020a0316036119c857600191506119da565b806119d281613acc565b9150506118a2565b50600181151514611a005760405160e560020a62461bcd02815260040161045f90613ae5565b60008060005b600a54811015611a645787600a8281548110611a2457611a24613a98565b90600052602060002090600802016005015403611a445760019250611a64565b81611a4e81613acc565b9250508080611a5c90613acc565b915050611a06565b506000600a8281548110611a7a57611a7a613a98565b90600052602060002090600802016000018054611a9690613b31565b80601f0160208091040260200160405190810160405280929190818152602001828054611ac290613b31565b8015611b0f5780601f10611ae457610100808354040283529160200191611b0f565b820191906000526020600020905b815481529060010190602001808311611af257829003601f168201915b5050505050905082611b585760405160e560020a62461bcd02815260206004820152600c602482015260a260020a6b1d1e081b9bdd08199bdd5b9902604482015260640161045f565b3360009081526007602090815260408083208b845290915290205460ff1615611bd85760405160e560020a62461bcd02815260206004820152602660248201527f63616e6e6f7420617070726f7665207468652073616d65207472616e73666572604482015260d060020a6520747769636502606482015260840161045f565b33600160a060020a0316600a8381548110611bf557611bf5613a98565b6000918252602090912060016008909202010154600160a060020a031603611c625760405160e560020a62461bcd02815260206004820152601f60248201527f5472616e736665722063726561746f722063616e6e6f7420617070726f766500604482015260640161045f565b3360009081526007602090815260408083208b84529091529020805460ff19166001179055600a805483908110611c9b57611c9b613a98565b600091825260208220600660089092020101805491611cb983613acc565b91905055507fead8052a59bd99f1b0115f4da8e862ebc15be06d11ad168b737b8e6dae0886c88133600a8581548110611cf457611cf4613a98565b906000526020600020906008020160020160009054906101000a9004600160a060020a0316600a8681548110611d2c57611d2c613a98565b906000526020600020906008020160040154600a8781548110611d5157611d51613a98565b906000526020600020906008020160050154600a8881548110611d7657611d76613a98565b906000526020600020906008020160060154600a8981548110611d9b57611d9b613a98565b906000526020600020906008020160070154604051611dc09796959493929190613cf9565b60405180910390a16000611dd388612f1a565b905080600a8481548110611de957611de9613a98565b90600052602060002090600802016006015403611e0b57611e0b82848a612fab565b505050505050505050565b6060600a805480602002602001604051908101604052809291908181526020016000905b82821015610a18578382906000526020600020906008020160405180610100016040529081600082018054611e6e90613b31565b80601f0160208091040260200160405190810160405280929190818152602001828054611e9a90613b31565b8015611ee75780601f10611ebc57610100808354040283529160200191611ee7565b820191906000526020600020905b815481529060010190602001808311611eca57829003601f168201915b5050509183525050600182810154600160a060020a039081166020808501919091526002850154821660408501526003850154909116606084015260048401546080840152600584015460a0840152600684015460c084015260079093015460e09092019190915291835292019101611e3a565b600054600160a060020a03163314611fb85760405160e560020a62461bcd02815260206004820152601b60248201527f4f6e6c7920436f6e7472616374204f776e657220616c6c6f7765640000000000604482015260640161045f565b60005b60055481101561206157828051906020012060058281548110611fe057611fe0613a98565b90600052602060002001604051611ff79190613edb565b60405180910390200361204f5760405160e560020a62461bcd02815260206004820152601b60248201527f63616e6e6f7420616464206475706c696361746520746f6b656e730000000000604482015260640161045f565b8061205981613acc565b915050611fbb565b50818051906020012081600160a060020a03166395d89b416040518163ffffffff1660e060020a028152600401600060405180830381865afa1580156120ab573d6000803e3d6000fd5b505050506040513d6000823e601f3d908101601f191682016040526120d39190810190613f51565b80519060200120146120e457600080fd5b604051806040016040528083815260200182600160a060020a03168152506008836040516121129190613b6f565b9081526040519081900360200190208151819061212f9082613e26565b506020919091015160019182018054600160a060020a031916600160a060020a039092169190911790556005805491820181556000527f036b6384b5eca791c62761152d0c79bb0604c104a5fb6f4eb0703f3154bb3db0016121918382613e26565b507fe6887a88bb2477605d9b68e33f64a263587018a6a232f3b234ba1b78c96b84f2338383426040516121c79493929190613fc7565b60405180910390a15050565b60606009805480602002602001604051908101604052809291908181526020016000905b82821015610a1857838290600052602060002090600602016040518060c001604052908160008201805461222a90613b31565b80601f016020809104026020016040519081016040528092919081815260200182805461225690613b31565b80156122a35780601f10612278576101008083540402835291602001916122a3565b820191906000526020600020905b81548152906001019060200180831161228657829003601f168201915b50505091835250506001820154600160a060020a0390811660208301526002830154166040820152600382015460608201526004820154608082015260058201805460a0909201916122f490613b31565b80601f016020809104026020016040519081016040528092919081815260200182805461232090613b31565b801561236d5780601f106123425761010080835404028352916020019161236d565b820191906000526020600020905b81548152906001019060200180831161235057829003601f168201915b505050505081525050815260200190600101906121f7565b6001548190600160a060020a03166000805b60405160e460020a6309759673028152600160a060020a038416906397596730906123c69087906004016139b8565b600060405180830381865afa1580156123e3573d6000803e3d6000fd5b505050506040513d6000823e601f3d908101601f1916820160405261240b91908101906139cc565b518110156124cf5760405160e460020a63097596730281523390600160a060020a038516906397596730906124449088906004016139b8565b600060405180830381865afa158015612461573d6000803e3d6000fd5b505050506040513d6000823e601f3d908101601f1916820160405261248991908101906139cc565b828151811061249a5761249a613a98565b602002602001015160000151600160a060020a0316036124bd57600191506124cf565b806124c781613acc565b915050612397565b506001811515146124f55760405160e560020a62461bcd02815260040161045f90613ae5565b60015460405160e060020a63628bf691028152600160a060020a0390911690819063628bf6919061252c9089908990600401613ffc565b600060405180830381600087803b15801561254657600080fd5b505af115801561255a573d6000803e3d6000fd5b505050507fd1f329271e4a98b0181a7d91618a0a5de6f42a1aaf4c1362493d829eaf405a8a33874260405161259193929190614016565b60405180910390a1505050505050565b6001548190600160a060020a03166000805b60405160e460020a6309759673028152600160a060020a038416906397596730906125e29087906004016139b8565b600060405180830381865afa1580156125ff573d6000803e3d6000fd5b505050506040513d6000823e601f3d908101601f1916820160405261262791908101906139cc565b518110156126eb5760405160e460020a63097596730281523390600160a060020a038516906397596730906126609088906004016139b8565b600060405180830381865afa15801561267d573d6000803e3d6000fd5b505050506040513d6000823e601f3d908101601f191682016040526126a591908101906139cc565b82815181106126b6576126b6613a98565b602002602001015160000151600160a060020a0316036126d957600191506126eb565b806126e381613acc565b9150506125b3565b506001811515146127115760405160e560020a62461bcd02815260040161045f90613ae5565b604080518082019091526003815260eb60020a6208aa8902602091820152865190870120869060008051602061407b833981519152146127a2576000600160a060020a03166008826040516127669190613b6f565b90815260405190819003602001902060010154600160a060020a0316036127a25760405160e560020a62461bcd02815260040161045f90613d60565b600160a060020a038516600090815260066020908152604080832033845290915280822090516127d3908a90613b6f565b90815260200160405180910390205410156128335760405160e560020a62461bcd02815260206004820152601c60248201527f63616e6e6f74206465706f7369697420612063616c7565206f66203000000000604482015260640161045f565b604080518082019091526003815260eb60020a6208aa890260209182015287519088012060008051602061403b833981519152016128cc57600160a060020a038516600090815260066020908152604080832033845290915290819020905160eb60020a6208aa89028152349190600301908152602001604051809103902060008282546128c19190613b8b565b90915550612a3f9050565b600160a060020a0385166000908152600660209081526040808320338452909152908190209051879190612901908a90613b6f565b9081526020016040518091039020600082825461291e9190613b8b565b9250508190555060006008886040516129379190613b6f565b9081526040519081900360200181206001015460e060020a6370a08231028252600160a060020a03169150879082906370a082319061297a9033906004016139b8565b602060405180830381865afa158015612997573d6000803e3d6000fd5b505050506040513d601f19601f820116820180604052508101906129bb9190613d92565b10156129c657600080fd5b60405160e060020a6323b872dd028152600160a060020a038216906323b872dd906129f990339030908c90600401614016565b6020604051808303816000875af1158015612a18573d6000803e3d6000fd5b505050506040513d601f19601f82011682018060405250810190612a3c9190613dc4565b50505b7f41751252894a74bd975de630158c4e47bb25c36d9ce7ad90383d86d391d2be1287333460025442604051612a78959493929190613de6565b60405180910390a16040805160c08101825288815233602080830191909152600160a060020a038816828401526060820189905242608083015282518084019093526007835260ca60020a6611195c1bdcda5d029083015260a0810191909152600980546001810182556000919091528151600690910260008051602061405b83398151915201908190612b0c9082613e26565b506020820151600182018054600160a060020a03928316600160a060020a0319918216179091556040840151600284018054919093169116179055606082015160038201556080820151600482015560a08201516005820190612b6f9082613e26565b505060028054915060006110ab83613acc565b6001548190600160a060020a03166000805b60405160e460020a6309759673028152600160a060020a03841690639759673090612bc39087906004016139b8565b600060405180830381865afa158015612be0573d6000803e3d6000fd5b505050506040513d6000823e601f3d908101601f19168201604052612c0891908101906139cc565b51811015612ccc5760405160e460020a63097596730281523390600160a060020a03851690639759673090612c419088906004016139b8565b600060405180830381865afa158015612c5e573d6000803e3d6000fd5b505050506040513d6000823e601f3d908101601f19168201604052612c8691908101906139cc565b8281518110612c9757612c97613a98565b602002602001015160000151600160a060020a031603612cba5760019150612ccc565b80612cc481613acc565b915050612b94565b50600181151514612cf25760405160e560020a62461bcd02815260040161045f90613ae5565b600154600160a060020a031660005b60405160e460020a6309759673028152600160a060020a03831690639759673090612d309089906004016139b8565b600060405180830381865afa158015612d4d573d6000803e3d6000fd5b505050506040513d6000823e601f3d908101601f19168201604052612d7591908101906139cc565b51811015612e835786600160a060020a031682600160a060020a03166397596730886040518263ffffffff1660e060020a028152600401612db691906139b8565b600060405180830381865afa158015612dd3573d6000803e3d6000fd5b505050506040513d6000823e601f3d908101601f19168201604052612dfb91908101906139cc565b8281518110612e0c57612e0c613a98565b602002602001015160000151600160a060020a031603612e715760405160e560020a62461bcd02815260206004820152601b60248201527f63616e6e6f7420616464206475706c6963617465206f776e6572730000000000604482015260640161045f565b80612e7b81613acc565b915050612d01565b5060405160e060020a63269ae8b1028152600160a060020a0382169063269ae8b190612eb59089908990600401613ffc565b600060405180830381600087803b158015612ecf57600080fd5b505af1158015612ee3573d6000803e3d6000fd5b505050507f43abcff3409244ec1056224394af5f818e9a74866f0a11bfee2ad52f68ad6fb933874260405161259193929190614016565b6001805460405160e460020a6309759673028152600092600160a060020a0390921691908290639759673090612f549087906004016139b8565b600060405180830381865afa158015612f71573d6000803e3d6000fd5b505050506040513d6000823e601f3d908101601f19168201604052612f9991908101906139cc565b51612fa49190613ba4565b9392505050565b600a8281548110612fbe57612fbe613a98565b9060005260206000209060080201600401546006600083600160a060020a0316600160a060020a031681526020019081526020016000206000600a858154811061300a5761300a613a98565b6000918252602080832060026008909302019190910154600160a060020a0316835282019290925260409081019091209051613047908690613b6f565b908152602001604051809103902060008282546130649190613b8b565b9091555050604080518082019091526003815260eb60020a6208aa890260209182015283519084012060008051602061403b8339815191520161313b57600a82815481106130b4576130b4613a98565b906000526020600020906008020160020160009054906101000a9004600160a060020a0316600160a060020a03166108fc600a84815481106130f8576130f8613a98565b9060005260206000209060080201600401549081150290604051600060405180830381858888f19350505050158015613135573d6000803e3d6000fd5b50613234565b60088360405161314b9190613b6f565b90815260405190819003602001902060010154600a8054600160a060020a039092169163a9059cbb91908590811061318557613185613a98565b906000526020600020906008020160020160009054906101000a9004600160a060020a0316600a85815481106131bd576131bd613a98565b9060005260206000209060080201600401546040518363ffffffff1660e060020a0281526004016131ef929190613dab565b6020604051808303816000875af115801561320e573d6000803e3d6000fd5b505050506040513d601f19601f820116820180604052508101906132329190613dc4565b505b7fdeea4c72b502b4bd7dce3c793e57c46bb32f3b2f66613d54a765e7585f520a2c8333600a858154811061326a5761326a613a98565b906000526020600020906008020160020160009054906101000a9004600160a060020a0316600a86815481106132a2576132a2613a98565b906000526020600020906008020160040154600a87815481106132c7576132c7613a98565b906000526020600020906008020160050154600a88815481106132ec576132ec613a98565b906000526020600020906008020160060154600a898154811061331157613311613a98565b9060005260206000209060080201600701546040516133369796959493929190613cf9565b60405180910390a1600a805461334e90600190613ba4565b8154811061335e5761335e613a98565b9060005260206000209060080201600a838154811061337f5761337f613a98565b600091825260209091206008909102018061339a8382613c1d565b506001828101549082018054600160a060020a03928316600160a060020a03199182161790915560028085015490840180549184169183169190911790556003808501549084018054919093169116179055600480830154908201556005808301549082015560068083015490820155600791820154910155600a80548061342457613424613d46565b600082815260208120600019909201916008830201906134448282613493565b50600181018054600160a060020a031990811690915560028201805482169055600382018054909116905560006004820181905560058201819055600682018190556007909101559055505050565b50805461349f90613b31565b6000825580601f106134af575050565b601f0160209004906000526020600020908101906134cd91906134d0565b50565b5b808211156134e557600081556001016134d1565b5090565b600160a060020a03811681146134cd57600080fd5b6000806040838503121561351157600080fd5b823591506020830135613523816134e9565b809150509250929050565b60005b83811015613549578181015183820152602001613531565b50506000910152565b6000815180845261356a81602086016020860161352e565b601f01601f19169290920160200192915050565b600060208083018184528085518083526040860191506040848202870101925083870160005b828110156135d257603f198886030184526135c0858351613552565b945092850192908501906001016135a4565b5092979650505050505050565b60e060020a634e487b710260009081526041600452602490fd5b604051602081016001604060020a038111828210171561361b5761361b6135df565b60405290565b604051601f8201601f191681016001604060020a0381118282101715613649576136496135df565b604052919050565b60006001604060020a0382111561366a5761366a6135df565b50601f01601f191660200190565b600082601f83011261368957600080fd5b813561369c61369782613651565b613621565b8181528460208386010111156136b157600080fd5b816020850160208301376000918101602001919091529392505050565b600080604083850312156136e157600080fd5b82356001604060020a038111156136f757600080fd5b61370385828601613678565b9250506020830135613523816134e9565b60008060006060848603121561372957600080fd5b83356001604060020a0381111561373f57600080fd5b61374b86828701613678565b935050602084013591506040840135613763816134e9565b809150509250925092565b6000806000806080858703121561378457600080fd5b84356001604060020a0381111561379a57600080fd5b6137a687828801613678565b94505060208501356137b7816134e9565b92506040850135915060608501356137ce816134e9565b939692955090935050565b60208082528251828201819052600091906040908185019080840286018301878501865b8381101561389a57603f198984030185528151610100815181865261382482870182613552565b838b0151600160a060020a03908116888d01528a850151168a880152606080850151919350915061385f82880182600160a060020a03169052565b50506080828101519086015260a0808301519086015260c0808301519086015260e091820151919094015293860193908601906001016137fd565b509098975050505050505050565b6000602082840312156138ba57600080fd5b5035919050565b60208082528251828201819052600091906040908185019080840286018301878501865b8381101561389a57603f19898403018552815160c0815181865261390b82870182613552565b838b0151600160a060020a03908116888d01528a850151168a880152606080850151908801526080808501519088015260a09384015187820394880194909452915061395990508183613552565b9689019694505050908601906001016138e5565b6000806040838503121561398057600080fd5b823561398b816134e9565b91506020830135613523816134e9565b6000602082840312156139ad57600080fd5b8135612fa4816134e9565b600160a060020a0391909116815260200190565b600060208083850312156139df57600080fd5b82516001604060020a03808211156139f657600080fd5b818501915085601f830112613a0a57600080fd5b815181811115613a1c57613a1c6135df565b8381029150613a2c848301613621565b8181529183018401918481019088841115613a4657600080fd5b938501935b83851015613a8c5785858a031215613a6557600092508283fd5b613a6d6135f9565b92508451613a7a816134e9565b83528282529385019390850190613a4b565b98975050505050505050565b60e060020a634e487b710260009081526032600452602490fd5b60e060020a634e487b710260009081526011600452602490fd5b600060018201613ade57613ade613ab2565b5060010190565b60208082526029908201527f6f6e6c792077616c6c6574206f776e6572732063616e2063616c6c2074686973604082015260b960020a6810333ab731ba34b7b702606082015260800190565b600281046001821680613b4557607f821691505b602082108103613b695760e060020a634e487b710260009081526022600452602490fd5b50919050565b60008251613b8181846020870161352e565b9190910192915050565b80820180821115613b9e57613b9e613ab2565b92915050565b81810381811115613b9e57613b9e613ab2565b601f821115613c01576000818152602081206020601f86010481016020861015613bde5750805b6020601f860104820191505b81811015613bfd57828155600101613bea565b5050505b505050565b6002808302600893909302900a6000190419161790565b818103613c28575050565b613c328254613b31565b6001604060020a03811115613c4957613c496135df565b613c5d81613c578454613b31565b84613bb7565b6000601f821160018114613c8b5760008315613c795750848201545b613c838482613c06565b855550613cf2565b600085815260209020601f19841690600086815260209020845b83811015613cc55782860154825560019586019590910190602001613ca5565b5085831015613ce557818501546008601f88160260020a60001904191681555b5050506001600284020184555b5050505050565b60e081526000613d0c60e083018a613552565b600160a060020a0398891660208401529690971660408201526060810194909452608084019290925260a083015260c09091015292915050565b60e060020a634e487b710260009081526031600452602490fd5b6020808252601590820152605860020a74746f6b656e20646f6573206e6f742065786978747302604082015260600190565b600060208284031215613da457600080fd5b5051919050565b600160a060020a03929092168252602082015260400190565b600060208284031215613dd657600080fd5b81518015158114612fa457600080fd5b60a081526000613df960a0830188613552565b600160a060020a039690961660208301525060408101939093526060830191909152608090910152919050565b81516001604060020a03811115613e3f57613e3f6135df565b613e4d81613c578454613b31565b602080601f831160018114613e7c5760008415613e6a5750858301515b613e748582613c06565b865550613bfd565b600085815260208120601f198616915b82811015613eab57888601518255948401946001909101908401613e8c565b5085821015613ecb57878501516008601f88160260020a60001904191681555b5050505050600202600101905550565b6000808354613ee981613b31565b60018281168015613f015760018114613f1657613f45565b60ff1984168752821515830287019450613f45565b8760005260208060002060005b85811015613f3c5781548a820152908401908201613f23565b50505082870194505b50929695505050505050565b600060208284031215613f6357600080fd5b81516001604060020a03811115613f7957600080fd5b8201601f81018413613f8a57600080fd5b8051613f9861369782613651565b818152856020838501011115613fad57600080fd5b613fbe82602083016020860161352e565b95945050505050565b6000600160a060020a03808716835260806020840152613fea6080840187613552565b94166040830152506060015292915050565b600160a060020a0392831681529116602082015260400190565b600160a060020a03938416815291909216602082015260408101919091526060019056fe55514145c7ef4e1948f87e0eb4d28d3e34763f4d4cdf3bc449800860a9d0a00c6e1540171b6c0c960b71a7020d9f60077f6af931a8bbf590da0223dacf75c7afaaaebeba3810b1e6b70781f14b2d72c1cb89c0b2b320c43bb67ff79f562f5ff4a2646970667358221220e33455309bf65d07f7b11430ab6cf34e960e33ca7497e9051c378ae13b910efb64736f6c63430008110033a2646970667358221220c05c99e2f96a06386b7033804a2a180231e57eab565aa5dbc32a3d201450fb1264736f6c63430008110033",
  "immutableReferences": {},
  "source": "// SPDX-License-Identifier: MIT\npragma solidity ^0.8.10;\nimport \"./MultiSigWallet.sol\";\n\ncontract MultiSigFactory {\n\n    struct UserWallets{\n\n        address walletAddress;\n    }\n\n    struct WalletUsers{\n\n        address owners;\n    }\n\n    UserWallets[] userWallets;\n    WalletUsers[] walletUsers;\n    MultiSigWallet[] multisigWalletIntances;\n\n    mapping(address => UserWallets[]) ownersWallets;\n    mapping(address => WalletUsers[]) walletOwners;\n\n    event WalletCreated(address createdBy, address newWalletContractAddress, uint timeOfTransaction);\n\n    function createNewWallet() public {\n\n        MultiSigWallet newMultisigWalletContract = new MultiSigWallet(address(this));\n        multisigWalletIntances.push(newMultisigWalletContract);\n\n        UserWallets[] storage newWallet = ownersWallets[msg.sender];\n        newWallet.push(UserWallets(address(newMultisigWalletContract)));\n\n        WalletUsers[] storage newOwner = walletOwners[address(newMultisigWalletContract)];\n        newOwner.push(WalletUsers(msg.sender));\n\n        emit WalletCreated(msg.sender, address(newMultisigWalletContract), block.timestamp);\n\n    }\n\n    function addNewWalletInstance(address owner, address walletAddress) external {\n\n        UserWallets[] storage newWallet = ownersWallets[owner];\n        newWallet.push(UserWallets(walletAddress));\n\n        WalletUsers[] storage newOwner = walletOwners[walletAddress];\n        newOwner.push(WalletUsers(owner));\n\n    }\n\n    function removeNewWalletInstance(address _owner, address _walletAddress) external {\n\n        UserWallets[] storage newWallet = ownersWallets[_owner];\n        WalletUsers[] storage newOwner = walletOwners[_walletAddress];\n\n        bool walletHasBeenFound = false;\n        uint walletIndex;\n        bool ownerHasBeenFound = false;\n        uint ownerIndex;\n        for (uint i = 0; i < newWallet.length; i++) {\n\n            if(newWallet[i].walletAddress == _walletAddress) {\n\n                walletHasBeenFound = true;\n                walletIndex = i;\n                break;\n            }\n\n        }\n\n        for (uint i = 0; i < newOwner.length; i++) {\n\n            if(newOwner[i].owners == _owner) {\n\n                ownerHasBeenFound = true;\n                ownerIndex = i;\n                break;\n            }\n\n        }\n\n        require(walletHasBeenFound);\n        require(ownerHasBeenFound);\n\n        newWallet[walletIndex] = newWallet[newWallet.length - 1];\n        newOwner[ownerIndex] = newOwner[newOwner.length - 1];\n\n        newOwner.pop();\n        newWallet.pop();\n\n\n    }\n\n    function getOwnerWallets(address owner) public view returns(UserWallets[] memory) {\n\n        return ownersWallets[owner];\n    }\n\n    function getWalletOwners(address walletAddress) public view returns(WalletUsers[] memory) {\n\n        return walletOwners[walletAddress];\n    }\n\n}\n",
  "sourcePath": "/Users/paras/Documents/multisig-wallet/contracts/MultiSigFactory.sol",
  "compiler": {
    "name": "solc",
    "version": "0.8.17+commit.8df45f5f.Emscripten.clang"
  },
  "schemaVersion": "3.4.7",
  "updatedAt": "2022-09-19T11:51:27.935Z",
  "networkType": "ethereum",
  "devdoc": {
    "kind": "dev",
    "methods": {},
    "version": 1
  },
  "userdoc": {
    "kind": "user",
    "methods": {},
    "version": 1
  }
}