{
  "contractName": "MultiSigFactory",
  "abi": [
    {
      "anonymous": false,
      "inputs": [
        {
          "indexed": false,
          "internalType": "address",
          "name": "createdBy",
          "type": "address"
        },
        {
          "indexed": false,
          "internalType": "address",
          "name": "newWalletContractAddress",
          "type": "address"
        },
        {
          "indexed": false,
          "internalType": "uint256",
          "name": "timeOfTransaction",
          "type": "uint256"
        }
      ],
      "name": "WalletCreated",
      "type": "event"
    },
    {
      "inputs": [],
      "name": "createNewWallet",
      "outputs": [],
      "stateMutability": "nonpayable",
      "type": "function"
    },
    {
      "inputs": [
        {
          "internalType": "address",
          "name": "owner",
          "type": "address"
        },
        {
          "internalType": "address",
          "name": "walletAddress",
          "type": "address"
        }
      ],
      "name": "addNewWalletInstance",
      "outputs": [],
      "stateMutability": "nonpayable",
      "type": "function"
    },
    {
      "inputs": [
        {
          "internalType": "address",
          "name": "_owner",
          "type": "address"
        },
        {
          "internalType": "address",
          "name": "_walletAddress",
          "type": "address"
        }
      ],
      "name": "removeNewWalletInstance",
      "outputs": [],
      "stateMutability": "nonpayable",
      "type": "function"
    },
    {
      "inputs": [
        {
          "internalType": "address",
          "name": "owner",
          "type": "address"
        }
      ],
      "name": "getOwnerWallets",
      "outputs": [
        {
          "components": [
            {
              "internalType": "address",
              "name": "walletAddress",
              "type": "address"
            }
          ],
          "internalType": "struct MultiSigFactory.UserWallets[]",
          "name": "",
          "type": "tuple[]"
        }
      ],
      "stateMutability": "view",
      "type": "function"
    }
  ],
  "bytecode": "0x608060405234801561001057600080fd5b50615abf806100206000396000f3fe60806040523480156200001157600080fd5b5060043610620000525760003560e01c8063178f0d1c1462000057578063269ae8b11462000063578063628bf6911462000083578063bba4c19114620000a3575b600080fd5b62000061620000d9565b005b6200008160048036038101906200007b919062000715565b62000284565b005b620000a160048036038101906200009b919062000715565b62000360565b005b620000c16004803603810190620000bb91906200075c565b620005ab565b604051620000d091906200087a565b60405180910390f35b6000604051620000e9906200069d565b604051809103906000f08015801562000106573d6000803e3d6000fd5b5090506001819080600181540180825580915050600190039060005260206000200160009091909190916101000a81548173ffffffffffffffffffffffffffffffffffffffff021916908373ffffffffffffffffffffffffffffffffffffffff1602179055506000600260003373ffffffffffffffffffffffffffffffffffffffff1673ffffffffffffffffffffffffffffffffffffffff16815260200190815260200160002090508060405180602001604052808473ffffffffffffffffffffffffffffffffffffffff168152509080600181540180825580915050600190039060005260206000200160009091909190915060008201518160000160006101000a81548173ffffffffffffffffffffffffffffffffffffffff021916908373ffffffffffffffffffffffffffffffffffffffff16021790555050507f4459976dae5d173eda0ac09c39b840bed814c9d1e490e8b9ba23148e4b19a8373383426040516200027893929190620008ca565b60405180910390a15050565b6000600260008473ffffffffffffffffffffffffffffffffffffffff1673ffffffffffffffffffffffffffffffffffffffff16815260200190815260200160002090508060405180602001604052808473ffffffffffffffffffffffffffffffffffffffff168152509080600181540180825580915050600190039060005260206000200160009091909190915060008201518160000160006101000a81548173ffffffffffffffffffffffffffffffffffffffff021916908373ffffffffffffffffffffffffffffffffffffffff1602179055505050505050565b6000600260008473ffffffffffffffffffffffffffffffffffffffff1673ffffffffffffffffffffffffffffffffffffffff168152602001908152602001600020905060008080600090505b838054905081101562000454578473ffffffffffffffffffffffffffffffffffffffff16848281548110620003e657620003e562000907565b5b9060005260206000200160000160009054906101000a900473ffffffffffffffffffffffffffffffffffffffff1673ffffffffffffffffffffffffffffffffffffffff1614156200043e576001925080915062000454565b80806200044b9062000965565b915050620003ac565b508162000498576040517f08c379a00000000000000000000000000000000000000000000000000000000081526004016200048f9062000a3a565b60405180910390fd5b8260018480549050620004ac919062000a5c565b81548110620004c057620004bf62000907565b5b90600052602060002001838281548110620004e057620004df62000907565b5b906000526020600020016000820160009054906101000a900473ffffffffffffffffffffffffffffffffffffffff168160000160006101000a81548173ffffffffffffffffffffffffffffffffffffffff021916908373ffffffffffffffffffffffffffffffffffffffff1602179055509050508280548062000568576200056762000a97565b5b60019003818190600052602060002001600080820160006101000a81549073ffffffffffffffffffffffffffffffffffffffff0219169055505090555050505050565b6060600260008373ffffffffffffffffffffffffffffffffffffffff1673ffffffffffffffffffffffffffffffffffffffff168152602001908152602001600020805480602002602001604051908101604052809291908181526020016000905b8282101562000692578382906000526020600020016040518060200160405290816000820160009054906101000a900473ffffffffffffffffffffffffffffffffffffffff1673ffffffffffffffffffffffffffffffffffffffff1673ffffffffffffffffffffffffffffffffffffffff1681525050815260200190600101906200060c565b505050509050919050565b614fc38062000ac783390190565b600080fd5b600073ffffffffffffffffffffffffffffffffffffffff82169050919050565b6000620006dd82620006b0565b9050919050565b620006ef81620006d0565b8114620006fb57600080fd5b50565b6000813590506200070f81620006e4565b92915050565b600080604083850312156200072f576200072e620006ab565b5b60006200073f85828601620006fe565b92505060206200075285828601620006fe565b9150509250929050565b600060208284031215620007755762000774620006ab565b5b60006200078584828501620006fe565b91505092915050565b600081519050919050565b600082825260208201905092915050565b6000819050602082019050919050565b620007c581620006d0565b82525050565b602082016000820151620007e36000850182620007ba565b50505050565b6000620007f78383620007cb565b60208301905092915050565b6000602082019050919050565b60006200081d826200078e565b62000829818562000799565b93506200083683620007aa565b8060005b838110156200086d578151620008518882620007e9565b97506200085e8362000803565b9250506001810190506200083a565b5085935050505092915050565b6000602082019050818103600083015262000896818462000810565b905092915050565b620008a981620006d0565b82525050565b6000819050919050565b620008c481620008af565b82525050565b6000606082019050620008e160008301866200089e565b620008f060208301856200089e565b620008ff6040830184620008b9565b949350505050565b7f4e487b7100000000000000000000000000000000000000000000000000000000600052603260045260246000fd5b7f4e487b7100000000000000000000000000000000000000000000000000000000600052601160045260246000fd5b60006200097282620008af565b91507fffffffffffffffffffffffffffffffffffffffffffffffffffffffffffffffff821415620009a857620009a762000936565b5b600182019050919050565b600082825260208201905092915050565b7f746865206f776e65727320646f6573206e6f74206f776e207468652077616c6c60008201527f6574207370656369666965640000000000000000000000000000000000000000602082015250565b600062000a22602c83620009b3565b915062000a2f82620009c4565b604082019050919050565b6000602082019050818103600083015262000a558162000a13565b9050919050565b600062000a6982620008af565b915062000a7683620008af565b92508282101562000a8c5762000a8b62000936565b5b828203905092915050565b7f4e487b7100000000000000000000000000000000000000000000000000000000600052603160045260246000fdfe60806040523480156200001157600080fd5b50336000806101000a81548173ffffffffffffffffffffffffffffffffffffffff021916908373ffffffffffffffffffffffffffffffffffffffff160217905550600160008054906101000a900473ffffffffffffffffffffffffffffffffffffffff169080600181540180825580915050600190039060005260206000200160009091909190916101000a81548173ffffffffffffffffffffffffffffffffffffffff021916908373ffffffffffffffffffffffffffffffffffffffff16021790555060018080549050620000e891906200024d565b600281905550600680600181540180825580915050600190039060005260206000200160006040518060400160405280600381526020017f4554480000000000000000000000000000000000000000000000000000000000815250909190915090805190602001906200015d92919062000164565b50620002ed565b8280546200017290620002b7565b90600052602060002090601f016020900481019282620001965760008555620001e2565b82601f10620001b157805160ff1916838001178555620001e2565b82800160010185558215620001e2579182015b82811115620001e1578251825591602001919060010190620001c4565b5b509050620001f19190620001f5565b5090565b5b8082111562000210576000816000905550600101620001f6565b5090565b6000819050919050565b7f4e487b7100000000000000000000000000000000000000000000000000000000600052601160045260246000fd5b60006200025a8262000214565b9150620002678362000214565b9250828210156200027d576200027c6200021e565b5b828203905092915050565b7f4e487b7100000000000000000000000000000000000000000000000000000000600052602260045260246000fd5b60006002820490506001821680620002d057607f821691505b60208210811415620002e757620002e662000288565b5b50919050565b614cc680620002fd6000396000f3fe6080604052600436106100f35760003560e01c80638d21754a1161008a578063a04ef14511610059578063a04ef14514610307578063a4e360c814610332578063b0b22c2c1461036f578063dec3eea514610398576100f3565b80638d21754a1461026e5780638e27d719146102995780638f031443146102b55780639464f42b146102de576100f3565b80634c7927a9116100c65780634c7927a9146101b25780635f89aacb146101ef5780637278a1fa146102185780638c89a0ad14610243576100f3565b8063273cbaa0146100f857806330b39a62146101235780633a51d2461461014c5780634071e6d914610189575b600080fd5b34801561010457600080fd5b5061010d6103c1565b60405161011a91906138af565b60405180910390f35b34801561012f57600080fd5b5061014a60048036038101906101459190613a50565b61049a565b005b34801561015857600080fd5b50610173600480360381019061016e9190613aac565b61090f565b6040516101809190613b04565b60405180910390f35b34801561019557600080fd5b506101b060048036038101906101ab9190613b7d565b610a72565b005b3480156101be57600080fd5b506101d960048036038101906101d49190613aac565b610da6565b6040516101e69190613b04565b60405180910390f35b3480156101fb57600080fd5b5061021660048036038101906102119190613bd0565b610f09565b005b34801561022457600080fd5b5061022d6115d1565b60405161023a9190613b04565b60405180910390f35b34801561024f57600080fd5b506102586115db565b6040516102659190613b04565b60405180910390f35b34801561027a57600080fd5b506102836115e3565b6040516102909190613cbb565b60405180910390f35b6102b360048036038101906102ae9190613a50565b611671565b005b3480156102c157600080fd5b506102dc60048036038101906102d79190613b7d565b611b48565b005b3480156102ea57600080fd5b5061030560048036038101906103009190613d1b565b611dce565b005b34801561031357600080fd5b5061031c61235a565b6040516103299190613f06565b60405180910390f35b34801561033e57600080fd5b5061035960048036038101906103549190613bd0565b61251f565b6040516103669190613f43565b60405180910390f35b34801561037b57600080fd5b5061039660048036038101906103919190613f5e565b612586565b005b3480156103a457600080fd5b506103bf60048036038101906103ba9190613bd0565b6128c8565b005b60606006805480602002602001604051908101604052809291908181526020016000905b8282101561049157838290600052602060002001805461040490613fe9565b80601f016020809104026020016040519081016040528092919081815260200182805461043090613fe9565b801561047d5780601f106104525761010080835404028352916020019161047d565b820191906000526020600020905b81548152906001019060200180831161046057829003601f168201915b5050505050815260200190600101906103e5565b50505050905090565b6000805b600180549050811015610539573373ffffffffffffffffffffffffffffffffffffffff16600182815481106104d6576104d561401b565b5b9060005260206000200160009054906101000a900473ffffffffffffffffffffffffffffffffffffffff1673ffffffffffffffffffffffffffffffffffffffff1614156105265760019150610539565b808061053190614079565b91505061049e565b506001151581151514610581576040517f08c379a000000000000000000000000000000000000000000000000000000000815260040161057890614145565b60405180910390fd5b826040518060400160405280600381526020017f45544800000000000000000000000000000000000000000000000000000000008152508051906020012081805190602001201461067e57600073ffffffffffffffffffffffffffffffffffffffff16600a826040516105f491906141a1565b908152602001604051809103902060010160009054906101000a900473ffffffffffffffffffffffffffffffffffffffff1673ffffffffffffffffffffffffffffffffffffffff16141561067d576040517f08c379a000000000000000000000000000000000000000000000000000000000815260040161067490614204565b60405180910390fd5b5b82600860003373ffffffffffffffffffffffffffffffffffffffff1673ffffffffffffffffffffffffffffffffffffffff168152602001908152602001600020856040516106cc91906141a1565b90815260200160405180910390205410156106e657600080fd5b82600860003373ffffffffffffffffffffffffffffffffffffffff1673ffffffffffffffffffffffffffffffffffffffff1681526020019081526020016000208560405161073491906141a1565b908152602001604051809103902060008282546107519190614224565b925050819055506040518060400160405280600381526020017f455448000000000000000000000000000000000000000000000000000000000081525080519060200120848051906020012014156107ef573373ffffffffffffffffffffffffffffffffffffffff166108fc849081150290604051600060405180830381858888f193505050501580156107e9573d6000803e3d6000fd5b506108b0565b600a846040516107ff91906141a1565b908152602001604051809103902060010160009054906101000a900473ffffffffffffffffffffffffffffffffffffffff1673ffffffffffffffffffffffffffffffffffffffff1663a9059cbb33856040518363ffffffff1660e01b815260040161086b929190614267565b6020604051808303816000875af115801561088a573d6000803e3d6000fd5b505050506040513d601f19601f820116820180604052508101906108ae91906142bc565b505b7f6a647eacc9e98792655e8dba08e3167440b93e02ef76e8e3330fa10a27b4ecbf843385600454426040516108e9959493929190614322565b60405180910390a16004600081548092919061090490614079565b919050555050505050565b6000816040518060400160405280600381526020017f455448000000000000000000000000000000000000000000000000000000000081525080519060200120818051906020012014610a0e57600073ffffffffffffffffffffffffffffffffffffffff16600a8260405161098491906141a1565b908152602001604051809103902060010160009054906101000a900473ffffffffffffffffffffffffffffffffffffffff1673ffffffffffffffffffffffffffffffffffffffff161415610a0d576040517f08c379a0000000000000000000000000000000000000000000000000000000008152600401610a0490614204565b60405180910390fd5b5b600860003373ffffffffffffffffffffffffffffffffffffffff1673ffffffffffffffffffffffffffffffffffffffff16815260200190815260200160002083604051610a5b91906141a1565b908152602001604051809103902054915050919050565b6000805b600180549050811015610b11573373ffffffffffffffffffffffffffffffffffffffff1660018281548110610aae57610aad61401b565b5b9060005260206000200160009054906101000a900473ffffffffffffffffffffffffffffffffffffffff1673ffffffffffffffffffffffffffffffffffffffff161415610afe5760019150610b11565b8080610b0990614079565b915050610a76565b506001151581151514610b59576040517f08c379a0000000000000000000000000000000000000000000000000000000008152600401610b5090614145565b60405180910390fd5b60008080600090505b600180549050811015610c00578673ffffffffffffffffffffffffffffffffffffffff1660018281548110610b9a57610b9961401b565b5b9060005260206000200160009054906101000a900473ffffffffffffffffffffffffffffffffffffffff1673ffffffffffffffffffffffffffffffffffffffff161415610bed5760019250809150610c00565b8080610bf890614079565b915050610b62565b506001151582151514610c48576040517f08c379a0000000000000000000000000000000000000000000000000000000008152600401610c3f906143c8565b60405180910390fd5b6001808080549050610c5a9190614224565b81548110610c6b57610c6a61401b565b5b9060005260206000200160009054906101000a900473ffffffffffffffffffffffffffffffffffffffff1660018281548110610caa57610ca961401b565b5b9060005260206000200160006101000a81548173ffffffffffffffffffffffffffffffffffffffff021916908373ffffffffffffffffffffffffffffffffffffffff1602179055506001805480610d0457610d036143e8565b5b6001900381819060005260206000200160006101000a81549073ffffffffffffffffffffffffffffffffffffffff0219169055905560018080549050610d4a9190614224565b6002819055507fd1f329271e4a98b0181a7d91618a0a5de6f42a1aaf4c1362493d829eaf405a8a338742604051610d8393929190614417565b60405180910390a1610d9484612e2f565b610d9e8686612e73565b505050505050565b6000816040518060400160405280600381526020017f455448000000000000000000000000000000000000000000000000000000000081525080519060200120818051906020012014610ea557600073ffffffffffffffffffffffffffffffffffffffff16600a82604051610e1b91906141a1565b908152602001604051809103902060010160009054906101000a900473ffffffffffffffffffffffffffffffffffffffff1673ffffffffffffffffffffffffffffffffffffffff161415610ea4576040517f08c379a0000000000000000000000000000000000000000000000000000000008152600401610e9b90614204565b60405180910390fd5b5b600860003073ffffffffffffffffffffffffffffffffffffffff1673ffffffffffffffffffffffffffffffffffffffff16815260200190815260200160002083604051610ef291906141a1565b908152602001604051809103902054915050919050565b6000805b600180549050811015610fa8573373ffffffffffffffffffffffffffffffffffffffff1660018281548110610f4557610f4461401b565b5b9060005260206000200160009054906101000a900473ffffffffffffffffffffffffffffffffffffffff1673ffffffffffffffffffffffffffffffffffffffff161415610f955760019150610fa8565b8080610fa090614079565b915050610f0d565b506001151581151514610ff0576040517f08c379a0000000000000000000000000000000000000000000000000000000008152600401610fe790614145565b60405180910390fd5b6000600b83815481106110065761100561401b565b5b9060005260206000209060070201600001805461102290613fe9565b80601f016020809104026020016040519081016040528092919081815260200182805461104e90613fe9565b801561109b5780601f106110705761010080835404028352916020019161109b565b820191906000526020600020905b81548152906001019060200180831161107e57829003601f168201915b5050505050905060008060005b600b8054905081101561110c5785600b82815481106110ca576110c961401b565b5b90600052602060002090600702016004015414156110eb576001925061110c565b81806110f690614079565b925050808061110490614079565b9150506110a8565b503373ffffffffffffffffffffffffffffffffffffffff16600b82815481106111385761113761401b565b5b906000526020600020906007020160010160009054906101000a900473ffffffffffffffffffffffffffffffffffffffff1673ffffffffffffffffffffffffffffffffffffffff16146111c0576040517f08c379a00000000000000000000000000000000000000000000000000000000081526004016111b7906144c0565b60405180910390fd5b81611200576040517f08c379a00000000000000000000000000000000000000000000000000000000081526004016111f79061452c565b60405180910390fd5b600b81815481106112145761121361401b565b5b906000526020600020906007020160030154600860003373ffffffffffffffffffffffffffffffffffffffff1673ffffffffffffffffffffffffffffffffffffffff1681526020019081526020016000208460405161127391906141a1565b90815260200160405180910390206000828254611290919061454c565b92505081905550600b6001600b805490506112ab9190614224565b815481106112bc576112bb61401b565b5b9060005260206000209060070201600b82815481106112de576112dd61401b565b5b9060005260206000209060070201600082018160000190805461130090613fe9565b61130b9291906135e4565b506001820160009054906101000a900473ffffffffffffffffffffffffffffffffffffffff168160010160006101000a81548173ffffffffffffffffffffffffffffffffffffffff021916908373ffffffffffffffffffffffffffffffffffffffff1602179055506002820160009054906101000a900473ffffffffffffffffffffffffffffffffffffffff168160020160006101000a81548173ffffffffffffffffffffffffffffffffffffffff021916908373ffffffffffffffffffffffffffffffffffffffff160217905550600382015481600301556004820154816004015560058201548160050155600682015481600601559050507f88ac4e01306872c0a5f289baf13af804eedb981db2018261cf8afed94bd9e19b8333600b848154811061143c5761143b61401b565b5b906000526020600020906007020160020160009054906101000a900473ffffffffffffffffffffffffffffffffffffffff16600b85815481106114825761148161401b565b5b906000526020600020906007020160030154600b86815481106114a8576114a761401b565b5b906000526020600020906007020160040154600b87815481106114ce576114cd61401b565b5b906000526020600020906007020160050154600b88815481106114f4576114f361401b565b5b9060005260206000209060070201600601546040516115199796959493929190614601565b60405180910390a1600b805480611533576115326143e8565b5b6001900381819060005260206000209060070201600080820160006115589190613671565b6001820160006101000a81549073ffffffffffffffffffffffffffffffffffffffff02191690556002820160006101000a81549073ffffffffffffffffffffffffffffffffffffffff02191690556003820160009055600482016000905560058201600090556006820160009055505090555050505050565b6000600254905090565b600047905090565b6060600180548060200260200160405190810160405280929190818152602001828054801561166757602002820191906000526020600020905b8160009054906101000a900473ffffffffffffffffffffffffffffffffffffffff1673ffffffffffffffffffffffffffffffffffffffff168152602001906001019080831161161d575b5050505050905090565b6000805b600180549050811015611710573373ffffffffffffffffffffffffffffffffffffffff16600182815481106116ad576116ac61401b565b5b9060005260206000200160009054906101000a900473ffffffffffffffffffffffffffffffffffffffff1673ffffffffffffffffffffffffffffffffffffffff1614156116fd5760019150611710565b808061170890614079565b915050611675565b506001151581151514611758576040517f08c379a000000000000000000000000000000000000000000000000000000000815260040161174f90614145565b60405180910390fd5b826040518060400160405280600381526020017f45544800000000000000000000000000000000000000000000000000000000008152508051906020012081805190602001201461185557600073ffffffffffffffffffffffffffffffffffffffff16600a826040516117cb91906141a1565b908152602001604051809103902060010160009054906101000a900473ffffffffffffffffffffffffffffffffffffffff1673ffffffffffffffffffffffffffffffffffffffff161415611854576040517f08c379a000000000000000000000000000000000000000000000000000000000815260040161184b90614204565b60405180910390fd5b5b6000600860003373ffffffffffffffffffffffffffffffffffffffff1673ffffffffffffffffffffffffffffffffffffffff168152602001908152602001600020856040516118a491906141a1565b90815260200160405180910390205410156118f4576040517f08c379a00000000000000000000000000000000000000000000000000000000081526004016118eb906146c3565b60405180910390fd5b6040518060400160405280600381526020017f455448000000000000000000000000000000000000000000000000000000000081525080519060200120848051906020012014156119b45734600860003373ffffffffffffffffffffffffffffffffffffffff1673ffffffffffffffffffffffffffffffffffffffff16815260200190815260200160002060405161198b9061472f565b908152602001604051809103902060008282546119a8919061454c565b92505081905550611ae9565b82600860003373ffffffffffffffffffffffffffffffffffffffff1673ffffffffffffffffffffffffffffffffffffffff16815260200190815260200160002085604051611a0291906141a1565b90815260200160405180910390206000828254611a1f919061454c565b92505081905550600a84604051611a3691906141a1565b908152602001604051809103902060010160009054906101000a900473ffffffffffffffffffffffffffffffffffffffff1673ffffffffffffffffffffffffffffffffffffffff166323b872dd3330866040518463ffffffff1660e01b8152600401611aa493929190614417565b6020604051808303816000875af1158015611ac3573d6000803e3d6000fd5b505050506040513d601f19601f82011682018060405250810190611ae791906142bc565b505b7f41751252894a74bd975de630158c4e47bb25c36d9ce7ad90383d86d391d2be1284333460035442604051611b22959493929190614322565b60405180910390a160036000815480929190611b3d90614079565b919050555050505050565b6000805b600180549050811015611be7573373ffffffffffffffffffffffffffffffffffffffff1660018281548110611b8457611b8361401b565b5b9060005260206000200160009054906101000a900473ffffffffffffffffffffffffffffffffffffffff1673ffffffffffffffffffffffffffffffffffffffff161415611bd45760019150611be7565b8080611bdf90614079565b915050611b4c565b506001151581151514611c2f576040517f08c379a0000000000000000000000000000000000000000000000000000000008152600401611c2690614145565b60405180910390fd5b60005b600180549050811015611cff578473ffffffffffffffffffffffffffffffffffffffff1660018281548110611c6a57611c6961401b565b5b9060005260206000200160009054906101000a900473ffffffffffffffffffffffffffffffffffffffff1673ffffffffffffffffffffffffffffffffffffffff161415611cec576040517f08c379a0000000000000000000000000000000000000000000000000000000008152600401611ce390614790565b60405180910390fd5b8080611cf790614079565b915050611c32565b506001849080600181540180825580915050600190039060005260206000200160009091909190916101000a81548173ffffffffffffffffffffffffffffffffffffffff021916908373ffffffffffffffffffffffffffffffffffffffff16021790555060018080549050611d749190614224565b6002819055507f43abcff3409244ec1056224394af5f818e9a74866f0a11bfee2ad52f68ad6fb9338542604051611dad93929190614417565b60405180910390a1611dbe82612e2f565b611dc88484612f0c565b50505050565b6000805b600180549050811015611e6d573373ffffffffffffffffffffffffffffffffffffffff1660018281548110611e0a57611e0961401b565b5b9060005260206000200160009054906101000a900473ffffffffffffffffffffffffffffffffffffffff1673ffffffffffffffffffffffffffffffffffffffff161415611e5a5760019150611e6d565b8080611e6590614079565b915050611dd2565b506001151581151514611eb5576040517f08c379a0000000000000000000000000000000000000000000000000000000008152600401611eac90614145565b60405180910390fd5b836040518060400160405280600381526020017f455448000000000000000000000000000000000000000000000000000000000081525080519060200120818051906020012014611fb257600073ffffffffffffffffffffffffffffffffffffffff16600a82604051611f2891906141a1565b908152602001604051809103902060010160009054906101000a900473ffffffffffffffffffffffffffffffffffffffff1673ffffffffffffffffffffffffffffffffffffffff161415611fb1576040517f08c379a0000000000000000000000000000000000000000000000000000000008152600401611fa890614204565b60405180910390fd5b5b82600860003373ffffffffffffffffffffffffffffffffffffffff1673ffffffffffffffffffffffffffffffffffffffff1681526020019081526020016000208660405161200091906141a1565b9081526020016040518091039020541015612050576040517f08c379a000000000000000000000000000000000000000000000000000000000815260040161204790614822565b60405180910390fd5b60005b600180549050811015612120578473ffffffffffffffffffffffffffffffffffffffff166001828154811061208b5761208a61401b565b5b9060005260206000200160009054906101000a900473ffffffffffffffffffffffffffffffffffffffff1673ffffffffffffffffffffffffffffffffffffffff16141561210d576040517f08c379a0000000000000000000000000000000000000000000000000000000008152600401612104906148b4565b60405180910390fd5b808061211890614079565b915050612053565b5082600860003373ffffffffffffffffffffffffffffffffffffffff1673ffffffffffffffffffffffffffffffffffffffff1681526020019081526020016000208660405161216f91906141a1565b9081526020016040518091039020600082825461218c9190614224565b92505081905550600b6040518060e001604052808781526020013373ffffffffffffffffffffffffffffffffffffffff1681526020018673ffffffffffffffffffffffffffffffffffffffff168152602001858152602001600554815260200160008152602001428152509080600181540180825580915050600190039060005260206000209060070201600090919091909150600082015181600001908051906020019061223c9291906136b1565b5060208201518160010160006101000a81548173ffffffffffffffffffffffffffffffffffffffff021916908373ffffffffffffffffffffffffffffffffffffffff16021790555060408201518160020160006101000a81548173ffffffffffffffffffffffffffffffffffffffff021916908373ffffffffffffffffffffffffffffffffffffffff160217905550606082015181600301556080820151816004015560a0820151816005015560c0820151816006015550506005600081548092919061230890614079565b91905055507f9cc5df05955d08828d561f92ad3f6b82c78a55cf7d3dedacffacc4f694faf9be8533868660055460004260405161234b979695949392919061490f565b60405180910390a15050505050565b6060600b805480602002602001604051908101604052809291908181526020016000905b8282101561251657838290600052602060002090600702016040518060e00160405290816000820180546123b190613fe9565b80601f01602080910402602001604051908101604052809291908181526020018280546123dd90613fe9565b801561242a5780601f106123ff5761010080835404028352916020019161242a565b820191906000526020600020905b81548152906001019060200180831161240d57829003601f168201915b505050505081526020016001820160009054906101000a900473ffffffffffffffffffffffffffffffffffffffff1673ffffffffffffffffffffffffffffffffffffffff1673ffffffffffffffffffffffffffffffffffffffff1681526020016002820160009054906101000a900473ffffffffffffffffffffffffffffffffffffffff1673ffffffffffffffffffffffffffffffffffffffff1673ffffffffffffffffffffffffffffffffffffffff1681526020016003820154815260200160048201548152602001600582015481526020016006820154815250508152602001906001019061237e565b50505050905090565b6000600960003373ffffffffffffffffffffffffffffffffffffffff1673ffffffffffffffffffffffffffffffffffffffff168152602001908152602001600020600083815260200190815260200160002060009054906101000a900460ff169050919050565b6000805b600180549050811015612625573373ffffffffffffffffffffffffffffffffffffffff16600182815481106125c2576125c161401b565b5b9060005260206000200160009054906101000a900473ffffffffffffffffffffffffffffffffffffffff1673ffffffffffffffffffffffffffffffffffffffff1614156126125760019150612625565b808061261d90614079565b91505061258a565b50600115158115151461266d576040517f08c379a000000000000000000000000000000000000000000000000000000000815260040161266490614145565b60405180910390fd5b60005b60068054905081101561270c578380519060200120600682815481106126995761269861401b565b5b906000526020600020016040516126b09190614a24565b604051809103902014156126f9576040517f08c379a00000000000000000000000000000000000000000000000000000000081526004016126f090614a87565b60405180910390fd5b808061270490614079565b915050612670565b5082805190602001208273ffffffffffffffffffffffffffffffffffffffff166395d89b416040518163ffffffff1660e01b8152600401600060405180830381865afa158015612760573d6000803e3d6000fd5b505050506040513d6000823e3d601f19601f820116820180604052508101906127899190614b17565b805190602001201461279a57600080fd5b60405180604001604052808481526020018373ffffffffffffffffffffffffffffffffffffffff16815250600a846040516127d591906141a1565b908152602001604051809103902060008201518160000190805190602001906127ff9291906136b1565b5060208201518160010160006101000a81548173ffffffffffffffffffffffffffffffffffffffff021916908373ffffffffffffffffffffffffffffffffffffffff1602179055509050506006839080600181540180825580915050600190039060005260206000200160009091909190915090805190602001906128859291906136b1565b507fe6887a88bb2477605d9b68e33f64a263587018a6a232f3b234ba1b78c96b84f2338484426040516128bb9493929190614b60565b60405180910390a1505050565b6000805b600180549050811015612967573373ffffffffffffffffffffffffffffffffffffffff16600182815481106129045761290361401b565b5b9060005260206000200160009054906101000a900473ffffffffffffffffffffffffffffffffffffffff1673ffffffffffffffffffffffffffffffffffffffff1614156129545760019150612967565b808061295f90614079565b9150506128cc565b5060011515811515146129af576040517f08c379a00000000000000000000000000000000000000000000000000000000081526004016129a690614145565b60405180910390fd5b6000600b83815481106129c5576129c461401b565b5b906000526020600020906007020160000180546129e190613fe9565b80601f0160208091040260200160405190810160405280929190818152602001828054612a0d90613fe9565b8015612a5a5780601f10612a2f57610100808354040283529160200191612a5a565b820191906000526020600020905b815481529060010190602001808311612a3d57829003601f168201915b5050505050905060008060005b600b80549050811015612acb5785600b8281548110612a8957612a8861401b565b5b9060005260206000209060070201600401541415612aaa5760019250612acb565b8180612ab590614079565b9250508080612ac390614079565b915050612a67565b5081612b0c576040517f08c379a0000000000000000000000000000000000000000000000000000000008152600401612b03906144c0565b60405180910390fd5b60001515600960003373ffffffffffffffffffffffffffffffffffffffff1673ffffffffffffffffffffffffffffffffffffffff168152602001908152602001600020600087815260200190815260200160002060009054906101000a900460ff16151514612bb0576040517f08c379a0000000000000000000000000000000000000000000000000000000008152600401612ba790614c1e565b60405180910390fd5b3373ffffffffffffffffffffffffffffffffffffffff16600b8281548110612bdb57612bda61401b565b5b906000526020600020906007020160010160009054906101000a900473ffffffffffffffffffffffffffffffffffffffff1673ffffffffffffffffffffffffffffffffffffffff161415612c2e57600080fd5b6001600960003373ffffffffffffffffffffffffffffffffffffffff1673ffffffffffffffffffffffffffffffffffffffff168152602001908152602001600020600087815260200190815260200160002060006101000a81548160ff021916908315150217905550600b8181548110612cab57612caa61401b565b5b90600052602060002090600702016005016000815480929190612ccd90614079565b91905055507fead8052a59bd99f1b0115f4da8e862ebc15be06d11ad168b737b8e6dae0886c88333600b8481548110612d0957612d0861401b565b5b906000526020600020906007020160020160009054906101000a900473ffffffffffffffffffffffffffffffffffffffff16600b8581548110612d4f57612d4e61401b565b5b906000526020600020906007020160030154600b8681548110612d7557612d7461401b565b5b906000526020600020906007020160040154600b8781548110612d9b57612d9a61401b565b5b906000526020600020906007020160050154600b8881548110612dc157612dc061401b565b5b906000526020600020906007020160060154604051612de69796959493929190614601565b60405180910390a1600254600b8281548110612e0557612e0461401b565b5b9060005260206000209060070201600501541415612e2857612e278382612fa5565b5b5050505050565b80600760006101000a81548173ffffffffffffffffffffffffffffffffffffffff021916908373ffffffffffffffffffffffffffffffffffffffff16021790555050565b6000600760009054906101000a900473ffffffffffffffffffffffffffffffffffffffff1690508073ffffffffffffffffffffffffffffffffffffffff1663628bf69184846040518363ffffffff1660e01b8152600401612ed5929190614c3e565b600060405180830381600087803b158015612eef57600080fd5b505af1158015612f03573d6000803e3d6000fd5b50505050505050565b6000600760009054906101000a900473ffffffffffffffffffffffffffffffffffffffff1690508073ffffffffffffffffffffffffffffffffffffffff1663269ae8b184846040518363ffffffff1660e01b8152600401612f6e929190614c3e565b600060405180830381600087803b158015612f8857600080fd5b505af1158015612f9c573d6000803e3d6000fd5b50505050505050565b600b8181548110612fb957612fb861401b565b5b90600052602060002090600702016003015460086000600b8481548110612fe357612fe261401b565b5b906000526020600020906007020160020160009054906101000a900473ffffffffffffffffffffffffffffffffffffffff1673ffffffffffffffffffffffffffffffffffffffff1673ffffffffffffffffffffffffffffffffffffffff1681526020019081526020016000208360405161305d91906141a1565b9081526020016040518091039020600082825461307a919061454c565b925050819055506040518060400160405280600381526020017f4554480000000000000000000000000000000000000000000000000000000000815250805190602001208280519060200120141561318257600b81815481106130e0576130df61401b565b5b906000526020600020906007020160020160009054906101000a900473ffffffffffffffffffffffffffffffffffffffff1673ffffffffffffffffffffffffffffffffffffffff166108fc600b838154811061313f5761313e61401b565b5b9060005260206000209060070201600301549081150290604051600060405180830381858888f1935050505015801561317c573d6000803e3d6000fd5b506132ad565b600a8260405161319291906141a1565b908152602001604051809103902060010160009054906101000a900473ffffffffffffffffffffffffffffffffffffffff1673ffffffffffffffffffffffffffffffffffffffff1663a9059cbb600b83815481106131f3576131f261401b565b5b906000526020600020906007020160020160009054906101000a900473ffffffffffffffffffffffffffffffffffffffff16600b84815481106132395761323861401b565b5b9060005260206000209060070201600301546040518363ffffffff1660e01b8152600401613268929190614c67565b6020604051808303816000875af1158015613287573d6000803e3d6000fd5b505050506040513d601f19601f820116820180604052508101906132ab91906142bc565b505b7fdeea4c72b502b4bd7dce3c793e57c46bb32f3b2f66613d54a765e7585f520a2c8233600b84815481106132e4576132e361401b565b5b906000526020600020906007020160020160009054906101000a900473ffffffffffffffffffffffffffffffffffffffff16600b858154811061332a5761332961401b565b5b906000526020600020906007020160030154600b86815481106133505761334f61401b565b5b906000526020600020906007020160040154600b87815481106133765761337561401b565b5b906000526020600020906007020160050154600b888154811061339c5761339b61401b565b5b9060005260206000209060070201600601546040516133c19796959493929190614601565b60405180910390a1600b6001600b805490506133dd9190614224565b815481106133ee576133ed61401b565b5b9060005260206000209060070201600b82815481106134105761340f61401b565b5b9060005260206000209060070201600082018160000190805461343290613fe9565b61343d9291906135e4565b506001820160009054906101000a900473ffffffffffffffffffffffffffffffffffffffff168160010160006101000a81548173ffffffffffffffffffffffffffffffffffffffff021916908373ffffffffffffffffffffffffffffffffffffffff1602179055506002820160009054906101000a900473ffffffffffffffffffffffffffffffffffffffff168160020160006101000a81548173ffffffffffffffffffffffffffffffffffffffff021916908373ffffffffffffffffffffffffffffffffffffffff16021790555060038201548160030155600482015481600401556005820154816005015560068201548160060155905050600b805480613549576135486143e8565b5b60019003818190600052602060002090600702016000808201600061356e9190613671565b6001820160006101000a81549073ffffffffffffffffffffffffffffffffffffffff02191690556002820160006101000a81549073ffffffffffffffffffffffffffffffffffffffff02191690556003820160009055600482016000905560058201600090556006820160009055505090555050565b8280546135f090613fe9565b90600052602060002090601f0160209004810192826136125760008555613660565b82601f106136235780548555613660565b8280016001018555821561366057600052602060002091601f016020900482015b8281111561365f578254825591600101919060010190613644565b5b50905061366d9190613737565b5090565b50805461367d90613fe9565b6000825580601f1061368f57506136ae565b601f0160209004906000526020600020908101906136ad9190613737565b5b50565b8280546136bd90613fe9565b90600052602060002090601f0160209004810192826136df5760008555613726565b82601f106136f857805160ff1916838001178555613726565b82800160010185558215613726579182015b8281111561372557825182559160200191906001019061370a565b5b5090506137339190613737565b5090565b5b80821115613750576000816000905550600101613738565b5090565b600081519050919050565b600082825260208201905092915050565b6000819050602082019050919050565b600081519050919050565b600082825260208201905092915050565b60005b838110156137ba57808201518184015260208101905061379f565b838111156137c9576000848401525b50505050565b6000601f19601f8301169050919050565b60006137eb82613780565b6137f5818561378b565b935061380581856020860161379c565b61380e816137cf565b840191505092915050565b600061382583836137e0565b905092915050565b6000602082019050919050565b600061384582613754565b61384f818561375f565b93508360208202850161386185613770565b8060005b8581101561389d578484038952815161387e8582613819565b94506138898361382d565b925060208a01995050600181019050613865565b50829750879550505050505092915050565b600060208201905081810360008301526138c9818461383a565b905092915050565b6000604051905090565b600080fd5b600080fd5b600080fd5b600080fd5b7f4e487b7100000000000000000000000000000000000000000000000000000000600052604160045260246000fd5b613927826137cf565b810181811067ffffffffffffffff82111715613946576139456138ef565b5b80604052505050565b60006139596138d1565b9050613965828261391e565b919050565b600067ffffffffffffffff821115613985576139846138ef565b5b61398e826137cf565b9050602081019050919050565b82818337600083830152505050565b60006139bd6139b88461396a565b61394f565b9050828152602081018484840111156139d9576139d86138ea565b5b6139e484828561399b565b509392505050565b600082601f830112613a0157613a006138e5565b5b8135613a118482602086016139aa565b91505092915050565b6000819050919050565b613a2d81613a1a565b8114613a3857600080fd5b50565b600081359050613a4a81613a24565b92915050565b60008060408385031215613a6757613a666138db565b5b600083013567ffffffffffffffff811115613a8557613a846138e0565b5b613a91858286016139ec565b9250506020613aa285828601613a3b565b9150509250929050565b600060208284031215613ac257613ac16138db565b5b600082013567ffffffffffffffff811115613ae057613adf6138e0565b5b613aec848285016139ec565b91505092915050565b613afe81613a1a565b82525050565b6000602082019050613b196000830184613af5565b92915050565b600073ffffffffffffffffffffffffffffffffffffffff82169050919050565b6000613b4a82613b1f565b9050919050565b613b5a81613b3f565b8114613b6557600080fd5b50565b600081359050613b7781613b51565b92915050565b600080600060608486031215613b9657613b956138db565b5b6000613ba486828701613b68565b9350506020613bb586828701613b68565b9250506040613bc686828701613b68565b9150509250925092565b600060208284031215613be657613be56138db565b5b6000613bf484828501613a3b565b91505092915050565b600081519050919050565b600082825260208201905092915050565b6000819050602082019050919050565b613c3281613b3f565b82525050565b6000613c448383613c29565b60208301905092915050565b6000602082019050919050565b6000613c6882613bfd565b613c728185613c08565b9350613c7d83613c19565b8060005b83811015613cae578151613c958882613c38565b9750613ca083613c50565b925050600181019050613c81565b5085935050505092915050565b60006020820190508181036000830152613cd58184613c5d565b905092915050565b6000613ce882613b1f565b9050919050565b613cf881613cdd565b8114613d0357600080fd5b50565b600081359050613d1581613cef565b92915050565b600080600060608486031215613d3457613d336138db565b5b600084013567ffffffffffffffff811115613d5257613d516138e0565b5b613d5e868287016139ec565b9350506020613d6f86828701613d06565b9250506040613d8086828701613a3b565b9150509250925092565b600081519050919050565b600082825260208201905092915050565b6000819050602082019050919050565b613dbf81613cdd565b82525050565b613dce81613a1a565b82525050565b600060e0830160008301518482036000860152613df182826137e0565b9150506020830151613e066020860182613c29565b506040830151613e196040860182613db6565b506060830151613e2c6060860182613dc5565b506080830151613e3f6080860182613dc5565b5060a0830151613e5260a0860182613dc5565b5060c0830151613e6560c0860182613dc5565b508091505092915050565b6000613e7c8383613dd4565b905092915050565b6000602082019050919050565b6000613e9c82613d8a565b613ea68185613d95565b935083602082028501613eb885613da6565b8060005b85811015613ef45784840389528151613ed58582613e70565b9450613ee083613e84565b925060208a01995050600181019050613ebc565b50829750879550505050505092915050565b60006020820190508181036000830152613f208184613e91565b905092915050565b60008115159050919050565b613f3d81613f28565b82525050565b6000602082019050613f586000830184613f34565b92915050565b60008060408385031215613f7557613f746138db565b5b600083013567ffffffffffffffff811115613f9357613f926138e0565b5b613f9f858286016139ec565b9250506020613fb085828601613b68565b9150509250929050565b7f4e487b7100000000000000000000000000000000000000000000000000000000600052602260045260246000fd5b6000600282049050600182168061400157607f821691505b6020821081141561401557614014613fba565b5b50919050565b7f4e487b7100000000000000000000000000000000000000000000000000000000600052603260045260246000fd5b7f4e487b7100000000000000000000000000000000000000000000000000000000600052601160045260246000fd5b600061408482613a1a565b91507fffffffffffffffffffffffffffffffffffffffffffffffffffffffffffffffff8214156140b7576140b661404a565b5b600182019050919050565b600082825260208201905092915050565b7f6f6e6c792077616c6c6574206f776e6572732063616e2063616c6c207468697360008201527f2066756e6374696f6e0000000000000000000000000000000000000000000000602082015250565b600061412f6029836140c2565b915061413a826140d3565b604082019050919050565b6000602082019050818103600083015261415e81614122565b9050919050565b600081905092915050565b600061417b82613780565b6141858185614165565b935061419581856020860161379c565b80840191505092915050565b60006141ad8284614170565b915081905092915050565b7f746f6b656e20646f6573206e6f74206578697874730000000000000000000000600082015250565b60006141ee6015836140c2565b91506141f9826141b8565b602082019050919050565b6000602082019050818103600083015261421d816141e1565b9050919050565b600061422f82613a1a565b915061423a83613a1a565b92508282101561424d5761424c61404a565b5b828203905092915050565b61426181613b3f565b82525050565b600060408201905061427c6000830185614258565b6142896020830184613af5565b9392505050565b61429981613f28565b81146142a457600080fd5b50565b6000815190506142b681614290565b92915050565b6000602082840312156142d2576142d16138db565b5b60006142e0848285016142a7565b91505092915050565b60006142f482613780565b6142fe81856140c2565b935061430e81856020860161379c565b614317816137cf565b840191505092915050565b600060a082019050818103600083015261433c81886142e9565b905061434b6020830187614258565b6143586040830186613af5565b6143656060830185613af5565b6143726080830184613af5565b9695505050505050565b7f77616c6c6574206f776e6572206e6f7420646574656374656400000000000000600082015250565b60006143b26019836140c2565b91506143bd8261437c565b602082019050919050565b600060208201905081810360008301526143e1816143a5565b9050919050565b7f4e487b7100000000000000000000000000000000000000000000000000000000600052603160045260246000fd5b600060608201905061442c6000830186614258565b6144396020830185614258565b6144466040830184613af5565b949350505050565b7f6f6e6c7920746865207472616e736665722063726561746f722063616e20636160008201527f6e63656c00000000000000000000000000000000000000000000000000000000602082015250565b60006144aa6024836140c2565b91506144b58261444e565b604082019050919050565b600060208201905081810360008301526144d98161449d565b9050919050565b7f7472616e73666572207265717565737420646f6573206e6f7420657869737400600082015250565b6000614516601f836140c2565b9150614521826144e0565b602082019050919050565b6000602082019050818103600083015261454581614509565b9050919050565b600061455782613a1a565b915061456283613a1a565b9250827fffffffffffffffffffffffffffffffffffffffffffffffffffffffffffffffff038211156145975761459661404a565b5b828201905092915050565b6000819050919050565b60006145c76145c26145bd84613b1f565b6145a2565b613b1f565b9050919050565b60006145d9826145ac565b9050919050565b60006145eb826145ce565b9050919050565b6145fb816145e0565b82525050565b600060e082019050818103600083015261461b818a6142e9565b905061462a6020830189614258565b61463760408301886145f2565b6146446060830187613af5565b6146516080830186613af5565b61465e60a0830185613af5565b61466b60c0830184613af5565b98975050505050505050565b7f63616e6e6f74206465706f7369697420612063616c7565206f66203000000000600082015250565b60006146ad601c836140c2565b91506146b882614677565b602082019050919050565b600060208201905081810360008301526146dc816146a0565b9050919050565b7f4554480000000000000000000000000000000000000000000000000000000000600082015250565b6000614719600383614165565b9150614724826146e3565b600382019050919050565b600061473a8261470c565b9150819050919050565b7f63616e6e6f7420616464206475706c6963617465206f776e6572730000000000600082015250565b600061477a601b836140c2565b915061478582614744565b602082019050919050565b600060208201905081810360008301526147a98161476d565b9050919050565b7f696e737566666963656e742066756e647320746f20637265617465206120747260008201527f616e736665720000000000000000000000000000000000000000000000000000602082015250565b600061480c6026836140c2565b9150614817826147b0565b604082019050919050565b6000602082019050818103600083015261483b816147ff565b9050919050565b7f63616e6e6f74207472616e736665722066756e6473207769746869776e20746860008201527f652077616c6c6574000000000000000000000000000000000000000000000000602082015250565b600061489e6028836140c2565b91506148a982614842565b604082019050919050565b600060208201905081810360008301526148cd81614891565b9050919050565b6000819050919050565b60006148f96148f46148ef846148d4565b6145a2565b613a1a565b9050919050565b614909816148de565b82525050565b600060e0820190508181036000830152614929818a6142e9565b90506149386020830189614258565b61494560408301886145f2565b6149526060830187613af5565b61495f6080830186613af5565b61496c60a0830185614900565b61497960c0830184613af5565b98975050505050505050565b600081905092915050565b60008190508160005260206000209050919050565b600081546149b281613fe9565b6149bc8186614985565b945060018216600081146149d757600181146149e857614a1b565b60ff19831686528186019350614a1b565b6149f185614990565b60005b83811015614a13578154818901526001820191506020810190506149f4565b838801955050505b50505092915050565b6000614a3082846149a5565b915081905092915050565b7f63616e6e6f7420616464206475706c696361746520746f6b656e730000000000600082015250565b6000614a71601b836140c2565b9150614a7c82614a3b565b602082019050919050565b60006020820190508181036000830152614aa081614a64565b9050919050565b6000614aba614ab58461396a565b61394f565b905082815260208101848484011115614ad657614ad56138ea565b5b614ae184828561379c565b509392505050565b600082601f830112614afe57614afd6138e5565b5b8151614b0e848260208601614aa7565b91505092915050565b600060208284031215614b2d57614b2c6138db565b5b600082015167ffffffffffffffff811115614b4b57614b4a6138e0565b5b614b5784828501614ae9565b91505092915050565b6000608082019050614b756000830187614258565b8181036020830152614b8781866142e9565b9050614b966040830185614258565b614ba36060830184613af5565b95945050505050565b7f63616e6e6f7420617070726f7665207468652073616d65207472616e7366657260008201527f2074776963650000000000000000000000000000000000000000000000000000602082015250565b6000614c086026836140c2565b9150614c1382614bac565b604082019050919050565b60006020820190508181036000830152614c3781614bfb565b9050919050565b6000604082019050614c536000830185614258565b614c606020830184614258565b9392505050565b6000604082019050614c7c60008301856145f2565b614c896020830184613af5565b939250505056fea2646970667358221220f9a508914837ff65a61c9135055bd576cd431847c96d487de16f00d4dafb0afb64736f6c634300080a0033a264697066735822122011bff0c8774df8976a9f1bbe0b9222fa4df93118e4319ab48ef26542912920cb64736f6c634300080a0033",
  "immutableReferences": {},
  "source": "// SPDX-License-Identifier: MIT\npragma solidity ^0.8.10;\n\nimport \"@openzeppelin/contracts/token/ERC20/IERC20.sol\";\nimport \"@openzeppelin/contracts/token/ERC20/ERC20.sol\";\n\ncontract MultiSigWallet {\n\n    address mainOwner;\n    address[] walletOwners;\n    uint limit;\n    uint depositId;\n    uint withdrawalId;\n    uint transferId;\n    string[] tokenList;\n    address multisigIntance;\n\n    constructor() {\n        mainOwner = msg.sender;\n        walletOwners.push(mainOwner);\n        limit = walletOwners.length - 1;\n        tokenList.push(\"ETH\");\n    }\n\n    mapping(address => mapping(string => uint)) balance;\n    mapping(address => mapping(uint => bool)) approvals;\n    mapping(string => Token) tokenMapping;\n\n    struct Token {\n\n        string ticker;\n        address tokenAddress;\n    }\n\n    struct Transfer {\n\n        string ticker;\n        address sender;\n        address payable receiver;\n        uint amount;\n        uint id;\n        uint approvals;\n        uint timeOfTransaction;\n    }\n\n    Transfer[] transferRequests;\n\n    event walletOwnerAdded(address addedBy, address ownerAdded, uint timeOfTransaction);\n    event walletOwnerRemoved(address removedBy, address ownerRemoved, uint timeOfTransaction);\n    event fundsDeposited(string ticker, address sender, uint amount, uint depositId, uint timeOfTransaction);\n    event fundsWithdrawed(string ticker, address sender, uint amount, uint withdrawalId, uint timeOfTransaction);\n    event transferCreated(string ticker, address sender, address receiver, uint amount, uint id, uint approvals, uint timeOfTransaction);\n    event transferCancelled(string ticker, address sender, address receiver, uint amount, uint id, uint approvals, uint timeOfTransaction);\n    event transferApproved(string ticker, address sender, address receiver, uint amount, uint id, uint approvals, uint timeOfTransaction);\n    event fundsTransfered(string ticker, address sender, address receiver, uint amount, uint id, uint approvals, uint timeOfTransaction);\n    event tokenAdded(address addedBy, string ticker, address tokenAddress, uint timeOfTransaction);\n\n    modifier onlyOwners() {\n\n       bool isOwner = false;\n       for (uint i = 0; i< walletOwners.length; i++) {\n\n           if (walletOwners[i] == msg.sender) {\n\n               isOwner = true;\n               break;\n           }\n       }\n\n       require(isOwner == true, \"only wallet owners can call this function\");\n       _;\n\n    }\n\n    modifier tokenExists(string memory ticker) {\n\n        if(keccak256(bytes(ticker)) != keccak256(bytes(\"ETH\"))) {\n\n            require(tokenMapping[ticker].tokenAddress != address(0), \"token does not exixts\");\n        }\n        _;\n    }\n\n    function addToken(string memory ticker, address _tokenAddress) public onlyOwners {\n\n        for (uint i = 0; i < tokenList.length; i++) {\n\n            require(keccak256(bytes(tokenList[i])) != keccak256(bytes(ticker)), \"cannot add duplicate tokens\");\n        }\n\n        require(keccak256(bytes(ERC20(_tokenAddress).symbol())) == keccak256(bytes(ticker)));\n\n        tokenMapping[ticker] = Token(ticker, _tokenAddress);\n\n        tokenList.push(ticker);\n\n        emit tokenAdded(msg.sender, ticker, _tokenAddress, block.timestamp);\n    }\n\n    function setMultisigContractAdress(address walletAddress) private {\n\n        multisigIntance = walletAddress;\n    }\n\n    function callAddOwner(address owner, address walletAddress) private {\n\n        MultiSigFactory factory = MultiSigFactory(multisigIntance);\n        factory.addNewWalletInstance(owner, walletAddress);\n    }\n\n    function callRemoveOwner(address owner, address walletAddress) private {\n\n        MultiSigFactory factory = MultiSigFactory(multisigIntance);\n        factory.removeNewWalletInstance(owner, walletAddress);\n    }\n\n    function addWalletOwner(address owner, address walletAddress, address _address) public onlyOwners {\n\n\n       for (uint i = 0; i < walletOwners.length; i++) {\n\n           if(walletOwners[i] == owner) {\n\n               revert(\"cannot add duplicate owners\");\n           }\n       }\n\n        walletOwners.push(owner);\n        limit = walletOwners.length - 1;\n\n        emit walletOwnerAdded(msg.sender, owner, block.timestamp);\n\n        setMultisigContractAdress(_address);\n        callAddOwner(owner, walletAddress);\n    }\n\n    function removeWalletOwner(address owner, address walletAddress, address _address) public onlyOwners {\n\n        bool hasBeenFound = false;\n        uint ownerIndex;\n        for (uint i = 0; i < walletOwners.length; i++) {\n\n            if(walletOwners[i] == owner) {\n\n                hasBeenFound = true;\n                ownerIndex = i;\n                break;\n            }\n        }\n\n        require(hasBeenFound == true, \"wallet owner not detected\");\n\n        walletOwners[ownerIndex] = walletOwners[walletOwners.length - 1];\n        walletOwners.pop();\n        limit = walletOwners.length - 1;\n\n         emit walletOwnerRemoved(msg.sender, owner, block.timestamp);\n\n         setMultisigContractAdress(_address);\n         callRemoveOwner(owner, walletAddress);\n\n    }\n\n    function deposit(string memory ticker, uint amount) public payable onlyOwners tokenExists(ticker) {\n\n        require(balance[msg.sender][ticker] >= 0, \"cannot deposiit a calue of 0\");\n\n        if(keccak256(bytes(ticker)) == keccak256(bytes(\"ETH\"))) {\n\n            balance[msg.sender][\"ETH\"] += msg.value;\n\n        }\n\n        else {\n\n            balance[msg.sender][ticker] += amount;\n            IERC20(tokenMapping[ticker].tokenAddress).transferFrom(msg.sender, address(this), amount);\n\n        }\n\n        emit fundsDeposited(ticker, msg.sender, msg.value, depositId, block.timestamp);\n\n        depositId++;\n\n    }\n\n    function withdraw(string memory ticker, uint amount) public onlyOwners tokenExists(ticker) {\n\n        require(balance[msg.sender][ticker] >= amount);\n\n        balance[msg.sender][ticker] -= amount;\n\n        if(keccak256(bytes(ticker)) == keccak256(bytes(\"ETH\"))) {\n\n            payable(msg.sender).transfer(amount);\n        }\n\n        else {\n\n            IERC20(tokenMapping[ticker].tokenAddress).transfer(msg.sender, amount);\n\n        }\n\n        emit fundsWithdrawed(ticker, msg.sender, amount, withdrawalId, block.timestamp);\n\n        withdrawalId++;\n\n    }\n\n    function createTrnasferRequest(string memory ticker, address payable receiver, uint amount) public onlyOwners tokenExists(ticker) {\n\n        require(balance[msg.sender][ticker] >= amount, \"insufficent funds to create a transfer\");\n\n        for (uint i = 0; i < walletOwners.length; i++) {\n\n            require(walletOwners[i] != receiver, \"cannot transfer funds withiwn the wallet\");\n        }\n\n        balance[msg.sender][ticker] -= amount;\n        transferRequests.push(Transfer(ticker, msg.sender, receiver, amount, transferId, 0, block.timestamp));\n        transferId++;\n        emit transferCreated(ticker, msg.sender, receiver, amount, transferId, 0, block.timestamp);\n    }\n\n    function cancelTransferRequest(uint id) public onlyOwners {\n\n        string memory ticker = transferRequests[id].ticker;\n        bool hasBeenFound = false;\n        uint transferIndex = 0;\n        for (uint i = 0; i < transferRequests.length; i++) {\n\n            if(transferRequests[i].id == id) {\n\n                hasBeenFound = true;\n                break;\n\n            }\n\n             transferIndex++;\n        }\n\n        require(transferRequests[transferIndex].sender == msg.sender, \"only the transfer creator can cancel\");\n        require(hasBeenFound, \"transfer request does not exist\");\n\n        balance[msg.sender][ticker] += transferRequests[transferIndex].amount;\n\n        transferRequests[transferIndex] = transferRequests[transferRequests.length - 1];\n\n        emit transferCancelled(ticker, msg.sender, transferRequests[transferIndex].receiver, transferRequests[transferIndex].amount, transferRequests[transferIndex].id, transferRequests[transferIndex].approvals, transferRequests[transferIndex].timeOfTransaction);\n        transferRequests.pop();\n    }\n\n    function approveTransferRequest(uint id) public onlyOwners {\n\n        string memory ticker = transferRequests[id].ticker;\n        bool hasBeenFound = false;\n        uint transferIndex = 0;\n        for (uint i = 0; i < transferRequests.length; i++) {\n\n            if(transferRequests[i].id == id) {\n\n                hasBeenFound = true;\n                break;\n\n            }\n\n             transferIndex++;\n        }\n\n        require(hasBeenFound, \"only the transfer creator can cancel\");\n        require(approvals[msg.sender][id] == false, \"cannot approve the same transfer twice\");\n        require(transferRequests[transferIndex].sender != msg.sender);\n\n        approvals[msg.sender][id] = true;\n        transferRequests[transferIndex].approvals++;\n\n        emit transferApproved(ticker, msg.sender, transferRequests[transferIndex].receiver, transferRequests[transferIndex].amount, transferRequests[transferIndex].id, transferRequests[transferIndex].approvals, transferRequests[transferIndex].timeOfTransaction);\n\n        if (transferRequests[transferIndex].approvals == limit) {\n\n            transferFunds(ticker, transferIndex);\n        }\n    }\n\n    function transferFunds(string memory ticker, uint id) private {\n\n        balance[transferRequests[id].receiver][ticker] += transferRequests[id].amount;\n\n        if(keccak256(bytes(ticker)) == keccak256(bytes(\"ETH\"))) {\n\n            transferRequests[id].receiver.transfer(transferRequests[id].amount);\n        }\n        else {\n\n            IERC20(tokenMapping[ticker].tokenAddress).transfer(transferRequests[id].receiver, transferRequests[id].amount);\n        }\n\n\n        emit fundsTransfered(ticker, msg.sender, transferRequests[id].receiver, transferRequests[id].amount, transferRequests[id].id, transferRequests[id].approvals, transferRequests[id].timeOfTransaction);\n\n        transferRequests[id] = transferRequests[transferRequests.length - 1];\n        transferRequests.pop();\n    }\n\n    function getApprovals(uint id) public view returns(bool) {\n\n        return approvals[msg.sender][id];\n    }\n\n    function getTransferRequests() public view returns(Transfer[] memory) {\n\n        return transferRequests;\n    }\n\n    function getBalance(string memory ticker) public view tokenExists(ticker) returns(uint) {\n\n        return balance[msg.sender][ticker];\n    }\n\n    function getApprovalLimit() public view returns (uint) {\n\n        return limit;\n    }\n\n    function getContractETHBalance() public view returns(uint) {\n\n        return address(this).balance;\n    }\n\n    function getContractERC20Balance(string memory ticker) public view tokenExists(ticker) returns(uint) {\n\n        return balance[address(this)][ticker];\n    }\n\n    function getWalletOwers() public view returns(address[] memory) {\n\n        return walletOwners;\n    }\n\n    function getTokenList() public view returns(string[] memory) {\n\n        return tokenList;\n    }\n\n}\n\n\n\n\ncontract MultiSigFactory {\n\n    struct UserWallets{\n\n        address walletAddress;\n    }\n\n    UserWallets[] userWallets;\n    MultiSigWallet[] multisigWalletIntances;\n\n    mapping(address => UserWallets[]) ownersWallets;\n\n    event WalletCreated(address createdBy, address newWalletContractAddress, uint timeOfTransaction);\n\n    function createNewWallet() public {\n\n        MultiSigWallet newMultisigWalletContract = new MultiSigWallet();\n        multisigWalletIntances.push(newMultisigWalletContract);\n\n        UserWallets[] storage newWallet = ownersWallets[msg.sender];\n        newWallet.push(UserWallets(address(newMultisigWalletContract)));\n\n        emit WalletCreated(msg.sender, address(newMultisigWalletContract), block.timestamp);\n\n    }\n\n    function addNewWalletInstance(address owner, address walletAddress) external {\n\n        UserWallets[] storage newWallet = ownersWallets[owner];\n        newWallet.push(UserWallets(walletAddress));\n\n    }\n\n    function removeNewWalletInstance(address _owner, address _walletAddress) external {\n\n        UserWallets[] storage newWallet = ownersWallets[_owner];\n\n        bool hasBeenFound = false;\n        uint walletIndex;\n        for (uint i = 0; i < newWallet.length; i++) {\n\n            if(newWallet[i].walletAddress == _walletAddress) {\n\n                hasBeenFound = true;\n                walletIndex = i;\n                break;\n            }\n\n        }\n\n        require(hasBeenFound, \"the owners does not own the wallet specified\");\n\n        newWallet[walletIndex] = newWallet[newWallet.length - 1];\n        newWallet.pop();\n\n\n    }\n\n    function getOwnerWallets(address owner) public view returns(UserWallets[] memory) {\n\n        return ownersWallets[owner];\n    }\n\n}\n",
  "sourcePath": "/Users/paras/Documents/multisig-wallet/contracts/MultiSigWallet.sol",
  "compiler": {
    "name": "solc",
    "version": "0.8.10+commit.fc410830.Emscripten.clang"
  },
  "schemaVersion": "3.4.7",
  "updatedAt": "2022-09-13T10:48:38.140Z",
  "devdoc": {
    "kind": "dev",
    "methods": {},
    "version": 1
  },
  "userdoc": {
    "kind": "user",
    "methods": {},
    "version": 1
  }
}